:020000040000FA
:060000000A128A110C280F
:10000800FE00030EF1000A08F2000A128A11CA283B
:100018000A128A110F2883133030FD000130FE00C8
:10002800A530FF00203084000A128A1173210A12B9
:100038008A11B901BA01BB01F801F901FA0183017A
:100048000A128A11902883120313B101F41F2D2874
:100058002E283528F309F409F30A0319F40AB10123
:10006800B10AF61F382839284228F509F609F50A91
:100078000319F60A0130F7007708B106B201B30197
:1000880073087404031949284A288128B001B00A62
:10009800582801300310F30DF40DFF3E031D4E28C0
:1000A8000130F7007708B007F41F5B285C284D285B
:1000B80001300310B20DB30DFF3E031D5D28740817
:1000C8007602031D692873087502031C6C286D28C5
:1000D80074287308F5027408031CF603F602321438
:1000E80001300310F40CF30CFF3E031D752801309A
:1000F800B002031D802881285C283108031985284F
:1001080086288B28B209B309B20A0319B30A33083F
:10011800F4003208F30008000A128A1143210A1277
:100128008A110A128A11C2210A128A110A128A1124
:10013800CF210A128A110A128A11C9210A128A11B8
:100148000A128A115A210A128A110A128A11B52131
:100158000A128A11831203139F140A128A112C217E
:100168000A128A11831203139F18BB28BC28B128CE
:10017800203083120313B800B80BC0280000831284
:1001880003139F14B1280A128A110C280B1CCD28BE
:10019800CE28D3280A128A1182210A128A118312C0
:1001A80003130C1FD828D928DE280A128A11942193
:1001B8000A128A110B1DE128E228E7280A128A117F
:1001C8000D210A128A1172088A00710E8300FE0E30
:1001D8007E0E090079080F3983120313B40034081E
:1001E800FA001030F3000030F4007908F039B40058
:1001F800B5013408F5003508F6000A128A112720DF
:100208000A128A11730883120313B6003608BB005A
:1002180008008312031385017808031D1429152982
:100228001E293A088500043088000130F000700863
:10023800F80728297803031D2229232928293908A2
:10024800850008308800F801FE3081000B11080095
:100258000A128A11EE200A128A117A08203E8400B6
:100268008313000883120313B7003708BA003B084A
:10027800203E84000008B7003708B900080083163C
:100288000317890120308800033083160313860082
:1002980087018501880103308900811303309500A7
:1002A800831203138601870185010800831603134F
:1002B8009F131F129F12831203131F139F131F08EC
:1002C800C33914389F002130F300F30B69298312D6
:1002D80003131F1408007E088A007F0882000A1290
:1002E8008A116F210A128A118000840A04087D0687
:1002F80003190034FF0A0319FE0A73298312031332
:100308000618872988298C290130F000700887078A
:1003180086188F2990299229013087020B1008002E
:10032800831203131F0CF000700C0F39053A031DDC
:100338009E299F29A3291E08F0007008F9000C13B4
:1003480008003F3406345B344F3466346D347D34F2
:1003580007347F34673477347C3439345E34793405
:10036800713483160313811281110115811401144C
:10037800FE308312031381000B1108008316031348
:100388000F138F160F160F1408000330831603136C
:1003980096000B1008008B178B168B150B100B1182
:0203A80008004B
:04400E00F430FF3F4C
:00000001FF
