:020000040000FA
:060000000A128A110C280F
:10000800FE00030EF8000A08F9000A128A11662891
:100018000A128A110F2883133030FD000130FE00C8
:100028003830FF00203084000A128A1106210A1293
:100038008A11F001F101F201F301F401F501F60171
:1000480083010A128A1128280A128A11A9200A1281
:100058008A110A128A1155210A128A110A128A1162
:1000680062210A128A110A128A115C210A128A1163
:100078000A128A11ED200A128A110A128A114821DD
:100088000A128A11831203139F140A128A11D820A4
:100098000A128A118312031307087302031C5528D6
:1000A8005628572808149F185A285B2849282130B1
:1000B800FD00FD0B5D28831203139F1449280A12C3
:1000C8008A110C280B1C69286A286F280A128A11C1
:1000D80015210A128A11831203130C1F742875281C
:1000E8007A280A128A1127210A128A110B1D7D28E3
:1000F8007E2883280A128A118A200A128A1179080E
:100108008A00780E8300FE0E7E0E09008312031308
:1001180085017208031D912892289B287108850083
:10012800043088000130F7007708F207A528720329
:10013800031D9F28A028A52870088500083088007E
:10014800F201FE3081000B110800831603178901A4
:100158002030880003308316031386008701850149
:10016800880103308900811303309500831203133B
:10017800860187018501890108007308FA000430A7
:100188000310FA0CFF3E031DC4287A08FB007B0805
:10019800F60076080F39FA007A08F40073080F3968
:1001A800FA007A08F50008000A128A11C1200A121A
:1001B8008A117508203E840083130008FC007C081F
:1001C800F1007408203E84000008FC007C08F00060
:1001D8000800831603139F131F129F128312031321
:1001E8001F139F131F08C33914389F002130FA00CA
:1001F800FA0BFC28831203131F1408007E088A00D8
:100208007F0882000A128A1102210A128A118000CC
:10021800840A04087D0603190034FF0A0319FE0A3C
:1002280006298312031306181A291B291F290130CE
:10023800F7007708870786182229232925290130FE
:1002480087020B100800831203131F0CF700770CAA
:100258000F39053A031D3129322936291E08F700BE
:100268007708F3000C1308003F3406345B344F342E
:1002780066346D347D3407347F34673477347C34A6
:1002880039345E3479347134831603138112811141
:10029800011581140114FE308312031381000B1120
:1002A8000800831603130F138F160F160F14080078
:1002B80003308316031396000B1008008B178B1658
:0802C8008B150B100B1108004F
:04400E00F430FF3F4C
:00000001FF
