:020000040000FA
:060000000A128A110C280F
:10000800FE00030EF1000A08F2000A128A115D28A8
:100018000A128A110F2883133030FD000130FE00C8
:100028000630FF00203084000A128A11E5200A12E7
:100038008A11F601F701F801F901FA0183010A12A0
:100048008A1126280A128A11A0200A128A110A1275
:100058008A113F210A128A110A128A114C210A12A6
:100068008A110A128A1146210A128A110A128A1161
:10007800CC200A128A110A128A1132210A128A1114
:10008800831203139F140A128A11B7200A128A11C5
:10009800831203139F185128522847282130F5004E
:1000A800F50B5428831203139F1447280A128A1148
:1000B8000C280B1C6028612866280A128A11F42073
:1000C8000A128A11831203130C1F6B286C287128DB
:1000D8000A128A1116210A128A110B1D7428752812
:1000E8007A280A128A1181200A128A1172088A0053
:1000F800710E8300FE0E7E0E090083120313850124
:100108007808031D882889289228770885000430F4
:1001180086000130F0007008F8079C287803031D5A
:10012800962897289C287608850008308600F801CC
:10013800FE3081000B110800831603178901203057
:100148008800033083160313860087018501880120
:10015800033089008113033095008312031386014D
:100168008701850108000A128A1125210A128A11BD
:100178007A08203E840083130008F4007408F7000E
:100188007908203E84000008F4007408F60008008E
:10019800831603139F131F129F12831203131F1337
:1001A8009F131F08C33914389F002130F300F30B45
:1001B800DB28831203131F1408007E088A007F08B7
:1001C80082000A128A11E1200A128A118000840A28
:1001D80004087D0603190034FF0A0319FE0AE528FE
:1001E800831203130618F928FA28FE280130F000B4
:1001F8007008870786180129022904290130870217
:100208000B1008003F3406345B344F3466346D34C9
:100218007D3407347F34673477347C3439345E3442
:1002280079347134831203131F0CF000700C0F39EA
:10023800053A031D2029212923291E0888000C13AB
:1002480008008312031308080F39F3007308FA0033
:100258000808F039F3007308F9000800831603133F
:1002680081128111011581140114FE3083120313C8
:1002780081000B110800831603130F138F160F1636
:100288000F14080003308316031396000B100800A0
:0C0298008B178B168B150B100B11080038
:04400E00F430FF3F4C
:00000001FF
