:020000040000FA
:060000000A128A110C280F
:10000800FE00030EF1000A08F2000A128A117D2987
:100018000A128A110F2883133630FD000230FE00C1
:100028000A30FF002C3084000A128A11CD210A12EE
:100038008A11A001A101A201A301A401A501A601A1
:10004800A701A801A901AA01AB01F801F901FA0168
:1000580083010A128A111829831203130708BA00A8
:10006800BB013A08F8003B08F9006430F30000309F
:10007800F4007908F6007808F5000A128A11AF2012
:100088000A128A11740883120313A7007308A600C2
:100098002708F4002608F3009C30F500FF30F6002E
:1000A8000A128A1152210A128A1178087307F80075
:1000B80079080318790A7407F9000A30F300003048
:1000C800F4007908F6007808F5000A128A11AF20C2
:1000D8000A128A11740883120313A9007308A8006E
:1000E8002908F4002808F300F630F500FF30F60080
:1000F8000A128A1152210A128A1178087307F80025
:1001080079080318790A7407F90079088312031328
:10011800AB007808AA002A082C3E84008313000844
:10012800BA00BB013A08A4003B08A50028082C3EE9
:1001380084000008BA00BB013A08A2003B08A300EB
:1001480026082C3E84000008BA00BB013A08A0002B
:100158003B08A100080083120313B701F41FB52858
:10016800B628BD28F309F409F30A0319F40AB701FC
:10017800B70AF61FC028C128CA28F509F609F50AE2
:100188000319F60A0130F7007708B706B801B90174
:10019800730874040319D128D2280929B601B60AAC
:1001A800E02801300310F30DF40DFF3E031DD6289F
:1001B8000130F7007708B607F41FE328E428D528AC
:1001C80001300310B80DB90DFF3E031DE528740872
:1001D8007602031DF12873087502031CF428F5281C
:1001E800FC287308F5027408031CF603F602381499
:1001F80001300310F40CF30CFF3E031DFD28013001
:10020800B602031D08290929E428370803190D290E
:100218000E291329B809B909B80A0319B90A3908FE
:10022800F4003808F30008000A128A119D210A1206
:100238008A110A128A1114220A128A110A128A11C0
:1002480021220A128A110A128A111B220A128A1101
:100258000A128A11B4210A128A110A128A11FD217E
:100268000A128A11831203139F140A128A1130206A
:100278000A128A11831203139F1843294429392922
:10028800203083120313BC00BC0B482900008312E2
:1002980003139F1439290A128A110C288312031395
:1002A800B601B701731C59295A29622975088312A6
:1002B8000313B6070318B70A7608B7070130031007
:1002C800F50DF60DFF3E031D632901300310F40CF4
:1002D800F30CFF3E031D6A2973087404031D752976
:1002E80076295629831203133708F4003608F300D9
:1002F80008000B1C8029812986290A128A11DC2111
:100308000A128A11831203130C1F8B298C29912935
:100318000A128A11EE210A128A110B1D94299529B5
:1003280096290B1172088A00710E8300FE0E7E0E4C
:1003380009008316031789012030880003308316CB
:100348000313860087018501880103308900811322
:100358000330950083120313860187018501080085
:10036800831603139F131F129F12831203131F1365
:100378009F131F08C33914389F002130F300F30B73
:10038800C329831203131F1408007E088A007F08FC
:1003980082000A128A11C9210A128A118000840A6D
:1003A80004087D0603190034FF0A0319FE0ACD2943
:1003B800831203130618E129E229E6290130F00027
:1003C800700887078618E929EA29EC29013087028D
:1003D8000B100800831203131F0CF000700C0F3968
:1003E800053A031DF829F929FB291E0888000C1372
:1003F8000800831603138112811101158114011459
:10040800FE308312031381000B1108003F340634B9
:100418005B344F3466346D347D3407347F3467344D
:10042800831603130F138F160F160F1408000330CB
:100438008316031396000B1008008B178B168B1569
:060448000B100B1108006F
:04400E00F430FF3F4C
:00000001FF
