:020000040000FA
:060000000A128A110C280F
:10000800FE00030EF8000A08F9000A128A11672890
:100018000A128A110F2883133030FD000130FE00C8
:100028003930FF00203084000A128A1107210A1291
:100038008A11F001F101F201F301F401F501F60171
:1000480083010A128A1128280A128A11AA200A1280
:100058008A110A128A1156210A128A110A128A1161
:1000680063210A128A110A128A115D210A128A1161
:100078000A128A11EE200A128A110A128A114921DB
:100088000A128A11831203139F140A128A11D920A3
:100098000A128A118312031307087302031C5528D6
:1000A80056285828103088009F185B285C28492853
:1000B8002130FD00FD0B5E28831203139F1449288D
:1000C8000A128A110C280B1C6A286B2870280A123D
:1000D8008A1116210A128A11831203130C1F75281C
:1000E80076287B280A128A1128210A128A110B1DE8
:1000F8007E287F2884280A128A118B200A128A11E6
:1001080079088A00780E8300FE0E7E0E090083129D
:10011800031385017208031D922893289C287108EF
:100128008500043088000130F7007708F207A62818
:100138007203031DA028A128A6287008850008308E
:100148008800F201FE3081000B11080083160317A6
:100158008901203088000330831603138600870145
:1001680085018801033089008113033095008312CB
:100178000313860187018501890108007308FA00C5
:1001880004300310FA0CFF3E031DC5287A08FB0053
:100198007B08F60076080F39FA007A08F40073082D
:1001A8000F39FA007A08F50008000A128A11C220ED
:1001B8000A128A117508203E840083130008FC0087
:1001C8007C08F1007408203E84000008FC007C08CC
:1001D800F0000800831603139F131F129F12831247
:1001E80003131F139F131F08C33914389F002130AE
:1001F800FA00FA0BFD28831203131F1408007E0867
:100208008A007F0882000A128A1103210A128A11C1
:100218008000840A04087D0603190034FF0A0319C4
:10022800FE0A07298312031306181B291C292029F3
:100238000130F700770887078618232924292629FB
:10024800013087020B100800831203131F0CF700FC
:10025800770C0F39053A031D3229332937291E082F
:10026800F7007708F3000C1308003F3406345B34BA
:100278004F3466346D347D3407347F3467347734D3
:100288007C3439345E347934713483160313811223
:100298008111011581140114FE30831203138100AA
:1002A8000B110800831603130F138F160F160F1464
:1002B800080003308316031396000B1008008B17F1
:0A02C8008B168B150B100B110800AC
:04400E00F430FF3F4C
:00000001FF
