:020000040000FA
:060000000A128A110C280F
:10000800FE00030EF1000A08F2000A168A15BE2A3D
:100018000A128A110F28FA0183120313EF018313BE
:10002800CD308400E4300A168A159F220A128A11FC
:1000380083010A128A157428831603134808831249
:100048000313A30083160313470883120313A200A4
:1000580083160313460883120313A10083160313A0
:10006800450883120313A0000030A7000030A60043
:100078000030A5000030A4000A168A1529250A12A6
:100088008A110318482849282B298316031348087E
:1000980083120313DA00831603134708831203132A
:1000A800D90083160313460883120313D800831656
:1000B8000313450883120313D7000A168A15E0268E
:1000C8000A128A11831203135A0859045804570450
:1000D800031D6F2870282B29831603134408803AC0
:1000E800FF0080307F02031D7B2802304302031C7F
:1000F8007E287F282B2983160313420883120313B3
:10010800A30083160313410883120313A200831666
:100118000313400883120313A100831603133F0837
:1001280083120313A0004030A7008930A600703066
:10013800A5005F30A4000A168A155C270A128A11E6
:100148000318A728A828B128F73083160313C30774
:100158000318C40AFF30C407B928F83083160313FC
:10016800C3070318C40AFF30C40743080A128A15D4
:100178009D240A128A118312031347088316031356
:10018800C20083120313460883160313C1008312A7
:100198000313450883160313C0008312031344088E
:1001A80083160313BF00480883120313A3008316A2
:1001B8000313470883120313A20083160313460888
:1001C80083120313A1008316031345088312031334
:1001D800A00083160313420883120313A700831693
:1001E8000313410883120313A60083160313400860
:1001F80083120313A500831603133F088312031306
:10020800A4000A168A11B4210A128A118312031350
:10021800230883160313BA008312031322088316D4
:100228000313B90083120313210883160313B800BC
:1002380083120313200883160313B7000030C80085
:100248000030C7000030C6000030C5009129831671
:100258000313480883120313DA00831603134708AD
:1002680083120313D900831603134608831203135A
:10027800D80083160313450883120313D7000A1600
:100288008A15E0260A128A11831203135A08831664
:100298000313BA0083120313590883160313B90012
:1002A80083120313580883160313B8008312031329
:1002B800570883160313B7003A08F6003908F50003
:1002C8003808F4003708F30000300A168A113B207A
:1002D8000A128A11760883160313A3007508A20070
:1002E8007408A1007308A0004808A7004708A600E2
:1002F8004608A5004508A4000A168A1579250A1299
:100308008A11831603132308C8002208C70021088E
:10031800C6002008C500C301C401CC01CC0A4C08A2
:10032800AD0001300310AD0DFF3E031D96290310EB
:100338002D0D693E84000A168A150A200A128A11B0
:10034800AE000A168A150A200A128A11AF000A1688
:100358008A150A200A128A11B0000A168A150A207C
:100368000A128A11B10031083A02031DC529300862
:100378003902031DC5292F083802031DC5292E0877
:1003880037020318C829C929CA29D4290130AD0060
:100398002D08CC070A304C06031DD329D4299329EC
:1003A8004C084A07AD004B0803184B0AAE00430837
:1003B8002D07AF0044080318440A2E07B0002F0881
:1003C800BD023008031CBE03BE024A084B040319D1
:1003D800EE29EF29F529FF30BD070318BE0AFF30C3
:1003E800BE0703303B05AD0000303C05AE002D08CC
:1003F8002E040319002A012A162AFF30BD07031804
:10040800BE0AFF30BE07162A203083160313AD003C
:10041800490884002D08831380000130AD002D08A1
:10042800C907012A3E08803AFF0080307F02031D79
:100438001F2A01303D020318222A232A082A0330E2
:10044800831603133B05AD0000303C05AE002D08B4
:100458002E040319302A312AE32A2D30AD00490829
:1004680084002D08831380000130AD002D08C907D2
:10047800E32A4C08AD0001300310AD0DFF3E031D0B
:10048800402A03102D0D693E84000A168A150A2099
:100498000A128A1183120313A0000A168A150A2069
:1004A8000A128A11A1000A168A150A200A128A114C
:1004B800A2000A168A150A200A128A11A3008316B6
:1004C80003133A0883120313A7008316031339088A
:1004D80083120313A6008316031338088312031329
:1004E800A50083160313370883120313A4000A1602
:1004F8008A1578260A128A11831203132308831691
:100508000313C20083120313220883160313C100C6
:1005180083120313210883160313C00083120313E5
:10052800200883160313BF00003083120313A300AF
:100538000030A2000030A1000A30A0008316031387
:10054800420883120313A70083160313410883127A
:100558000313A60083160313400883120313A50090
:10056800831603133F0883120313A4000A168A157F
:10057800C9250A128A118312031323088316031349
:10058800C20083120313220883160313C1008312C7
:100598000313210883160313C000831203132008D2
:1005A80083160313BF003F08303EAD00490884009E
:1005B8002D08831380000130AD002D08C9070130D4
:1005C800CC024C0A031DE92AEA2A3D2AFE2A3030C9
:1005D80083160313AD00490884002D088313800097
:1005E8000130AD002D08C907FF30C3070318C40A3E
:1005F800FF30C4074408803AFF0080307F02031DA3
:10060800072B0130430203180A2B0B2BEB2A831606
:1006180003134B08803AFF0080307F02031D162B1E
:1006280009304A02031C192B1A2B212B0830831678
:100638000313AD002D08CC00272B831603134A089B
:10064800AD002D08CC004C08AD00AE012D08CA0243
:100658002E08031CCB03CB024C080319342B352B73
:10066800402B2E30AD00490884002D0883138000EC
:100678000130AD002D08C9074C080A128A159D24BF
:100688000A128A1183120313470883160313B5004D
:1006980083120313460883160313B400831203134B
:1006A800450883160313B300831203134408831603
:1006B8000313B200350883120313B1008316031322
:1006C800340883120313B00083160313330883120C
:1006D8000313AF0083160313320883120313AE000B
:1006E80083160313480883120313AD0083160313FC
:1006F800470883120313AC008316031346088312BA
:100708000313AB0083160313450883120313AA00CF
:100718000A128A153C210A128A11831203132D0822
:10072800DA002C08D9002B08D8002A08D7000A16A6
:100738008A15E0260A128A11831203135A088316AF
:100748000313BA0083120313590883160313B9005D
:1007580083120313580883160313B8008312031374
:10076800570883160313B700BA2C4C08AD000130A4
:100778000310AD0DFF3E031DBC2B03102D0D693E6C
:1007880084000A168A150A200A128A118312031392
:10079800A0000A168A150A200A128A11A1000A1650
:1007A8008A150A200A128A11A2000A168A150A2036
:1007B8000A128A11A300831603133A08831203133B
:1007C800A70083160313390883120313A6008316A0
:1007D8000313380883120313A5008316031337087D
:1007E80083120313A4000A168A1578260A128A119E
:1007F80083120313230883160313C20083120313FF
:10080800220883160313C1008312031321088316D9
:100818000313C00083120313200883160313BF00B9
:10082800003083120313A3000030A2000030A1009F
:100838000A30A00083160313420883120313A7008B
:1008480083160313410883120313A60083160313A8
:10085800400883120313A500831603133F0883126D
:100868000313A4000A168A15C9250A128A118312CD
:100878000313230883160313C200831203132208E9
:1008880083160313C100831203132108831603136D
:10089800C00083120313200883160313BF003F0808
:1008A800303EAD00490884002D08831380000130D4
:1008B800AD002D08C9074C08AD0001300310AD0D7F
:1008C800FF3E031D622C03102D0D693E84000A169D
:1008D8008A150A200A128A1183120313A0000A1625
:1008E8008A150A200A128A11A1000A168A150A20F6
:1008F8000A128A11A2000A168A150A200A128A11F7
:10090800A300831603133A0883120313A700831660
:100918000313390883120313A60083160313380838
:1009280083120313A50083160313370883120313D6
:10093800A4000A168A15C9250A128A1183120313FC
:10094800230883160313BA0083120313220883169D
:100958000313B90083120313210883160313B80085
:1009680083120313200883160313B7000130CC0247
:100978004C0A031DC02CC12CB92BD32C3030AD0030
:10098800490884002D08831380000130AD002D082C
:10099800C907FF30CA070318CB0AFF30CB074A083C
:1009A8004B04031DD82CD92CC22C9F2D4A084B046C
:1009B800031DDF2CE02CEE2C3A08390438043704E8
:1009C800031DE72CE82CEE2C0130CA070318CB0ACC
:1009D8000030CB074B08803A803C031DF52C4A08B1
:1009E8004C020318F82CF92C002D831603134A081F
:1009F800AD002D08CC00182D831603134B08803A40
:100A0800AD0080302D02031D0B2D4C084A0203183F
:100A18000E2D0F2D182D831603134C08AD00AE01B3
:100A28002D08CA002E08CB00831603133D083E0488
:100A380003191F2D202D322D03303B05AD0000304A
:100A48003C05AE002D082E0403192B2D2C2D322D1C
:100A5800FF30BD070318BE0AFF30BE073C1F352D07
:100A6800362D512D4B08803AAD003E08803A2D02B4
:100A7800031D402D3D084A020318432D442D4D2DDA
:100A8800831603134A08BD024B08031CBE03BE02AB
:100A9800512D83160313BD01BE013E08803A803CE8
:100AA800031D582D3D084C0203185B2D5C2D682D45
:100AB800831603134C08AD00AE012D08BD022E08A5
:100AC800031CBE03BE026C2D83160313BD01BE01B9
:100AD8003D083E040319712D722D892D2030AD007B
:100AE800490884002D08831380000130AD002D08CB
:100AF800C907FF30BD070318BE0AFF30BE073D080F
:100B08003E04031D882D892D722D03303B05AD0051
:100B180000303C05AE002D082E040319942D952DA8
:100B28009F2D2D30AD00490884002D0883138000C7
:100B38000A168A11132D0130A807FF3028078400F0
:100B48000A168A150A200A128A11AD002D08CC004F
:100B58004C08031DB02DB32D0A168A11062D49081D
:100B6800840083138001080083120313D7006E30BA
:100B78005702031CC02DC12DD02E3F30AD000030D0
:100B8800AC000030AB000030AA006430A000003098
:100B9800A1005708C800C9014808A2004908A300D5
:100BA8000A168A1599240A128A1183120313200837
:100BB800CA0001300310CA0DFF3E031DDE2D0310CD
:100BC8004A0D7D3E84000A168A150A200A128A11E7
:100BD800CB000A168A150A200A128A11CC000A16B6
:100BE8008A150A200A128A11CD000A168A150A20C7
:100BF8000A128A11CE004E08B1004D08B0004C0808
:100C0800AF004B08AE000A128A153C210A128A115D
:100C1800831203132D08D6002C08D5002B08D40006
:100C28002A08D3000A30A0000030A1005708C800E5
:100C3800C9014808F5004908F6006430F30000309F
:100C4800F4000A128A11C5270A128A11740883123D
:100C58000313A3007308A2000A168A1599240A121E
:100C68008A11831203132008CA0001300310CA0D29
:100C7800FF3E031D3A2E03104A0D593E84000A1602
:100C88008A150A200A128A11CB000A168A150A2028
:100C98000A128A11CC000A168A150A200A128A1129
:100CA800CD000A168A150A200A128A11CE004E08AB
:100CB800AD004D08AC004C08AB004B08AA00560824
:100CC800B1005508B0005408AF005308AE000A122E
:100CD8008A153C210A128A11831203132D08D200A7
:100CE8002C08D1002B08D0002A08CF000A30F300C6
:100CF8000030F4005708C800C9014808F500490841
:100D0800F6000A128A11C5270A128A11730883127B
:100D18000313CA0001300310CA0DFF3E031D8F2EB6
:100D280003104A0D353E84000A168A150A200A1255
:100D38008A11CB000A168A150A200A128A11CC00D9
:100D48000A168A150A200A128A11CD000A168A156F
:100D58000A200A128A11CE004E08AD004D08AC00D8
:100D68004C08AB004B08AA005208B1005108B0006B
:100D78005008AF004F08AE000A128A153C210A122B
:100D88008A11831203132D08C7002C08C6002B08EC
:100D9800C5002A08C400C42F0B305702031CD52EE7
:100DA800D62E812F3F30AD000030AC000030AB00B4
:100DB8000030AA000A30A0000030A1005708C8007F
:100DC800C9014808A2004908A3000A168A159924EF
:100DD8000A128A11831203132008CA000130031073
:100DE800CA0DFF3E031DF32E03104A0D593E840021
:100DF8000A168A150A200A128A11CB000A168A15C1
:100E08000A200A128A11CC000A168A150A200A1228
:100E18008A11CD000A168A150A200A128A11CE00F4
:100E28004E08B1004D08B0004C08AF004B08AE00AA
:100E38000A128A153C210A128A11831203132D08FB
:100E4800D6002C08D5002B08D4002A08D3000A3075
:100E5800F3000030F4005708C800C9014808F5003D
:100E68004908F6000A128A11C5270A128A1173085E
:100E780083120313CA0001300310CA0DFF3E031D7D
:100E8800402F03104A0D353E84000A168A150A20A1
:100E98000A128A11CB000A168A150A200A128A1128
:100EA800CC000A168A150A200A128A11CD000A16E1
:100EB8008A150A200A128A11CE004E08AD004D0884
:100EC800AC004C08AB004B08AA005608B100550806
:100ED800B0005408AF005308AE000A128A153C212E
:100EE8000A128A11831203132D08C7002C08C600A2
:100EF8002B08C5002A08C400C42F3F30AD000030BD
:100F0800AC000030AB000030AA005708C800013020
:100F18000310C80DFF3E031D8C2F0310480D353EEE
:100F280084000A168A150A200A128A11C9000A16AC
:100F38008A150A200A128A11CA000A168A150A2076
:100F48000A128A11CB000A168A150A200A128A1177
:100F5800CC004C08B1004B08B0004A08AF00490863
:100F6800AE000A128A153C210A128A118312031351
:100F78002D08C7002C08C6002B08C5002A08C40085
:100F88000800730874040319CA2FCB2FFA2FF8012D
:100F9800F80AD92F01300310F30DF40DFF3E031D9D
:100FA800CF2F0130F7007708F807F41FDC2FDD2F6B
:100FB800CE2F74087602031DE32F73087502031CF5
:100FC800E62FE72FED2F7308F5027408031CF603CC
:100FD800F60201300310F40CF30CFF3E031DEE2F54
:100FE8000130F802031DF92FFA2FDD2F7608F400DF
:060FF8007508F30008007B
:1010000076087504740473040319072808280A284D
:101010008030F606080083120313A601A11F1128D1
:1010200012281928A009A109A00A0319A10AA601DA
:10103000A60AA31F1C281D282628A209A309A20A64
:101040000319A30A0130A4002408A606A701A801D9
:101050002008210403192D282E286528A501A50A9A
:101060003C2801300310A00DA10DFF3E031D3228C6
:101070000130A4002408A507A11F3F2840283128DB
:1010800001300310A70DA80DFF3E031D41282108C4
:101090002302031D4D2820082202031C502851283A
:1010A00058282008A2022108031CA303A302271426
:1010B00001300310A10CA00CFF3E031D5928013084
:1010C000A502031D642865284028260803196928FD
:1010D0006A286F28A709A809A70A0319A80A2808D7
:1010E000A1002708A00008000A168A1101200A1290
:1010F0008A150A168A1597220A128A150A168A155F
:1011000091220A128A150A168A15F7220A128A15DE
:101110000A168A15E2220A128A150A168A15DF248F
:101120000A128A15831203139F140A168A15B12214
:101130000A128A15F701F70A01300A168A15882360
:101140000A128A159130F6008030F7000A168A15C7
:1011500055240A128A15831203136F080A168A157A
:1011600015240A128A1583120313470883160313E2
:10117000D80083120313460883160313D700831283
:101180000313450883160313D60083120313440880
:1011900083160313D50059080A168A1515240A1256
:1011A0008A1583120313470883160313D40083128E
:1011B0000313460883160313D30083120313450851
:1011C00083160313D20083120313440883160313F8
:1011D000D100F701F70A02300A168A1588230A128D
:1011E0008A15A13083120313EC006C0883160313D5
:1011F000A8005808AC005708AB005608AA005508CC
:10120000A900DA300A168A11FC240A128A15DA308B
:10121000F6000030F7000A168A1555240A128A15BE
:101220000C30831203139900DA300A168A15422310
:101230000A128A15153083120313EE004B30ED00AD
:10124000BD30EC00EC0B2229ED0B2229EE0B2229FC
:101250002929831203139F182E292F293929413058
:1012600083120313EC00EC0B33293629831203138A
:101270009F140A128A110C28831203132D08803937
:10128000B2003208B7002D08B2003207B3003308AD
:10129000BD00AC1F4C294D294E293D143D080319B2
:1012A0005229532962293D0A031D572958296029CB
:1012B0000030AD000030AC000030AB000030AA00C0
:1012C000AC176A290030AD000030AC000030AB0034
:1012D0000030AA0031088039B2003208B706310860
:1012E000B2003207B3003308BC00B01F7829792957
:1012F0007A293C143C0803197E297F298E293C0A4F
:10130000031D832984298C290030B1000030B000EE
:101310000030AF000030AE00B01796290030B100A9
:101320000030B0000030AF000030AE003C080319C0
:101330009A299B29A0293D08031D9F29A029A92995
:101340000030AD000030AC000030AB000030AA002F
:101350009C2C2A08B2003208F30030080A168A15BD
:10136000AE230A128A15740883120313C30073088C
:10137000C2004208B200B301B401B5013508BB0098
:101380003408BA003308B9003208B8004308B20084
:10139000B301B401B5013508C1003408C0003308F9
:1013A000BF003208BE002B08B2003208F3002F083D
:1013B0000A168A15AE230A128A15740883120313BB
:1013C000C3007308C2004208B200B301B401B50102
:1013D0003208B807330803110318013E0319F12935
:1013E000B907340803110318013E0319F829BA0795
:1013F000350803110318013E0319FF29BB074308F1
:10140000B200B301B401B5013208BE0733080311BD
:101410000318013E03190D2ABF07340803110318EE
:10142000013E0319142AC007350803110318013EB1
:1014300003191B2AC1072C08B2003208F3002E083A
:101440000A168A15AE230A128A157408831203132A
:10145000C3007308C2004208B200B301B401B50171
:101460003208B807330803110318013E0319392A5B
:10147000B907340803110318013E0319402ABA07BB
:10148000350803110318013E0319472ABB07430817
:10149000B200B301B401B5013208BE07330803112D
:1014A0000318013E0319552ABF0734080311031816
:1014B000013E03195C2AC007350803110318013ED9
:1014C0000319632AC1070830B2000310B80DB90D23
:1014D000BA0DBB0DB20B652A2B08B2003208F3001F
:1014E0002E080A168A15AE230A128A15740883126A
:1014F0000313C3007308C2004208B2004308B300DC
:10150000B401B5013208B807330803110318013ECE
:1015100003198B2AB907340803110318013E031974
:10152000922ABA07350803110318013E0319992AB4
:10153000BB072A08B2003208F3002F080A168A15E2
:10154000AE230A128A15740883120313C3007308AA
:10155000C2004208B2004308B300B401B50132082A
:10156000B807330803110318013E0319B82AB90755
:10157000340803110318013E0319BF2ABA073508BE
:1015800003110318013E0319C62ABB070830B20035
:101590000310B80DB90DBA0DBB0DB20BC82A2A083D
:1015A000B2003208F3002E080A168A15AE230A127A
:1015B0008A15740883120313C3007308C20042081B
:1015C000B2004308B300B401B5013208B8073308CC
:1015D00003110318013E0319EE2AB9073408031159
:1015E0000318013E0319F52ABA0735080311031839
:1015F000013E0319FC2ABB072B08B2003208F30096
:1016000030080A168A15AE230A128A157408831246
:101610000313C3007308C2004208B2004308B300BA
:10162000B401B5013208BE07330803110318013EA7
:1016300003191B2BBF07340803110318013E0319BC
:10164000222BC007350803110318013E0319292B6B
:10165000C1072C08B2003208F3002F080A168A15B9
:10166000AE230A128A15740883120313C300730889
:10167000C2004208B2004308B300B401B501320809
:10168000BE07330803110318013E0319482BBF0797
:10169000340803110318013E03194F2BC007350806
:1016A00003110318013E0319562BC1072C08B20081
:1016B0003208F30030080A168A15AE230A128A157A
:1016C000740883120313C3007308C2004208B200F7
:1016D0004308B300B401B50108300310B20DB30DD7
:1016E000B40DB50DFF3E031D6D2B3208BE07330848
:1016F00003110318013E03197E2BBF0734080311A1
:101700000318013E0319852BC00735080311031880
:10171000013E03198C2BC1073808B2003908B30009
:101720003A08B4003B08B50018300310B50CB40CEF
:10173000B30CB20CFF3E031D952B3208BE073308D5
:1017400003110318013E0319A62BBF073408031128
:101750000318013E0319AD2BC00735080311031808
:10176000013E0319B42BC1070830B2000310B80DB5
:10177000B90DBA0DBB0DB20BB62B3D083C07B2003C
:10178000B301B30D3208823EC20033080318013E94
:10179000FF3EC300E82B0130B2000310BE0DBF0DA9
:1017A000C00DC10DB20BCD2BBB1FD72BD82BD92B06
:1017B0003E140130B2000310B80DB90DBA0DBB0DC7
:1017C000B20BDB2BFF30C2070318C30AFF30C3077D
:1017D000C01FEB2BEC2BCB2BBC01BB1FF02BF12B39
:1017E0000D2CFF303805B200FF303905B300FF3053
:1017F0003A05B4007F303B05B500350834043304A6
:1018000032040319042C052C082CBC01BC0A0D2C35
:101810003E1C0B2C0C2C0D2C052C3C080319112CF8
:10182000122C432C0130BE07003003180130BF07D3
:10183000003003180130C007003003180130C10721
:10184000411C232C242C432C3E08B2003F08B3003B
:101850004008B4004108B5000130B600350DB50CA4
:10186000B40CB30CB20CB60B2E2C3508C1003408E6
:10187000C0003308BF003208BE000130C2070318A1
:10188000C30A0030C3074308803AFF0080307F025C
:10189000031D4C2CFF304202031C4F2C502C5B2CA0
:1018A0007F3083120313C1008030C0000030BF00BE
:1018B0000030BE00902C831203134308803AFF00CF
:1018C00080307F02031D662C013042020318692C10
:1018D0006A2C762C003083120313C1000030C00044
:1018E0000030BF000030BE00B701902C83120313FC
:1018F0004208B2003208BD00FF30BE05FF30BF0510
:101900007F30C0050030C1053D1C872C882C892CF8
:10191000C0173D08B2000310320CB3003308C100F9
:101920003708B2003208C1044108AD004008AC00DD
:101930003F08AB003E08AA00080083120313D6003C
:10194000D61FA32CA42C532ED609D60A5608803AAB
:10195000123E031CAC2CAD2C972D0A30A000003099
:10196000A1005608F500F601F51BF6036430F300FC
:101970000030F4000A168A151F260A128A15740808
:1019800083120313A3007308A2000A128A150B2006
:101990000A128A15831203132008C80001300310AD
:1019A000C80DFF3E031DCF2C0310480D593E840087
:1019B0000A168A150A200A128A15C9000A168A15FB
:1019C0000A200A128A15CA000A168A150A200A1263
:1019D0008A15CB000A168A150A200A128A15CC002D
:1019E0004C08AD004B08AC004A08AB004908AA00FF
:1019F0006430A0000030A1005608A200A301A21B81
:101A0000A3030A128A150B200A128A1583120313E4
:101A10002008CD0001300310CD0DFF3E031D0B2D1E
:101A200003104D0D7D3E84000A168A150A200A1205
:101A30008A15CE000A168A150A200A128A15CF00C6
:101A40000A168A150A200A128A15D0000A168A1563
:101A50000A200A128A15D1005108B1005008B000BE
:101A60004F08AF004E08AE000A128A153C210A1238
:101A70008A15831203132D08D5002C08D4002B08D7
:101A8000D3002A08D2000A30F3000030F4005608D0
:101A9000F500F601F51BF6030A168A151F260A1231
:101AA0008A15730883120313C80001300310C80D90
:101AB000FF3E031D562D0310480D353E84000A16C7
:101AC0008A150A200A128A15C9000A168A150A20E0
:101AD0000A128A15CA000A168A150A200A128A15DD
:101AE000CB000A168A150A200A128A15CC004C0867
:101AF000AD004B08AC004A08AB004908AA005508E5
:101B0000B1005408B0005308AF005208AE000A12EA
:101B10008A153C210A128A15831203132D08C70067
:101B20002C08C6002B08C5002A08C400FF2F560841
:101B3000803A753E031C9D2D9E2D262E0A30F30003
:101B40000030F4005608F500F601F51BF6030A16FE
:101B50008A151F260A128A15730883120313C800F8
:101B600001300310C80DFF3E031DB12D0310480DB9
:101B7000353E84000A168A150A200A128A15C90001
:101B80000A168A150A200A128A15CA000A168A1528
:101B90000A200A128A15CB000A168A150A200A1290
:101BA0008A15CC004C08AD004B08AC004A08AB00CD
:101BB0004908AA000A30A0000030A1005608A2007F
:101BC000A301A21BA3030A128A150B200A128A156D
:101BD000831203132008CD0001300310CD0DFF3E0A
:101BE000031DED2D03104D0D593E84000A168A1574
:101BF0000A200A128A15CE000A168A150A200A122D
:101C00008A15CF000A168A150A200A128A15D000F2
:101C10000A168A150A200A128A15D1005108B10045
:101C20005008B0004F08AF004E08AE000A128A15E7
:101C30003C210A128A15831203132D08C7002C08B1
:101C4000C6002B08C5002A08C400FF2F5608C8008C
:101C500001300310C80DFF3E031D292E0310480D4F
:101C6000353E84000A168A150A200A128A15C90010
:101C70000A168A150A200A128A15CA000A168A1537
:101C80000A200A128A15CB000A168A150A200A129F
:101C90008A15CC004C08C7004B08C6004A08C5008E
:101CA0004908C400FF2F5608803A123E031C592EE3
:101CB0005A2E442F0A30A0000030A1005608F5002B
:101CC000F601F51BF6036430F3000030F4000A1649
:101CD0008A151F260A128A15740883120313A3009B
:101CE0007308A2000A128A150B200A128A158312A1
:101CF00003132008C80001300310C80DFF3E031D68
:101D00007C2E0310480D253E84000A168A150A20F1
:101D10000A128A15C9000A168A150A200A128A159B
:101D2000CA000A168A150A200A128A15CB000A165A
:101D30008A150A200A128A15CC004C08AD004B08FF
:101D4000AC004A08AB004908AA006430A00000308B
:101D5000A1005608A200A301A21BA3030A128A1520
:101D60000B200A128A15831203132008CD000130BC
:101D70000310CD0DFF3E031DB82E03104D0D493E3F
:101D800084000A168A150A200A128A15CE000A163D
:101D90008A150A200A128A15CF000A168A150A2007
:101DA0000A128A15D0000A168A150A200A128A1504
:101DB000D1005108B1005008B0004F08AF004E08E4
:101DC000AE000A128A153C210A128A1583120313E7
:101DD0002D08D5002C08D4002B08D3002A08D200E7
:101DE0000A30F3000030F4005608F500F601F51B48
:101DF000F6030A168A151F260A128A15730883121B
:101E00000313C80001300310C80DFF3E031D032F4C
:101E10000310480D013E84000A168A150A200A1292
:101E20008A15C9000A168A150A200A128A15CA00DC
:101E30000A168A150A200A128A15CB000A168A1574
:101E40000A200A128A15CC004C08AD004B08AC00E1
:101E50004A08AB004908AA005508B1005408B00070
:101E60005308AF005208AE000A128A153C210A122C
:101E70008A15831203132D08C7002C08C6002B08EF
:101E8000C5002A08C400FF2F5608803A753E031C7F
:101E90004A2F4B2FD32F0A30F3000030F40056089E
:101EA000F500F601F51BF6030A168A151F260A121D
:101EB0008A15730883120313C80001300310C80D7C
:101EC000FF3E031D5E2F0310480D013E84000A16DD
:101ED0008A150A200A128A15C9000A168A150A20CC
:101EE0000A128A15CA000A168A150A200A128A15C9
:101EF000CB000A168A150A200A128A15CC004C0853
:101F0000AD004B08AC004A08AB004908AA000A30F3
:101F1000A0000030A1005608A200A301A21BA30349
:101F20000A128A150B200A128A158312031320083D
:101F3000CD0001300310CD0DFF3E031D9A2F03107D
:101F40004D0D253E84000A168A150A200A128A15AC
:101F5000CE000A168A150A200A128A15CF000A1620
:101F60008A150A200A128A15D0000A168A150A2034
:101F70000A128A15D1005108B1005008B0004F086C
:101F8000AF004E08AE000A128A153C210A128A15CB
:101F9000831203132D08C7002C08C6002B08C500A8
:101FA0002A08C400FF2F5608C80001300310C80DCE
:101FB000FF3E031DD62F0310480D013E84000A1674
:101FC0008A150A200A128A15C9000A168A150A20DB
:101FD0000A128A15CA000A168A150A200A128A15D8
:101FE000CB000A168A150A200A128A15CC004C0862
:101FF000C7004B08C6004A08C5004908C4000800CD
:1020020083160317890120308800033083160313D7
:102012008600870185018801033089000800831248
:1020220003131F0CF000700C0F39053A031D1A2818
:102032001B2824281E08F0007008EF001F08C3396F
:1020420018389F0039281F0CF000700C0F39063A1F
:10205200031D2C282D2839281E08F000700883162D
:102062000313D900831203131F08C33914389F00C6
:102072000C13080083120313A40024080319422836
:1020820043285728F61F4628472857287309A600D1
:102092007409A7007509A8007609A900A60A031900
:1020A200A70A0319A80A0319A90A5F287608A90032
:1020B2007508A8007408A7007308A60076087504BE
:1020C20074047304031D6628672870280030F60024
:1020D2000030F5000030F4000030F300F6289630AE
:1020E200A0002008A50082280130A0002008A50732
:1020F20001300310A90CA80CA70CA60CFF3E031D6F
:102102007A28FE302905031D872888287528A428E7
:102112000130A0002008A5070130A60700300318EF
:102122000130A707003003180130A8070030031858
:102132000130A90701300310A90CA80CA70CA60CAA
:10214200FF3E031D9C28FF302905031DA928AA284C
:102152008928B6280130A5020130A0000310A60D7F
:10216200A70DA80DA90DA00BAF28A81BB928BA2846
:10217200C028023025020318BF28C028AB28251822
:10218200C328C428CC28FF30A605FF30A7057F301E
:10219200A805FF30A9050310A50C2508A000A10180
:1021A200A201A30118300310A00DA10DA20DA30DD1
:1021B200FF3E031DD4282008A6042108A7042208F4
:1021C200A8042308A90424080319E828E928EE280A
:1021D200F61FEC28ED28EE28A9172908F600280892
:1021E200F5002708F4002608F30008008312031301
:1021F2002008F3002108F4002208F5000310740DF2
:10220200750DF6007608AD002D08031D09290A296F
:1022120013290030A3000030A2000030A1000030DA
:10222200A000B3292408F3002508F4002608F500CD
:102232000310740D750DF6007608AC002C08031D12
:102242002329242925290A29A117FF30A005FF30B7
:10225200A1050030A205A517FF30A405FF30A50592
:102262000030A6050030AB000030AA000030A90003
:102272000030A8007F30AD0298302C07F3007308BD
:10228200AD021830F3007308AC000130F300031004
:10229200A80DA90DAA0DAB0DF30B482926082202A1
:1022A200031D592925082102031D5929240820024A
:1022B200031C5C295D2968292408A0022508031C47
:1022C200250FA1022608031C260AA20228140130A7
:1022D2000310A00DA10DA20DFF3E031D69290130BF
:1022E200AC02031D752976294629AD1F79297A2961
:1022F20094292D08803A973E031880298129822942
:102302000A2901300310AB0CAA0CA90CA80CFF3E41
:10231200031D83290130F3007308AD07031D9229C1
:1023220093298229AB2918302D02031C99299A2955
:10233200A6290A290130F3000310A80DA90DAA0D40
:10234200AB0DF30B9D290130AD022D08031DAA2907
:10235200AB299B292B08A3002A08A2002908A10067
:102362002808A0000800031083120313220D230D76
:10237200F3007308F9007908031DC029C129CA298D
:102382000030A3000030A2000030A1000030A00005
:10239200732A0310260D270DF3007308F80078083E
:1023A200031DD429D529D629C129A217FF30A0059A
:1023B200FF30A105FF30A2050030A305A617FF30AC
:1023C200A405FF30A505FF30A6050030A7050030A3
:1023D200F7000030F6000030F5000030F4007F30E6
:1023E200F902A0307807F3007308F9022030F300F5
:1023F2007308F8000130F3000310F40DF50DF60D2B
:10240200F70DF30BFD2927082302031D122A2608C4
:102412002202031D122A25082102031D122A240862
:102422002002031C152A162A252A2408A0022508A0
:10243200031C250FA1022608031C260FA20227084F
:10244200031C270FA30274140130F3000310A00D24
:10245200A10DA20DA30DF30B272A0130F802031DD3
:10246200332A342AFB29F91F372A382A522A7908B3
:10247200803A9F3E03183E2A3F2A402AC129013052
:102482000310F70CF60CF50CF40CFF3E031D412A69
:102492000130F3007308F907031D502A512A402A1C
:1024A200692A20307902031C572A582A642AC12932
:1024B2000130F3000310F40DF50DF60DF70DF30BDB
:1024C2005B2A0130F9027908031D682A692A592A10
:1024D200770883120313A3007608A2007508A100EF
:1024E2007408A0000800831203135B088039E0001F
:1024F2006008E8005B08E0006007E1006108EA00AC
:10250200DA1F842A852A862A6A146A0803198A2A03
:102512008B2A9B2A6A0A031D8F2A902A982A003046
:10252200DB000030DA000030D9000030D800DA17C2
:10253200DB01A32A0030DB000030DA000030D900D2
:102542000030D8005F088039E0006008E9006908BF
:1025520068060319AD2AAE2AAF2A68175F08E000A1
:102562006007E1006108E900DE1FB82AB92ABA2A29
:10257200691469080319BE2ABF2ACF2A690A031DF2
:10258200C32AC42ACC2A0030DF000030DE0000302B
:10259200DD000030DC00DE17DF01D72A0030DF006B
:1025A2000030DE000030DD000030DC006A08690225
:1025B2000318DC2ADD2A212B681FE02AE12AE52AFA
:1025C2008030E0006008E8066A08E0006008EB007E
:1025D2006908E0006008EA006B08E0006008E900B2
:1025E2005808E0006008EB005C08E0006008D800D2
:1025F2006B08E0006008DC005908E0006008EB00AE
:102602005D08E0006008D9006B08E0006008DD00AA
:102612005A08E0006008EB005E08E0006008DA009B
:102622006B08E0006008DE005B08E0006008EB0079
:102632005F08E0006008DB006B08E0006008DF0074
:10264200EB016908E000E1016108E3006A08600249
:10265200E200031CE3036308803AFF0080307F023C
:10266200031D352B1A306202031C382B392B762BB3
:10267200831203135B085A0459045804031D422BA6
:10268200442B0130452B0030E0006008EB000030A5
:10269200DB000030DA000030D9000030D8006908D1
:1026A200E0006008EA007E2B6B1C582B592B622B32
:1026B2006B08E0000310600C0138E1006108EB00D8
:1026C200642B0310EB0C581C672B682B692BEB1740
:1026D2000130E0005B0DDB0CDA0CD90CD80CE00BFE
:1026E2006B2B0130E0006008EA07831203136908CC
:1026F2006A02031C7D2B7E2B552B681B812B822BA0
:10270200CD2B6A08031D862B872B902B0030DB0014
:102712000030DA000030D9000030D800FB2C5C0811
:10272200D8075D0803110318013E0319992BD90735
:102732005E0803110318013E0319A02BDA075F0894
:1027420003110318013E0319A72BDB075B1CAA2BFD
:10275200AB2B812C6B1CAE2BAF2BB82B6B08E00084
:102762000310600C0138E1006108EB00BA2B031082
:10277200EB0C581CBD2BBE2BBF2BEB170130E0001E
:102782005B0DDB0CDA0CD90CD80CE00BC12B013041
:10279200E0006008EA07812C5B08803AFF005F08CE
:1027A200803A7F02031DDF2B5E085A02031DDF2BD6
:1027B2005D085902031DDF2B5C0858020318E22B47
:1027C200E32B3B2CFF30E000FF30E100FF30E20062
:1027D200FF30E3005C08E4005D08E5005E08E60007
:1027E2005F08E7005808E4025908031C590FFA2B46
:1027F200FB2BE5025A08031C5A0F002C012CE6029F
:102802005B08031C5B0F062C072CE7026408E00739
:1028120065080318650F0E2C0F2CE10766080318D4
:10282200660F142C152CE20767080318670AE307E2
:102832006308DB006208DA006108D9006008D8008A
:102842008030E0006008E806EB09EB0A6B08031D24
:102852002B2C2C2C492C0130D807003003180130C6
:10286200D907003003180130DA07003003180130AD
:10287200DB07492C5C08D8025D08031C5D0FD902F6
:102882005E08031C5E0FDA025F08031C5F0FDB02A7
:102892005B085A0459045804031D502C512C7D2CFA
:1028A2006B08031D552C562C7D2C0030DB000030AC
:1028B200DA000030D9000030D800FB2C0130E000F3
:1028C2000310D80DD90DDA0DDB0DE00B612CEB1FD7
:1028D2006B2C6C2C6D2C58146B1C702C712C742C62
:1028E2000314EB0D762C0310EB0D6A0803197A2CF6
:1028F2007B2C7D2C0130EA02DA1F802C812C5F2C8C
:10290200E901EB1F852C862C942C6B087F39031967
:102912008B2C8C2C8F2CE901E90A942C581C922CBC
:10292200932C942C8C2C69080319982C992CCD2C5F
:102932000130D807003003180130D90700300318DE
:102942000130DA07003003180130DB075B1CAA2CC8
:10295200AB2CCD2C5808E0005908E1005A08E200DF
:102962005B08E3000130E400630DE30CE20CE10CD0
:10297200E00CE40BB52C6308DB006208DA006108A6
:10298200D9006008D8006A0A0319C82CC92CCD2CBA
:102992000130E0006008EA076A0A0319D12CD22C40
:1029A200D72C6A08031DD62CD72CE52C0030DB006F
:1029B2000030DA000030D9000030D8006A08031D68
:1029C200E32CE42CE52CE8016A1CE82CE92CEB2C26
:1029D200DA17EF2C7F30E0006008DA056A08E000C1
:1029E2000310600CE1006108DB00E81FF92CFA2CEF
:1029F200FB2CDB17080083160313C900A930AD00B6
:102A02002D08B6000A128A119F2D25304C06031993
:102A12000B2D0C2D182D4C08AD00490884002D08F3
:102A2200831380000130AD002D08C907032DBD01BD
:102A3200BE01BB01BC01280884000A168A150A20BF
:102A42000A168A110A168A15D0220A168A11031C3E
:102A52002B2D2C2D6C2D83160313BD01BE010A30C4
:102A6200F3000030F400831603133E08F6003D081D
:102A7200F5000A168A1563230A168A11740883164A
:102A82000313BE007308BD00280884000A168A15C5
:102A92000A200A168A11D03EAD00FF30031800301A
:102AA200AE002D08BD070318BE0A2E08BE0701306E
:102AB200AD002D08A807280884000A168A150A20E6
:102AC2000A168A110A168A15D0220A168A110318C2
:102AD2006B2D6C2D302D83160313280884000A16E3
:102AE2008A150A200A168A112E3A031D792D7A2D8B
:102AF200BF2D3C170130AD002D08A807CA01CB013C
:102B0200AE2D0A30F3000030F400831603134B0895
:102B1200F6004A08F5000A168A1563230A168A1176
:102B2200740883160313CB007308CA0028088400B4
:102B32000A168A150A200A168A11D03EAD00FF3005
:102B420003180030AE002D08CA070318CB0A2E085E
:102B5200CB070130AD002D08A807280884000A160B
:102B62008A150A200A168A110A168A15D0220A160E
:102B72008A110318BD2DBE2D822DC52DCA01CB0190
:102B82003C16C52D3C15E12D013083160313A80711
:102B9200FF30280784000A168A150A200A168A11AD
:102BA200CC00AD00AE012E08003A0319D92D032D39
:102BB2002D08003A0319FD2F663A0319C32D032D80
:102BC20000303B05AD0007303C05AE002D082E0459
:102BD2000319EC2DEF2D0A128A11DA2C3C1EF22D6C
:102BE200F32DF72D0630CA000030CB0036088400E2
:102BF20083130008C500840A0008C600840A00087E
:102C0200C700840A0008C8000430AD002D08B607CA
:102C1200480883120313A300831603134708831281
:102C22000313A20083160313460883120313A100A1
:102C320083160313450883120313A0000030A70074
:102C42000030A6000030A5000030A4000A168A1544
:102C52005C270A168A1103182F2E302E4D2E83164A
:102C620003134808F6004708F5004608F400450833
:102C7200F3000A128A1500200A168A1176088316B2
:102C82000313C8007508C7007408C6007308C5009E
:102C92000330BB040030BC0483160313C301C40118
:102CA200480883120313A3008316031347088312F1
:102CB2000313A20083160313460883120313A10011
:102CC20083160313450883120313A0000030A700E4
:102CD2000030A6000030A5000030A4000A168A15B4
:102CE20029250A168A110318772E782E942F03109D
:102CF20083160313470D480D823EC300FF300318AD
:102D02000030C400FF30C3070318C40AFF30C407F1
:102D12000330F3000030F4004408F6004308F500E5
:102D22000A168A1563230A168A1174088316031376
:102D3200C4007308C3000A3083120313A0000030DA
:102D4200A10083160313440883120313A3008316FE
:102D52000313430883120313A2000A128A150B20DD
:102D62000A168A1183120313210883160313C4005F
:102D720083120313200883160313C300C41FC22E39
:102D8200C32EC92EFF30C3070318C40AFF30C4077D
:102D92004303FF3A0A128A159D240A168A118312E6
:102DA2000313470883160313C20083120313460852
:102DB20083160313C10083120313450883160313FA
:102DC200C00083120313440883160313BF0048088C
:102DD20083120313AD0083160313470883120313F0
:102DE200AC0083160313460883120313AB00831649
:102DF2000313450883120313AA0083160313420820
:102E020083120313B10083160313410883120313C1
:102E1200B00083160313400883120313AF00831616
:102E220003133F0883120313AE000A128A153C21D2
:102E32000A168A11831203132D0883160313C20084
:102E4200831203132C0883160313C1008312031386
:102E52002B0883160313C000831203132A08831658
:102E62000313BF00420883120313A3008316031344
:102E7200410883120313A20083160313400883122E
:102E82000313A100831603133F0883120313A00048
:102E92003F30A7008030A6000030A5000030A4001B
:102EA2000A168A155C270A168A110318592F5A2FF7
:102EB200632FFF3083160313C3070318C40AFF30BE
:102EC200C407942F83160313420883120313A3002B
:102ED20083160313410883120313A20083160313FC
:102EE200400883120313A100831603133F088312C1
:102EF2000313A0004130A7002030A6000030A50037
:102F02000030A4000A168A155C270A168A11031CCF
:102F12008B2F8C2F942F013083160313C3070318B2
:102F2200C40A0030C407831603134B08803AFF001B
:102F320080307F02031D9F2F0D304A020318A22FFB
:102F4200A32FEA2F831603134A080A128A11B825FF
:102F52000A168A11831203134708DB004608DA00B7
:102F62004508D9004408D800831603134808831281
:102F72000313DF0083160313470883120313DE00D3
:102F820083160313460883120313DD00831603130B
:102F9200450883120313DC000A168A1174220A16EA
:102FA2008A11831203135B0883160313C80083126A
:102FB20003135A0883160313C70083120313590815
:102FC20083160313C60083120313580883160313D0
:102FD200C500831603134408803AFF0080307F0245
:102FE200031DF52F0A3043020318FA2F0A128A1121
:102FF20020280A128A117F280A128A11B32DFF1B78
:103002000A2883137F1883170008840A0319FF0A0A
:10301200080018308A000408840A82070034003449
:10302200003480343F3400340034203441340034DE
:103032000034C8344234003400347A344434003426
:1030420040341C34463400345034C33447340034E2
:103052002434743449348034963418344B34203454
:10306200BC34BE344C3428346B346E344E34F934B0
:10307200023415345034EC347834AD346034CA340C
:10308200F234493471340034003480343F34CD3466
:10309200CC34CC343D340A34D73423343C346F340A
:1030A200123483343A341734B734D1343834AC342C
:1030B200C53427343734BD34373486343534953407
:1030C200BF34D63433347734CC342B3432345F3497
:1030D200703489343034FF34E634DB342E3408342F
:1030E200E5343C341E3460344234A2340D340134AD
:1030F2000034003400340A340034003400346434C0
:10310200003400340034E834033400340034103422
:10311200273400340034A03486340134003440347F
:1031220042340F34003480349634983400340034FE
:10313200E134F53405340034CA349A343B34533420
:1031420031343A34203420342034533432343A3453
:10315200203420342034533433343A340034253488
:0C31620033342E343234663456340034DA
:103522008B170B17831603138C16080083160313CD
:103532000F088F3940388F000F1408006400800193
:10354200840A0406031900340406A02AF300831235
:1035520003130C1EAD2AAE2AA82A7308990008008C
:1035620000300A168A150D230A168A1501300A162A
:103572008A150D230A168A150800831203130C1FDD
:10358200C32AC42AC92A0A168A1110200A168A15C1
:1035920072088A00710E8300FE0E7E0E0900F4008E
:1035A200F3013A3074020318D72AD82AE02A3030BD
:1035B2007402031CDD2ADE2AE02AF301F30A730CEB
:1035C200080083160313181218158316031787159C
:1035D20019308316031399009A0183120313981763
:1035E200181318168316031398160800831603136C
:1035F2009F131F129F12831203131F139F131F087F
:10360200C33914389F004230F300F30B062B00003D
:10361200831203131F140800F6008312031307100A
:1036220076080A168A15D7230A168A1583120313F7
:1036320087140B30F5006230F400F40B1E2BF50BEF
:103642001E2B00008312031387100800F50083125B
:103652000313071475080A168A15D7230A168A1542
:103662008312031387141A30F400F40B362B000074
:103672008312031387101A30F400F40B3E2B000060
:103682000800F700F501F601572B75087707F400DB
:103692007408840000080A168A15A7220A168A15D9
:1036A2000130F5070318F60A0030F60775087707A8
:1036B200F4007408840083130008031D612B622B3D
:1036C200462B0800F701F801731C682B692B6F2B3E
:1036D2007508F7070318F80A7608F807013003108F
:1036E200F50DF60DFF3E031D702B01300310F40C97
:1036F200F30CFF3E031D772B73087404031D822B0A
:10370200832B652B7808F4007708F30008008312F6
:103712000313A0002003031D8F2B902B9C2B7708F3
:103722007F3EF8007808A10021080A168A150D23A9
:103732000A168A15AD2B02302006031DA12BA22BDF
:10374200AD2B7708BF3EF8007808A10021080A16C1
:103752008A150D230A168A15080083120313A40082
:10376200A001A1017308F500F6017508A200760810
:10377200A300241CBD2BBE2BC42B2208A0070318B8
:10378200A10A2308A10701300310A20DA30DFF3ED9
:10379200031DC52B0310A40C2408031DD12BD22B0F
:1037A200BA2B2108F4002008F3000800F300731C70
:1037B200DB2BDC2BE02B831203130814E32B831285
:1037C20003130810F31CE62BE72BE92B8814EA2BD2
:1037D2008810731DED2BEE2BF02B0815F12B081121
:1037E200F31DF42BF52BF72B8815F82B8811731E7C
:1037F200FB2BFC2BFE2B0816FF2B0812F31E022CB0
:10380200032C052C8816062C8812731F092C0A2CEF
:103812000C2C08170D2C0813F31F102C112C132C31
:103822008817142C8813080083120313D0003C302D
:10383200AD00A030AC009030AB002E30AA00500892
:10384200C800C901CA01CB014B08F6004A08F500BD
:103852004908F4004808F30001300A168A113B2097
:103862000A168A15760883120313B1007508B00090
:103872007408AF007308AE000A128A153C210A16BA
:103882008A15831203132D08CF002C08CE002B08B3
:10389200CD002A08CC004F08C7004E08C6004D08CC
:1038A200C5004C08C4000800F801F9017A2C780818
:1038B2007607A1007708A0000318A00AF81F622C5F
:1038C200A003831203132008A2002208FF0021088C
:1038D20084000A168A1500200A168A150A168A1505
:1038E20027230A168A150130F8070318F90A00304F
:1038F200F9077808760783120313A1007708A0005E
:103902000318A00AF81F862CA003831203132008B1
:10391200A2002208FF00210884000A168A1500204E
:103922000A168A15003A031D972C982C582C080069
:1039320083120313A401A501200821040319A22C58
:10394200A32CDA2CA601A60AB12C01300310A00D7B
:10395200A10DFF3E031DA72C0130F9007908A6072F
:10396200A11FB42CB52CA62C01300310A40DA50D5B
:10397200FF3E031DB62C21082302031DC22C200882
:103982002202031CC52CC62CCD2C2008A202210821
:10399200031CA303A302241401300310A10CA00CE6
:1039A200FF3E031DCE2C0130A602031DD92CDA2CBA
:1039B200B52C2508A1002408A000080000300A1632
:1039C2008A15D7230A168A153430F800F130F70029
:1039D200F70BE92CF80BE92CEE2C3F300A168A156E
:1039E2000D230A168A150D30F800FB30F700F70B8D
:1039F200F82CF80BF82CFD2C3F300A168A150D23F3
:103A02000A168A150230F9001E30F800B330F700AA
:103A1200F70B092DF80B092DF90B092D102D3F304D
:103A22000A168A150D230A168A1538300A168A15BF
:103A32000D230A168A150C300A168A150D230A164A
:103A42008A1506300A168A150D230A168A150800E9
:103A52000030831203132005F30000302105F40027
:103A620080302205F5007F302305F60076087504C4
:103A720074047304031D3E2D3F2D472D0030A30017
:103A82000030A2000030A1000030A0000030240568
:103A9200F30000302505F40080302605F5007F3064
:103AA2002705F6007608750474047304031D5A2D65
:103AB2005B2D632D0030A7000030A6000030A5006A
:103AC2000030A40027082306031D712D26082206B4
:103AD200031D712D25082106031D712D24082006C2
:103AE2000319742D752D772D0310782D03140800FA
:103AF200803083160313A306270883120313DB0007
:103B020083160313260883120313DA0083160313A2
:103B1200250883120313D900831603132408831282
:103B22000313D80083160313230883120313DF0041
:103B320083160313220883120313DE008316031372
:103B4200210883120313DD00831603132008831256
:103B52000313DC000A168A1174220A168A158312CC
:103B620003135B0883160313A300831203135A087B
:103B720083160313A2008312031359088316031337
:103B8200A10083120313580883160313A000080030
:103B92008312031323082204210420040319D22DC3
:103BA200D32D162EF401F40AE32D0130F300031095
:103BB200A00DA10DA20DA30DF30BD82D0130F30022
:103BC2007308F407A31FE62DE72DD62D230827023D
:103BD200031DF52D22082602031DF52D21082502BD
:103BE200031DF52D20082402031CF82DF92D072EA4
:103BF2002008A4022108031C210FA5022208031C8D
:103C0200220FA6022308031C230FA7020130031070
:103C1200A30CA20CA10CA00CFF3E031D082E013028
:103C2200F402031D152E162EE72D2708A3002608E1
:103C3200A2002508A1002408A0000800F901F61F2F
:103C4200232E242E2B2EF509F609F50A0319F60A5E
:103C5200F901F90AF41F2E2E2F2E342EF309F4093E
:103C6200F30A0319F40A730874040319392E3A2E5D
:103C7200692EF801F80A482E01300310F30DF40DF5
:103C8200FF3E031D3E2E0130F7007708F807F41FB0
:103C92004B2E4C2E3D2E74087602031D522E7308B5
:103CA2007502031C552E562E5C2E7308F5027408FD
:103CB200031CF603F60201300310F40CF30CFF3E72
:103CC200031D5D2E0130F802031D682E692E4C2E55
:103CD200790803196D2E6E2E732EF509F609F50A71
:103CE2000319F60A7608F4007508F300080000309C
:103CF200F7000030F6000030F5000030F4008312C7
:103D0200031323082204210420040319892E8A2E76
:103D1200D72EF801F80A9A2E0130F3000310A00DF5
:103D2200A10DA20DA30DF30B8F2E0130F30073082A
:103D3200F807A31F9D2E9E2E8D2E0130F300031037
:103D4200F40DF50DF60DF70DF30BA02E2308270247
:103D5200031DB52E22082602031DB52E21082502B9
:103D6200031DB52E20082402031CB82EB92EC82E1E
:103D72002008A4022108031C210FA5022208031C0B
:103D8200220FA6022308031C230FA702741401307A
:103D92000310A30CA20CA10CA00CFF3E031DC92E04
:103DA2000130F802031DD62ED72E9E2E7708A300CF
:103DB2007608A2007508A1007408A000080003108C
:103DC20083120313590D5A0DDB005B08E1006108F1
:103DD200031DEC2EED2EF62E0030DA000030D90055
:103DE2000030D8000030D7005B2F5708DB0058089E
:103DF200DC005908DD005A08DE001F300310DE0C1B
:103E0200DD0CDC0CDB0CFF3E031DFF2E5B08DF002C
:103E12005F08E000D917FF30D705FF30D805FF3023
:103E2200D9050030DA059630E102E11F192F1A2F69
:103E3200342F6108803A973E0318202F212F222F1A
:103E4200ED2E01300310DA0CD90CD80CD70CFF3E42
:103E5200031D232F0130DB005B08E107031D322F16
:103E6200332F222F4B2F20306102031C392F3A2F80
:103E7200462FED2E0130DB000310D70DD80DD90DE2
:103E8200DA0DDB0B3D2F0130E1026108031D4A2FE1
:103E92004B2F3B2F600803194F2F502F5B2FD70951
:103EA200D809D909DA09D70A0319D80A0319D90A8C
:103EB2000319DA0A08000030831203132005F30005
:103EC20000302105F40080302205F5007F30230503
:103ED200F6007608750474047304031D712F722FA3
:103EE2007A2F0030A3000030A2000030A100003081
:103EF200A00000302405F30000302505F4008030D6
:103F02002605F5007F302705F6007608750474044F
:103F12007304031D8D2F8E2F962F0030A7000030C3
:103F2200A6000030A5000030A400A31F992F9A2FED
:103F3200BE2F0030F3000030F4000030F500803076
:103F4200F6002008F3022108031C210FA92FAA2F33
:103F5200F4022208031C220FAF2FB02FF502230810
:103F6200031C230FB52FB62FF6027608A30075089F
:103F7200A2007408A1007308A000A71FC12FC22FBE
:103F8200E62F0030F3000030F4000030F5008030FE
:103F9200F6002408F3022508031C250FD12FD22F87
:103FA200F4022608031C260FD72FD82FF502270864
:103FB200031C270FDD2FDE2FF6027608A7007508F7
:103FC200A6007408A5007308A4008030A306803000
:103FD200A70627082302031DF82F26082202031D25
:103FE200F82F25082102031DF82F240820020318A8
:0E3FF200FB2FFC2FFE2F0310FF2F03140800DF
:04400E00D620FF3F7A
:00000001FF
