:020000040000FA
:060000000A128A110C280F
:10000800FE00030EF3000A08F4000A168A15F62902
:100018000A128A110F288313D8308400E7300A1691
:100028008A11C8200A128A11831790308400A430DC
:100038000A168A11C8200A128A1183010A128A151F
:10004800272883160313500883120313A30083166B
:1000580003134F0883120313A200831603134E08D9
:1000680083120313A100831603134D08831203138D
:10007800A0000030A7000030A6000030A500003026
:10008800A4000A168A1502240A128A1103184D2898
:100098004E28302983160313500883120313DC00FB
:1000A800831603134F0883120313DB00831603130D
:1000B8004E0883120313DA00831603134D088312C4
:1000C8000313D9000A168A1524260A128A118312E4
:1000D80003135C085B045A045904031D742875282B
:1000E8003029831603134C08803AFF0080307F02C2
:1000F800031D802802304B02031C832884283029E2
:10010800831603134A0883120313A30083160313E9
:10011800490883120313A2008316031348088312A5
:100128000313A10083160313470883120313A000C7
:100138004030A7008930A6007030A5005F30A400C9
:100148000A168A15A0260A128A110318AC28AD28A7
:10015800B628F73083160313CB070318CC0AFF30F1
:10016800CC07BE28F83083160313CB070318CC0A34
:10017800FF30CC074B080A128A159D240A128A11EF
:1001880083120313490883160313CA008312031347
:10019800480883160313C9008312031347088316FC
:1001A8000313C80083120313460883160313C700FA
:1001B800500883120313A300831603134F088312F6
:1001C8000313A200831603134E0883120313A1001E
:1001D800831603134D0883120313A0008316031319
:1001E8004A0883120313A7008316031349088312CE
:1001F8000313A60083160313480883120313A500EC
:1002080083160313470883120313A4000A168A11DE
:10021800B6210A128A1183120313230883160313C3
:10022800C20083120313220883160313C10083122A
:100238000313210883160313C00083120313200835
:1002480083160313BF000030D0000030CF00003009
:10025800CE000030CD009629831603135008831270
:100268000313DC00831603134F0883120313DB0008
:10027800831603134E0883120313DA00831603133D
:100288004D0883120313D9000A168A1524260A1268
:100298008A11831203135C0883160313C2008312A6
:1002A80003135B0883160313C100831203135A0850
:1002B80083160313C000831203135908831603130C
:1002C800BF004208F8004108F7004008F6003F0860
:1002D800F50000300A168A1544270A128A11780890
:1002E80083160313A3007708A2007608A1007508F7
:1002F800A0005008A7004F08A6004E08A5004D080A
:10030800A4000A168A1552240A128A1183160313A6
:100318002308D0002208CF002108CE002008CD00F5
:10032800CB01CC01D401D40A5408B5000130031024
:10033800B50DFF3E031D9B290310350D693E840052
:100348000A168A110A200A128A11B6000A168A1198
:100358000A200A128A11B7000A168A110A200A12FC
:100368008A11B8000A168A110A200A128A11B900DD
:1003780039084202031DCA2938084102031DCA2947
:1003880037084002031DCA2936083F020318CD2941
:10039800CE29CF29D9290130B5003508D4070A302C
:1003A8005406031DD829D929982954085207B5009D
:1003B80053080318530AB6004B083507B7004C0812
:1003C80003184C0A3607B8003708C5023808031C5A
:1003D800C603C602520853040319F329F429FA295B
:1003E800FF30C5070318C60AFF30C60703304305A8
:1003F800B50000304405B600350836040319052A4F
:10040800062A1B2AFF30C5070318C60AFF30C6078D
:100418001B2A203083160313B500510884003508C1
:10042800831780000130B5003508D107062A460831
:10043800803AFF0080307F02031D242A01304502E4
:100448000318272A282A0D2A033083160313430585
:10045800B50000304405B600350836040319352ABE
:10046800362AE82A2D30B50051088400350883174C
:1004780080000130B5003508D107E82A5408B500D6
:1004880001300310B50DFF3E031D452A0310350D3D
:10049800693E84000A168A110A200A128A118312F8
:1004A8000313A0000A168A110A200A128A11A10051
:1004B8000A168A110A200A128A11A2000A168A113B
:1004C8000A200A128A11A300831603134208831212
:1004D8000313A70083160313410883120313A6000E
:1004E80083160313400883120313A500831603130E
:1004F8003F0883120313A4000A168A1553250A120B
:100508008A1183120313230883160313CA00831264
:100518000313220883160313C90083120313210847
:1005280083160313C80083120313200883160313CA
:10053800C700003083120313A3000030A20000306C
:10054800A1000A30A000831603134A08831203137C
:10055800A70083160313490883120313A600831602
:100568000313480883120313A500831603134708CF
:1005780083120313A4000A168A15A2240A128A11E8
:1005880083120313230883160313CA008312031369
:10059800220883160313C900831203132108831644
:1005A8000313C80083120313200883160313C7001C
:1005B8004708303EB500510884003508831780008D
:1005C8000130B5003508D1070130D402540A031DA3
:1005D800EE2AEF2A422A032B303083160313B50084
:1005E800510884003508831780000130B5003508AC
:1005F800D107FF30CB070318CC0AFF30CC074C08D3
:10060800803AFF0080307F02031D0C2B01304B0223
:1006180003180F2B102BF02A831603135308803A64
:10062800FF0080307F02031D1B2B09305202031C80
:100638001E2B1F2B262B083083160313B5003508F5
:10064800D4002C2B831603135208B5003508D400A8
:100658005408B500B6013508D2023608031CD30386
:10066800D30254080319392B3A2B452B2E30B500E9
:10067800510884003508831780000130B50035081B
:10068800D10754080A128A159D240A128A11831266
:100698000313490883160313BD0083120313480884
:1006A80083160313BC00831203134708831603132E
:1006B800BB0083120313460883160313BA003D08D0
:1006C80083120313B300831603133C088312031326
:1006D800B200831603133B0883120313B100831679
:1006E80003133A0883120313B00083160313500848
:1006F80083120313AF00831603134F0883120313E7
:10070800AE00831603134E0883120313AD0083163D
:1007180003134D0883120313AC000A128A153C21F7
:100728000A128A11831203132F08DC002E08DB003B
:100738002D08DA002C08D9000A168A1524260A1270
:100748008A11831203135C0883160313C2008312F1
:1007580003135B0883160313C100831203135A089B
:1007680083160313C0008312031359088316031357
:10077800BF00BF2C5408B50001300310B50DFF3E73
:10078800031DC12B0310350D693E84000A168A111A
:100798000A200A128A1183120313A0000A168A116A
:1007A8000A200A128A11A1000A168A110A200A12BE
:1007B8008A11A2000A168A110A200A128A11A300B5
:1007C80083160313420883120313A7008316031327
:1007D800410883120313A6008316031340088312EB
:1007E8000313A500831603133F0883120313A40001
:1007F8000A168A1553250A128A118312031323082D
:1008080083160313CA0083120313220883160313E3
:10081800C90083120313210883160313C800831227
:100828000313200883160313C70000308312031331
:10083800A3000030A2000030A1000A30A0008316F7
:1008480003134A0883120313A700831603134908E6
:1008580083120313A6008316031348088312031395
:10086800A50083160313470883120313A4000A166E
:100878008A15A2240A128A118312031323088316E5
:100888000313CA0083120313220883160313C90033
:1008980083120313210883160313C800831203135A
:1008A800200883160313C7004708303EB5005108D7
:1008B80084003508831780000130B5003508D1075A
:1008C8005408B50001300310B50DFF3E031D672C19
:1008D8000310350D693E84000A168A110A200A128F
:1008E8008A1183120313A0000A168A110A200A1219
:1008F8008A11A1000A168A110A200A128A11A20076
:100908000A168A110A200A128A11A30083160313F1
:10091800420883120313A7008316031341088312A6
:100928000313A60083160313400883120313A500BC
:10093800831603133F0883120313A4000A168A15AB
:10094800A2240A128A11831203132308831603139D
:10095800C20083120313220883160313C1008312F3
:100968000313210883160313C000831203132008FE
:1009780083160313BF000130D402540A031DC52C8B
:10098800C62CBE2BD82C3030B50051088400350851
:10099800831780000130B5003508D107FF30D20732
:1009A8000318D30AFF30D30752085304031DDD2C64
:1009B800DE2CC72CA42D52085304031DE42CE52C6F
:1009C800F32C4208410440043F04031DEC2CED2C99
:1009D800F32C0130D2070318D30A0030D307530889
:1009E800803A803C031DFA2C520854020318FD2C4F
:1009F800FE2C052D831603135208B5003508D400C4
:100A08001D2D831603135308803AB5008030350234
:100A1800031D102D540852020318132D142D1D2DDB
:100A2800831603135408B500B6013508D2003608FA
:100A3800D30083160313450846040319242D252DD6
:100A4800372D03304305B50000304405B60035089E
:100A580036040319302D312D372DFF30C507031803
:100A6800C60AFF30C607441F3A2D3B2D562D5308A2
:100A7800803AB5004608803A3502031D452D4508E1
:100A880052020318482D492D522D8316031352087C
:100A9800C5025308031CC603C602562D831603134A
:100AA800C501C6014608803A803C031D5D2D4508F6
:100AB80054020318602D612D6D2D831603135408FD
:100AC800B500B6013508C5023608031CC603C602C0
:100AD800712D83160313C501C60145084604031981
:100AE800762D772D8E2D2030B500510884003508DD
:100AF800831780000130B5003508D107FF30C507DE
:100B08000318C60AFF30C60745084604031D8D2D85
:100B18008E2D772D03304305B50000304405B6000F
:100B2800350836040319992D9A2DA42D2D30B500BA
:100B3800510884003508831780000A168A11132D7E
:100B48000130A807FF30280784000A168A110A20F6
:100B58000A128A11B5003508D4005408031DB52DB2
:100B6800B82D0A168A11062D5108840083178001B2
:100B7800080083120313D9006E305902031CC52DD7
:100B8800C62DD52E3F30AF000030AE000030AD008E
:100B98000030AC006430A2000030A3005908CA003D
:100BA800CB014A08A4004B08A5000A168A156F2332
:100BB8000A128A11831203132208CC000130031091
:100BC800CC0DFF3E031DE32D03104C0D7D3E84002C
:100BD8000A168A110A200A128A11CD000A168A11E9
:100BE8000A200A128A11CE000A168A110A200A124D
:100BF8008A11CF000A168A110A200A128A11D00017
:100C08005008B3004F08B2004E08B1004D08B000BC
:100C18000A128A153C210A128A11831203132F081B
:100C2800D8002E08D7002D08D6002C08D5000A3089
:100C3800A2000030A3005908CA00CB014A08F700F7
:100C48004B08F8006430F5000030F6000A168A15E3
:100C58006F220A128A11760883120313A5007508F9
:100C6800A4000A168A156F230A128A118312031325
:100C78002208CC0001300310CC0DFF3E031D3F2E8F
:100C880003104C0D593E84000A168A110A200A12D4
:100C98008A11CD000A168A110A200A128A11CE007A
:100CA8000A168A110A200A128A11CF000A168A1116
:100CB8000A200A128A11D0005008AF004F08AE006F
:100CC8004E08AD004D08AC005808B3005708B200F4
:100CD8005608B1005508B0000A128A153C210A12BC
:100CE8008A11831203132F08D4002E08D3002D086D
:100CF800D2002C08D1000A30F5000030F60059085F
:100D0800CA00CB014A08F7004B08F8000A168A15F2
:100D18006F220A128A11750883120313CC0001305E
:100D28000310CC0DFF3E031D942E03104C0D353ED1
:100D380084000A168A110A200A128A11CD000A169E
:100D48008A110A200A128A11CE000A168A110A206C
:100D58000A128A11CF000A168A110A200A128A1169
:100D6800D0005008AF004F08AE004E08AD004D0847
:100D7800AC005408B3005308B2005208B10051083F
:100D8800B0000A128A153C210A128A118312031331
:100D98002F08C9002E08C8002D08C7002C08C60057
:100DA800C92F0B305902031CDA2EDB2E862F3F3059
:100DB800AF000030AE000030AD000030AC000A30AB
:100DC800A2000030A3005908CA00CB014A08A400B9
:100DD8004B08A5000A168A156F230A128A11831276
:100DE80003132208CC0001300310CC0DFF3E031D75
:100DF800F82E03104C0D593E84000A168A110A2059
:100E08000A128A11CD000A168A110A200A128A11BA
:100E1800CE000A168A110A200A128A11CF000A1671
:100E28008A110A200A128A11D0005008B3004F080C
:100E3800B2004E08B1004D08B0000A128A153C21D4
:100E48000A128A11831203132F08D8002E08D7001C
:100E58002D08D6002C08D5000A30F5000030F60021
:100E68005908CA00CB014A08F7004B08F8000A16CF
:100E78008A156F220A128A11750883120313CC008F
:100E880001300310CC0DFF3E031D452F03104C0D00
:100E9800353E84000A168A110A200A128A11CD00EA
:100EA8000A168A110A200A128A11CE000A168A1115
:100EB8000A200A128A11CF000A168A110A200A1279
:100EC8008A11D0005008AF004F08AE004E08AD00A0
:100ED8004D08AC005808B3005708B2005608B100D6
:100EE8005508B0000A128A153C210A128A11831289
:100EF80003132F08C9002E08C8002D08C7002C08A6
:100F0800C600C92F3F30AF000030AE000030AD0042
:100F18000030AC005908CA0001300310CA0DFF3E6A
:100F2800031D912F03104A0D353E84000A168A11BD
:100F38000A200A128A11CB000A168A110A200A12FC
:100F48008A11CC000A168A110A200A128A11CD00C9
:100F58000A168A110A200A128A11CE004E08B30016
:100F68004D08B2004C08B1004B08B0000A128A15AF
:100F78003C210A128A11831203132F08C9002E0874
:100F8800C8002D08C7002C08C600080083120313E8
:100F9800A001A101751CD12FD22FDA2F7708831257
:100FA8000313A0070318A10A7808A107013003104A
:100FB800F70DF80DFF3E031DDB2F01300310F60C73
:100FC800F50CFF3E031DE22F75087604031DED2F77
:100FD800EE2FCE2F831203132108F6002008F50008
:100FE800080078087704760475040319FC2FFD2F90
:080FF800FF2F8030F80608000D
:1010020083120313A2002203031D082809281528AE
:1010120020087F3EA1002108A30023080A168A1592
:10102200A5210A128A15262802302206031D1A2833
:101032001B2826282008BF3EA1002108A300230860
:101042000A168A15A5210A128A1508000A168A1597
:1010520056210A128A150A168A152D210A128A1594
:101062000A168A1535210A128A150A168A158F213F
:101072000A128A150A168A157A210A128A150A167E
:101082008A15B5230A128A15831203139F140A16AE
:101092008A1549210A128A1583120313A001A00A94
:1010A20001300A128A1501200A128A15A63083120B
:1010B2000313A0008030A1000A168A1529230A1200
:1010C2008A158316031366080A168A15E9220A127C
:1010D2008A1583120313490883160313E30083124C
:1010E2000313480883160313E2008312031347080D
:1010F20083160313E10083120313460883160313B6
:10110200E00065080A168A15E9220A128A15831276
:101112000313490883160313DF00831203134808DD
:1011220083160313DE008312031347088316031387
:10113200DD0083120313460883160313DC0000301C
:101142000A168A15E9220A128A158312031349081C
:1011520083160313DB008312031348088316031359
:10116200DA0083120313470883160313D90083128C
:101172000313460883160313D80083120313A00136
:10118200A00A02300A128A1501200A128A15913029
:1011920083160313D5005508A8006308AC00620843
:1011A200AB006108AA006008A9005F08B0005E08F1
:1011B200AF005D08AE005C08AD005B08B4005A08E1
:1011C200B3005908B2005808B1009A300A168A11C1
:1011D200FC240A128A159A3083120313A0000130EC
:1011E200A1000A168A1529230A128A150C308312C5
:1011F200031399009A300A168A1513220A128A15C5
:10120200023083160313D7000430D600B930D5005C
:10121200D50B0929D60B0929D70B092910298312C5
:1012220003139F181529162948281F0C8316031328
:10123200D500550C0F39053A031D202921292829EB
:10124200831203131F08C33918389F002E298312F3
:1012520003131F08C33914389F0020308316031369
:10126200D500D50B32290000831203139F1448289E
:101272000A128A110C28831203132F088039B40032
:101282003408B9002F08B4003407B5003508BF0090
:10129200AE1F4C294D294E293F143F0803195229EC
:1012A200532962293F0A031D572958296029003012
:1012B200AF000030AE000030AD000030AC00AE1721
:1012C2006A290030AF000030AE000030AD000030BF
:1012D200AC0033088039B4003408B9063308B400CE
:1012E2003407B5003508BE00B21F782979297A295A
:1012F2003E143E0803197E297F298E293E0A031DCA
:10130200832984298C290030B3000030B2000030D8
:10131200B1000030B000B21796290030B30000309F
:10132200B2000030B1000030B0003E0803199A2923
:101332009B29A0293F08031D9F29A029A929003024
:10134200AF000030AE000030AD000030AC009C2C8D
:101352002C08B4003408F50032080A168A11D0208D
:101362000A128A15760883120313C5007508C40091
:101372004408B400B501B601B7013708BD0036080C
:10138200BC003508BB003408BA004508B400B501FA
:10139200B601B7013708C3003608C2003508C100DC
:1013A2003408C0002D08B4003408F50031080A16CC
:1013B2008A11D0200A128A15760883120313C500F7
:1013C2007508C4004408B400B501B601B701340879
:1013D200BA07350803110318013E0319F129BB07A7
:1013E200360803110318013E0319F829BC07370810
:1013F20003110318013E0319FF29BD074508B40074
:10140200B501B601B7013408C00735080311031846
:10141200013E03190D2AC107360803110318013EC4
:101422000319142AC207370803110318013E0319CE
:101432001B2AC3072E08B4003408F50030080A1628
:101442008A11D0200A128A15760883120313C50066
:101452007508C4004408B400B501B601B7013408E8
:10146200BA07350803110318013E0319392ABB07CD
:10147200360803110318013E0319402ABC07370836
:1014820003110318013E0319472ABD074508B4009A
:10149200B501B601B7013408C007350803110318B6
:1014A200013E0319552AC107360803110318013EEC
:1014B20003195C2AC207370803110318013E0319F6
:1014C200632AC3070830B4000310BA0DBB0DBC0D6C
:1014D200BD0DB40B652A2D08B4003408F5003008A0
:1014E2000A168A11D0200A128A157608831203136B
:1014F200C5007508C4004408B4004508B500B6012B
:10150200B7013408BA07350803110318013E03195D
:101512008B2ABB07360803110318013E0319922ACE
:10152200BC07370803110318013E0319992ABD07A6
:101532002C08B4003408F50031080A168A11D020AC
:101542000A128A15760883120313C5007508C400AF
:101552004408B4004508B500B601B7013408BA071B
:10156200350803110318013E0319B82ABB073608D0
:1015720003110318013E0319BF2ABC0737080311E0
:101582000318013E0319C62ABD070830B400031030
:10159200BA0DBB0DBC0DBD0DB40BC82A2C08B4008E
:1015A2003408F50030080A168A11D0200A128A156A
:1015B200760883120313C5007508C4004408B400FA
:1015C2004508B500B601B7013408BA07350803115A
:1015D2000318013E0319EE2ABB073608031103184C
:1015E200013E0319F52ABC07370803110318013E0F
:1015F2000319FC2ABD072D08B4003408F50032088F
:101602000A168A11D0200A128A1576088312031349
:10161200C5007508C4004408B4004508B500B60109
:10162200B7013408C007350803110318013E031936
:101632001B2BC107360803110318013E0319222B85
:10164200C207370803110318013E0319292BC307E8
:101652002E08B4003408F50031080A168A11D02089
:101662000A128A15760883120313C5007508C4008E
:101672004408B4004508B500B601B7013408C007F4
:10168200350803110318013E0319482BC107360818
:1016920003110318013E03194F2BC2073708031128
:1016A2000318013E0319562BC3072E08B400340851
:1016B200F50032080A168A11D0200A128A15760815
:1016C20083120313C5007508C4004408B40045081A
:1016D200B500B601B70108300310B40DB50DB60D53
:1016E200B70DFF3E031D6D2B3408C00735080311EB
:1016F2000318013E03197E2BC10736080311031894
:10170200013E0319852BC207370803110318013E56
:1017120003198C2BC3073A08B4003B08B5003C08F8
:10172200B6003D08B70018300310B70CB60CB50C64
:10173200B40CFF3E031D952B3408C0073508031176
:101742000318013E0319A62BC1073608031103181B
:10175200013E0319AD2BC207370803110318013EDE
:101762000319B42BC3070830B4000310BA0DBB0D24
:10177200BC0DBD0DB40BB62B3F083E07B400B5013E
:10178200B50D3408823EC40035080318013EFF3E01
:10179200C500E82B0130B4000310C00DC10DC20D0D
:1017A200C30DB40BCD2BBD1FD72BD82BD92B401477
:1017B2000130B4000310BA0DBB0DBC0DBD0DB40B4E
:1017C200DB2BFF30C4070318C50AFF30C507C21F51
:1017D200EB2BEC2BCB2BBE01BD1FF02BF12B0D2CD9
:1017E200FF303A05B400FF303B05B500FF303C0541
:1017F200B6007F303D05B70037083604350434049F
:101802000319042C052C082CBE01BE0A0D2C401C09
:101812000B2C0C2C0D2C052C3E080319112C122C10
:10182200432C0130C007003003180130C1070030DB
:1018320003180130C207003003180130C307431CEC
:10184200232C242C432C4008B4004108B500420844
:10185200B6004308B7000130B800370DB70CB60C1C
:10186200B50CB40CB80B2E2C3708C3003608C200D6
:101872003508C1003408C0000130C4070318C50A86
:101882000030C5074508803AFF0080307F02031D03
:101892004C2CFF304402031C4F2C502C5B2C7F300D
:1018A20083120313C3008030C2000030C100003035
:1018B200C000902C831203134508803AFF00803049
:1018C2007F02031D662C013044020318692C6A2C26
:1018D200762C003083120313C3000030C2000030A4
:1018E200C1000030C000B901902C831203134408D8
:1018F200B4003408BF00FF30C005FF30C1057F309F
:10190200C2050030C3053F1C872C882C892CC217C6
:101912003F08B4000310340CB5003508C300390881
:10192200B4003408C3044308AF004208AE004108C3
:10193200AD004008AC00080083120313D800D81F82
:10194200A32CA42C532ED809D80A5808803A123E48
:10195200031CAC2CAD2C972D0A30A3000030A40040
:101962005808F700F801F71BF8036430F50000305F
:10197200F6000A168A15F8240A128A1576088312C6
:101982000313A6007508A5000A168A15BB250A12BC
:101992008A15831203132308CA0001300310CA0DEB
:1019A200FF3E031DCF2C03104A0D593E84000A1638
:1019B2008A110A200A128A15CB000A168A110A20F5
:1019C2000A128A15CC000A168A110A200A128A15EE
:1019D200CD000A168A110A200A128A15CE004E0874
:1019E200AF004D08AE004C08AD004B08AC006430AF
:1019F200A3000030A4005808A500A601A51BA60359
:101A02000A168A15BB250A128A15831203132308A4
:101A1200CF0001300310CF0DFF3E031D0B2D03102D
:101A22004F0D7D3E84000A168A110A200A128A1579
:101A3200D0000A168A110A200A128A15D1000A1643
:101A42008A110A200A128A15D2000A168A110A205D
:101A52000A128A15D3005308B3005208B200510883
:101A6200B1005008B0000A128A153C210A128A15E8
:101A7200831203132F08D7002E08D6002D08D50095
:101A82002C08D4000A30F5000030F6005808F700A0
:101A9200F801F71BF8030A168A15F8240A128A15A8
:101AA200750883120313CA0001300310CA0DFF3EEA
:101AB200031D562D03104A0D353E84000A168A1165
:101AC2000A200A128A15CB000A168A110A200A1263
:101AD2008A15CC000A168A110A200A128A15CD002C
:101AE2000A168A110A200A128A15CE004E08AF0081
:101AF2004D08AE004C08AD004B08AC005708B300CF
:101B02005608B2005508B1005408B0000A128A15EE
:101B12003C210A128A15831203132F08C9002E08CA
:101B2200C8002D08C7002C08C600FF2F5808803AAD
:101B3200753E031C9D2D9E2D262E0A30F500003089
:101B4200F6005808F700F801F71BF8030A168A1581
:101B5200F8240A128A15750883120313CA00013089
:101B62000310CA0DFF3E031DB12D03104A0D353E71
:101B720084000A168A110A200A128A15CB000A1654
:101B82008A110A200A128A15CC000A168A110A2022
:101B92000A128A15CD000A168A110A200A128A151B
:101BA200CE004E08AF004D08AE004C08AD004B0809
:101BB200AC000A30A3000030A4005808A500A6011A
:101BC200A51BA6030A168A15BB250A128A158312BB
:101BD20003132308CF0001300310CF0DFF3E031D76
:101BE200ED2D03104F0D593E84000A168A110A206A
:101BF2000A128A15D0000A168A110A200A128A15B8
:101C0200D1000A168A110A200A128A15D2000A166F
:101C12008A110A200A128A15D3005308B300520807
:101C2200B2005108B1005008B0000A128A153C21D6
:101C32000A128A15831203132F08C9002E08C8003E
:101C42002D08C7002C08C600FF2F5808CA00013013
:101C52000310CA0DFF3E031D292E03104A0D353E07
:101C620084000A168A110A200A128A15CB000A1663
:101C72008A110A200A128A15CC000A168A110A2031
:101C82000A128A15CD000A168A110A200A128A152A
:101C9200CE004E08C9004D08C8004C08C7004B08CA
:101CA200C600FF2F5808803A123E031C592E5A2EA6
:101CB200442F0A30A3000030A4005808F700F801AE
:101CC200F71BF8036430F5000030F6000A168A1597
:101CD200F8240A128A15760883120313A6007508DF
:101CE200A5000A168A15BB250A128A158312031348
:101CF2002308CA0001300310CA0DFF3E031D7C2ECB
:101D020003104A0D253E84000A168A110A200A127F
:101D12008A15CB000A168A110A200A128A15CC00EB
:101D22000A168A110A200A128A15CD000A168A1189
:101D32000A200A128A15CE004E08AF004D08AE00E6
:101D42004C08AD004B08AC006430A3000030A40086
:101D52005808A500A601A51BA6030A168A15BB25CD
:101D62000A128A15831203132308CF0001300310CD
:101D7200CF0DFF3E031DB82E03104F0D493E8400C8
:101D82000A168A110A200A128A15D0000A168A1126
:101D92000A200A128A15D1000A168A110A200A128A
:101DA2008A15D2000A168A110A200A128A15D3004D
:101DB2005308B3005208B2005108B1005008B000F5
:101DC2000A128A153C210A128A15831203132F085C
:101DD200D7002E08D6002D08D5002C08D4000A30D2
:101DE200F5000030F6005808F700F801F71BF80379
:101DF2000A168A15F8240A128A1575088312031323
:101E0200CA0001300310CA0DFF3E031D032F031049
:101E12004A0D013E84000A168A110A200A128A1506
:101E2200CB000A168A110A200A128A15CC000A1659
:101E32008A110A200A128A15CD000A168A110A206E
:101E42000A128A15CE004E08AF004D08AE004C08AB
:101E5200AD004B08AC005708B3005608B200550855
:101E6200B1005408B0000A128A153C210A128A15E0
:101E7200831203132F08C9002E08C8002D08C700BB
:101E82002C08C600FF2F5808803A753E031C4A2FC3
:101E92004B2FD32F0A30F5000030F6005808F70018
:101EA200F801F71BF8030A168A15F8240A128A1594
:101EB200750883120313CA0001300310CA0DFF3ED6
:101EC200031D5E2F03104A0D013E84000A168A117B
:101ED2000A200A128A15CB000A168A110A200A124F
:101EE2008A15CC000A168A110A200A128A15CD0018
:101EF2000A168A110A200A128A15CE004E08AF006D
:101F02004D08AE004C08AD004B08AC000A30A300EF
:101F12000030A4005808A500A601A51BA6030A16B6
:101F22008A15BB250A128A15831203132308CF00D0
:101F320001300310CF0DFF3E031D9A2F03104F0DEA
:101F4200253E84000A168A110A200A128A15D00038
:101F52000A168A110A200A128A15D1000A168A1153
:101F62000A200A128A15D2000A168A110A200A12B7
:101F72008A15D3005308B3005208B2005108B100C9
:101F82005008B0000A128A153C210A128A158312DF
:101F920003132F08C9002E08C8002D08C7002C08FB
:101FA200C600FF2F5808CA0001300310CA0DFF3EB9
:101FB200031DD62F03104A0D013E84000A168A1112
:101FC2000A200A128A15CB000A168A110A200A125E
:101FD2008A15CC000A168A110A200A128A15CD0027
:101FE2000A168A110A200A128A15CE004E08C90062
:101FF2004D08C8004C08C7004B08C6000800FF1B6C
:102002000A2883137F1883170008840A0319FF0A1A
:10201200080010308A000408840A82070034003461
:10202200003480343F3400340034203441340034EE
:102032000034C8344234003400347A344434003436
:1020420040341C34463400345034C33447340034F2
:102052002434743449348034963418344B34203464
:10206200BC34BE344C3428346B346E344E34F934C0
:10207200023415345034EC347834AD346034CA341C
:10208200F234493471340034003480343F34CD3476
:10209200CC34CC343D340A34D73423343C346F341A
:1020A200123483343A341734B734D1343834AC343C
:1020B200C53427343734BD34373486343534953417
:1020C200BF34D63433347734CC342B3432345F34A7
:1020D200703489343034FF34E634DB342E3408343F
:1020E200E5343C341E3460344234A2340D340134BD
:1020F2000034003400340A340034003400346434D0
:10210200003400340034E834033400340034103432
:10211200273400340034A03486340134003440348F
:1021220042340F340034803496349834003400340E
:10213200E134F53405340034CA349A343B3425345E
:1021420033342E3431346634563420342534333427
:102152002E343234663456342034253433342E341B
:1021620032346634563400342034533431343A3401
:10217200203420342034533432343A34203420345E
:0C218200533433343A3420342034003419
:1021900064008001840A0406031900340406C92877
:1021A00083120313A400A001A1017508F700F80130
:1021B0007708A2007808A300241CDF28E028E6287E
:1021C0002208A0070318A10A2308A1070130031061
:1021D000A20DA30DFF3E031DE7280310A40C240845
:1021E000031DF328F428DC282108F6002008F50058
:1021F0000800831203132008F5002108F6002208C6
:10220000F7000310760D770DF8007808AD002D0863
:10221000031D0B290C2915290030A3000030A20052
:102220000030A1000030A000B5292408F5002508E1
:10223000F6002608F7000310760D770DF8007808F1
:10224000AC002C08031D2529262927290C29A117B4
:10225000FF30A005FF30A1050030A205A517FF3013
:10226000A405FF30A5050030A6050030AB00003006
:10227000AA000030A9000030A8007F30AD029830DD
:102280002C07F5007508AD021830F5007508AC0094
:102290000130F5000310A80DA90DAA0DAB0DF50B2B
:1022A0004A2926082202031D5B2925082102031D55
:1022B0005B2924082002031C5E295F296A2924085F
:1022C000A0022508031C250FA1022608031C260ACC
:1022D000A202281401300310A00DA10DA20DFF3E93
:1022E000031D6B290130AC02031D77297829482989
:1022F000AD1F7B297C2996292D08803A973E03182B
:102300008229832984290C2901300310AB0CAA0CE3
:10231000A90CA80CFF3E031D85290130F5007508A6
:10232000AD07031D942995298429AD2918302D0264
:10233000031C9B299C29A8290C290130F5000310B6
:10234000A80DA90DAA0DAB0DF50B9F290130AD020B
:102350002D08031DAC29AD299D292B08A3002A08AF
:10236000A2002908A1002808A00008000310831279
:102370000313220D230DF5007508AD002D08031D74
:10238000C229C329CC290030A3000030A2000030AC
:10239000A1000030A000732A0310260D270DF500C0
:1023A0007508AC002C08031DD629D729D829C329C4
:1023B000A217FF30A005FF30A105FF30A2050030B5
:1023C000A305A617FF30A405FF30A505FF30A6051D
:1023D0000030A7050030AB000030AA000030A90093
:1023E0000030A8007F30AD02A0302C07F500750842
:1023F000AD022030F5007508AC000130F500031087
:10240000A80DA90DAA0DAB0DF50BFF292708230276
:10241000031D142A26082202031D142A250821025E
:10242000031D142A24082002031C172A182A272A0D
:102430002408A0022508031C250FA1022608031C5E
:10244000260FA2022708031C270FA302281401301D
:10245000F5000310A00DA10DA20DA30DF50B292A67
:102460000130AC02031D352A362AFD29AD1F392A59
:102470003A2A542A2D08803A9F3E0318402A412ABE
:10248000422AC32901300310AB0CAA0CA90CA80CDA
:10249000FF3E031D432A0130F5007508AD07031DFB
:1024A000522A532A422A6B2A20302D02031C592A11
:1024B0005A2A662AC3290130F5000310A80DA90D78
:1024C000AA0DAB0DF50B5D2A0130AD022D08031DE1
:1024D0006A2A6B2A5B2A2B08A3002A08A200290873
:1024E000A1002808A0000800831203135D088039AA
:1024F000E2006208EA005D08E2006207E3006308A8
:10250000EC00DC1F842A852A862A6C146C080319C7
:102510008A2A8B2A9B2A6C0A031D8F2A902A982AC2
:102520000030DD000030DC000030DB000030DA007D
:10253000DC17DD01A32A0030DD000030DC000030B4
:10254000DB000030DA0061088039E2006208EB004D
:102550006B086A060319AD2AAE2AAF2A6A1761080A
:10256000E2006207E3006308EB00E01FB82AB92A23
:10257000BA2A6B146B080319BE2ABF2ACF2A6B0A2A
:10258000031DC32AC42ACC2A0030E1000030E00039
:102590000030DF000030DE00E017E101D72A003014
:1025A000E1000030E0000030DF000030DE006C08A9
:1025B0006B020318DC2ADD2A212B6A1FE02AE12A9C
:1025C000E52A8030E2006208EA066C08E200620850
:1025D000ED006B08E2006208EC006D08E2006208A2
:1025E000EB005A08E2006208ED005E08E2006208B3
:1025F000DA006D08E2006208DE005B08E2006208B3
:10260000ED005F08E2006208DB006D08E20062088E
:10261000DF005C08E2006208ED006008E20062088A
:10262000DC006D08E2006208E0005D08E20062087C
:10263000ED006108E2006208DD006D08E20062085A
:10264000E100ED016B08E200E3016308E5006C08BE
:102650006202E400031CE5036508803AFF00803055
:102660007F02031D352B1A306402031C382B392BD3
:10267000762B831203135D085C045B045A04031D6C
:10268000422B442B0130452B0030E2006208ED0064
:102690000030DD000030DC000030DB000030DA000C
:1026A0006B08E2006208EC007E2B6D1C582B592B46
:1026B000622B6D08E2000310620C0138E30063082E
:1026C000ED00642B0310ED0C5A1C672B682B692B53
:1026D000ED170130E2005D0DDD0CDC0CDB0CDA0CDB
:1026E000E20B6B2B0130E2006208EC07831203134C
:1026F0006B086C02031C7D2B7E2B552B6A1B812BD8
:10270000822BCD2B6C08031D862B872B902B003042
:10271000DD000030DC000030DB000030DA00FB2C94
:102720005E08DA075F0803110318013E0319992BAD
:10273000DB07600803110318013E0319A02BDC0717
:10274000610803110318013E0319A72BDD075D1C67
:10275000AA2BAB2B812C6D1CAE2BAF2BB82B6D088D
:10276000E2000310620C0138E3006308ED00BA2BAD
:102770000310ED0C5A1CBD2BBE2BBF2BED170130E7
:10278000E2005D0DDD0CDC0CDB0CDA0CE20BC12B86
:102790000130E2006208EC07812C5D08803AFF00FE
:1027A0006108803A7F02031DDF2B60085C02031D75
:1027B000DF2B5F085B02031DDF2B5E085A02031844
:1027C000E22BE32B3B2CFF30E200FF30E300FF3035
:1027D000E400FF30E5005E08E6005F08E7006008FF
:1027E000E8006108E9005A08E6025B08031C5B0F79
:1027F000FA2BFB2BE7025C08031C5C0F002C012C5E
:10280000E8025D08031C5D0F062C072CE902660830
:10281000E20767080318670F0E2C0F2CE307680800
:102820000318680F142C152CE40769080318690AAB
:10283000E5076508DD006408DC006308DB0062086A
:10284000DA008030E2006208EA06ED09ED0A6D0860
:10285000031D2B2C2C2C492C0130DA0700300318D7
:102860000130DB07003003180130DC0700300318AB
:102870000130DD07492C5E08DA025F08031C5F0F98
:10288000DB026008031C600FDC026108031C610F9F
:10289000DD025D085C045B045A04031D502C512CBE
:1028A0007D2C6D08031D552C562C7D2C0030DD0031
:1028B0000030DC000030DB000030DA00FB2C01309F
:1028C000E2000310DA0DDB0DDC0DDD0DE20B612CF7
:1028D000ED1F6B2C6C2C6D2C5A146D1C702C712CF4
:1028E000742C0314ED0D762C0310ED0D6C080319F8
:1028F0007A2C7B2C7D2C0130EC02DC1F802C812C6F
:102900005F2CEB01ED1F852C862C942C6D087F39F4
:1029100003198B2C8C2C8F2CEB01EB0A942C5A1C5A
:10292000922C932C942C8C2C6B080319982C992C9A
:10293000CD2C0130DA07003003180130DB070030FE
:1029400003180130DC07003003180130DD075D1C7F
:10295000AA2CAB2CCD2C5A08E2005B08E3005C08E3
:10296000E4005D08E5000130E600650DE50CE40CCF
:10297000E30CE20CE60BB52C6508DD006408DC0016
:102980006308DB006208DA006C0A0319C82CC92C42
:10299000CD2C0130E2006208EC076C0A0319D12C3F
:1029A000D22CD72C6C08031DD62CD72CE52C00304C
:1029B000DD000030DC000030DB000030DA006C08A5
:1029C000031DE32CE42CE52CEA016C1CE82CE92C1B
:1029D000EB2CDC17EF2C7F30E2006208DC056C0882
:1029E000E2000310620CE3006308DD00EA1FF92C2B
:1029F000FA2CFB2CDD17080083160313D100A93035
:102A0000B5003508BE000A128A11A42D25305406DF
:102A100003190B2D0C2D182D5408B50051088400F6
:102A20003508831780000130B5003508D107032D24
:102A3000C501C601C301C401280884000A168A1111
:102A40000A200A168A110A168A1568210A168A119E
:102A5000031C2B2D2C2D6C2D83160313C501C601D1
:102A60000A30F5000030F600831603134608F8001C
:102A70004508F7000A128A11CA270A168A11760831
:102A800083160313C6007508C500280884000A16BB
:102A90008A110A200A168A11D03EB500FF300318A9
:102AA0000030B6003508C5070318C60A3608C60741
:102AB0000130B5003508A807280884000A168A11D5
:102AC0000A200A168A110A168A1568210A168A111E
:102AD00003186B2D6C2D302D8316031328088400EA
:102AE0000A168A110A200A168A112E3A031D792D18
:102AF0007A2DBF2D44170130B5003508A807D20143
:102B0000D301AE2D0A30F5000030F6008316031312
:102B10005308F8005208F7000A128A11CA270A1649
:102B20008A11760883160313D3007508D20028088B
:102B300084000A168A110A200A168A11D03EB500AE
:102B4000FF3003180030B6003508D2070318D30A47
:102B50003608D3070130B5003508A80728088400D7
:102B60000A168A110A200A168A110A168A1568217D
:102B70000A168A110318BD2DBE2D822DC52DD20136
:102B8000D3014416C52D4415E12D013083160313DE
:102B9000A807FF30280784000A168A110A200A169F
:102BA0008A11D400B500B6013608003A0319D92DB0
:102BB000032D3508003A0319FD2F663A0319C32D7A
:102BC000032D00304305B50007304405B600350835
:102BD00036040319EC2DEF2D0A128A11DF2C441E46
:102BE000F22DF32DF72D0630D2000030D3003E0831
:102BF000840083130008CD00840A0008CE00840AF4
:102C00000008CF00840A0008D0000430B500350861
:102C1000BE07500883120313A300831603134F0843
:102C200083120313A200831603134E0883120313A7
:102C3000A100831603134D0883120313A000003074
:102C4000A7000030A6000030A5000030A4000A163E
:102C50008A15A0260A168A1103182F2E302E4D2E03
:102C6000831603135008F8004F08F7004E08F600CB
:102C70004D08F5000A128A11F5270A168A117808FC
:102C800083160313D0007708CF007608CE007508AE
:102C9000CD000330C3040030C40483160313CB01FA
:102CA000CC01500883120313A300831603134F08AB
:102CB00083120313A200831603134E088312031317
:102CC000A100831603134D0883120313A0000030E4
:102CD000A7000030A6000030A5000030A4000A16AE
:102CE0008A1502240A168A110318772E782E942F3B
:102CF0000310831603134F0D500D823ECB00FF309F
:102D000003180030CC00FF30CB070318CC0AFF308B
:102D1000CC070330F5000030F6004C08F8004B08F3
:102D2000F7000A128A11CA270A168A117608831632
:102D30000313CC007508CB000A3083120313A300E1
:102D40000030A400831603134C0883120313A6005B
:102D5000831603134B0883120313A5000A168A1562
:102D6000BB250A168A118312031324088316031342
:102D7000CC0083120313230883160313CB00CC1F4C
:102D8000C22EC32EC92EFF30CB070318CC0AFF304A
:102D9000CC074B03FF3A0A128A159D240A168A11A2
:102DA00083120313490883160313CA008312031303
:102DB000480883160313C9008312031347088316B8
:102DC0000313C80083120313460883160313C700B6
:102DD000500883120313AF00831603134F088312A6
:102DE0000313AE00831603134E0883120313AD00C2
:102DF000831603134D0883120313AC0083160313C9
:102E00004A0883120313B30083160313490883127D
:102E10000313B20083160313480883120313B1008F
:102E200083160313470883120313B0000A128A158E
:102E30003C210A168A11831203132F0883160313E9
:102E4000CA00831203132E0883160313C9008312CA
:102E500003132D0883160313C800831203132C08D1
:102E600083160313C7004A0883120313A3008316B3
:102E70000313490883120313A2008316031348089F
:102E800083120313A100831603134708831203134D
:102E9000A0003F30A7008030A6000030A500003021
:102EA000A4000A168A15A0260A168A110318592F9B
:102EB0005A2F632FFF3083160313CB070318CC0A56
:102EC000FF30CC07942F831603134A088312031391
:102ED000A30083160313490883120313A200831669
:102EE0000313480883120313A10083160313470832
:102EF00083120313A0004130A7002030A600003049
:102F0000A5000030A4000A168A15A0260A168A1108
:102F1000031C8B2F8C2F942F013083160313CB07A8
:102F20000318CC0A0030CC07831603135308803AE9
:102F3000FF0080307F02031D9F2F0D3052020318C7
:102F4000A22FA32FEA2F8316031352080A128A1105
:102F5000BD250A168A11831203134908DD004808AB
:102F6000DC004708DB004608DA008316031350082C
:102F700083120313E100831603134F088312031314
:102F8000E000831603134E0883120313DF00831639
:102F900003134D0883120313DE000A168A117422EC
:102FA0000A168A11831203135D0883160313D000D7
:102FB000831203135C0883160313CF0083120313D9
:102FC0005B0883160313CE00831203135A0883167B
:102FD0000313CD00831603134C08803AFF008030A2
:102FE0007F02031DF52F0A304B020318FA2F0A1235
:102FF0008A1125280A128A1184280A128A11B82DEA
:10325A00831603130F088F3940388F000F140800A4
:10326A008B170B17831603138C160C178312031371
:10327A000C130800F500831203130C1E4529462976
:10328A00402975089900080000300A168A15A521F8
:10329A000A168A1501300A168A15A5210A168A15F0
:1032AA00080083160317890120308800033083162B
:1032BA000313860087018501880103308900831280
:1032CA00031385010800F600F5013A307602031867
:1032DA006F297029782930307602031C75297629DE
:1032EA007829F501F50A750C0800831603131812DC
:1032FA0018158316031787151930831603139900B7
:10330A009A018312031398171813181683160313B6
:10331A0098160800831603139F131F129F12831215
:10332A0003131F139F131F08C33914389F00423019
:10333A00F500F50B9E290000831203131F140800E1
:10334A00F80083120313071078080A168A15AB22AD
:10335A000A168A158312031387140B30F70062309A
:10336A00F600F60BB629F70BB629000083120313F1
:10337A0087100800F70083120313071477080A1648
:10338A008A15AB220A168A158312031387141A3078
:10339A00F600F60BCE2900008312031387101A30A9
:1033AA00F600F60BD62900000800831203131F0C3F
:1033BA00F000700C0F39053A031DE429E529EC29C0
:1033CA001E08F000700883160313E600F2291E088F
:1033DA00F000700883160313E500831203130C131D
:1033EA000800831203130C1FFB29FC29012A0A1661
:1033FA008A15DA210A168A15831203138C1E062AE5
:10340A00072A0C2A0A168A1538220A168A157408F7
:10341A008A00730E8300FE0E7E0E090083120313C8
:10342A00A200A001A1012C2A20082207F600760892
:10343A00840000080A168A153F210A168A150130E7
:10344A0083120313A0070318A10A0030A10720085A
:10345A002207F6007608840083170008031D362A1F
:10346A00372A192A08000C308312031399002B30CB
:10347A001A06031D412A422A552A2B309900013087
:10348A00F000700885071F30F2007130F1001E301D
:10349A00F000F00B4E2AF10B4E2AF20B4E2A0000D6
:1034AA002D30831203131A06031D5C2A5D2A6E2A25
:1034BA002D309900013085021F30F2007130F10081
:1034CA001E30F000F00B672AF10B672AF20B672A0D
:1034DA0000000800750876040319742A752AA62ABA
:1034EA0083120313A101A10A852A01300310F50DE5
:1034FA00F60DFF3E031D7B2A0130A0002008A1071C
:10350A00F61F882A892A7A2A76087802031D8F2AC2
:10351A0075087702031C922A932A992A7508F702DA
:10352A007608031CF803F80201300310F60CF50CB8
:10353A00FF3E031D9A2A0130A102031DA52AA62ACD
:10354A00892A7808F6007708F5000800F500751C46
:10355A00AF2AB02AB42A831203130814B72A831293
:10356A0003130810F51CBA2ABB2ABD2A8814BE2ADE
:10357A008810751DC12AC22AC42A0815C52A08112D
:10358A00F51DC82AC92ACB2A8815CC2A8811751E86
:10359A00CF2AD02AD22A0816D32A0812F51ED62AEA
:1035AA00D72AD92A8816DA2A8812751FDD2ADE2A2E
:1035BA00E02A0817E12A0813F51FE42AE52AE72A70
:1035CA008817E82A8813080083120313D2003C30B4
:1035DA00AF00A030AE009030AD002E30AC005208E3
:1035EA00CA00CB01CC01CD014D08F8004C08F70008
:1035FA004B08F6004A08F50001300A168A154427D6
:10360A000A168A15780883120313B3007708B200E2
:10361A007608B1007508B0000A128A153C210A160C
:10362A008A15831203132F08D1002E08D0002D0803
:10363A00CF002C08CE005108C9005008C8004F0816
:10364A00C7004E08C600080083120313A501A6018D
:10365A00522B25082007A3002108A2000318A20A5A
:10366A00A51F382BA203831203132208A4002408DF
:10367A00FF00230884000A168A1100200A168A15F8
:10368A000A168A15BF210A168A15013083120313F6
:10369A00A5070318A60A0030A60725082007A300D5
:1036AA002108A2000318A20AA51F5C2BA2038312F9
:1036BA0003132208A4002408FF00230884000A1622
:1036CA008A1100200A168A15003A031D6D2B6E2BEB
:1036DA002E2B080083120313A701A8012208230432
:1036EA000319782B792BB02BA901A90A872B013052
:1036FA000310A20DA30DFF3E031D7D2B0130A60072
:10370A002608A907A31F8A2B8B2B7C2B01300310B9
:10371A00A70DA80DFF3E031D8C2B23082502031DB0
:10372A00982B22082402031C9B2B9C2BA32B2208D8
:10373A00A4022308031CA503A502271401300310C1
:10374A00A30CA20CFF3E031DA42B0130A902031DEA
:10375A00AF2BB02B8B2B2808A3002708A200080048
:10376A0000300A168A15AB220A168A1534308312DB
:10377A000313A100F130A000A00BC12BA10BC12B98
:10378A003F300A168A15A5210A168A150D308312AA
:10379A000313A100FB30A000A00BD12BA10BD12B4E
:1037AA003F300A168A15A5210A168A150230831295
:1037BA000313A2001E30A100B330A000A00BE32B1C
:1037CA00A10BE32BA20BE32B3F300A168A15A52186
:1037DA000A168A1538300A168A15A5210A168A1574
:1037EA000C300A168A15A5210A168A1506300A16F9
:1037FA008A15A5210A168A150800003083120313B8
:10380A002005F50000302105F60080302205F7007A
:10381A007F302305F8007808770476047504031DC1
:10382A00172C182C202C0030A3000030A2000030E6
:10383A00A1000030A00000302405F5000030250565
:10384A00F60080302605F7007F302705F800780853
:10385A00770476047504031D332C342C3C2C003079
:10386A00A7000030A6000030A5000030A4002708F9
:10387A002306031D4A2C26082206031D4A2C250866
:10388A002106031D4A2C2408200603194D2C4E2C10
:10389A00502C0310512C0314080080308316031394
:1038AA00A306270883120313DD00831603132608D1
:1038BA0083120313DC0083160313250883120313F0
:1038CA00DB0083160313240883120313DA0083161A
:1038DA000313230883120313E10083160313220838
:1038EA0083120313E00083160313210883120313C0
:1038FA00DF0083160313200883120313DE000A165F
:10390A008A1174220A168A15831203135D08831614
:10391A000313A300831203135C0883160313A20084
:10392A00831203135B0883160313A1008312031384
:10393A005A0883160313A0000800831203132308EE
:10394A002204210420040319AB2CAC2CEF2CF60121
:10395A00F60ABC2C0130F5000310A00DA10DA20D32
:10396A00A30DF50BB12C0130F5007508F607A31F5E
:10397A00BF2CC02CAF2C23082702031DCE2C2208F3
:10398A002602031DCE2C21082502031DCE2C200859
:10399A002402031CD12CD22CE02C2008A4022108DA
:1039AA00031C210FA5022208031C220FA6022308CA
:1039BA00031C230FA70201300310A30CA20CA10CB5
:1039CA00A00CFF3E031DE12C0130F602031DEE2C74
:1039DA00EF2CC02C2708A3002608A2002508A10066
:1039EA002408A000080083120313A201F81FFE2C6A
:1039FA00FF2C062DF709F809F70A0319F80AA2019C
:103A0A00A20AF61F092D0A2D0F2DF509F609F50A46
:103A1A000319F60A750876040319142D152D442D79
:103A2A00A101A10A232D01300310F50DF60DFF3E69
:103A3A00031D192D0130A0002008A107F61F262D0D
:103A4A00272D182D76087802031D2D2D750877026B
:103A5A00031C302D312D372D7508F7027608031C0B
:103A6A00F803F80201300310F60CF50CFF3E031DB3
:103A7A00382D0130A102031D432D442D272D220884
:103A8A000319482D492D4E2DF709F809F70A03198C
:103A9A00F80A7808F6007708F50008000030831263
:103AAA000313AB000030AA000030A9000030A800C0
:103ABA0023082204210420040319642D652DB22D44
:103ACA00AC01AC0A752D0130F5000310A00DA10D53
:103ADA00A20DA30DF50B6A2D0130F5007508AC0790
:103AEA00A31F782D792D682D0130F5000310A80D3C
:103AFA00A90DAA0DAB0DF50B7B2D23082702031D7B
:103B0A00902D22082602031D902D21082502031D4F
:103B1A00902D20082402031C932D942DA32D2008F8
:103B2A00A4022108031C210FA5022208031C220F4C
:103B3A00A6022308031C230FA7022814013003102E
:103B4A00A30CA20CA10CA00CFF3E031DA42D013056
:103B5A00AC02031DB12DB22D792D2B08A3002A0822
:103B6A00A2002908A1002808A00008008312031354
:103B7A00A901A41FC12DC22DC92DA309A409A30AF5
:103B8A000319A40AA901A90AA61FCC2DCD2DD62D49
:103B9A00A509A609A50A0319A60A0130A70027083C
:103BAA00A906AA01AB01230824040319DD2DDE2D81
:103BBA00152EA801A80AEC2D01300310A30DA40D9F
:103BCA00FF3E031DE22D0130A7002708A807A41F06
:103BDA00EF2DF02DE12D01300310AA0DAB0DFF3EA4
:103BEA00031DF12D24082602031DFD2D230825029D
:103BFA00031C002E012E082E2308A5022408031CEC
:103C0A00A603A6022A1401300310A40CA30CFF3E3B
:103C1A00031D092E0130A802031D142E152EF02DA6
:103C2A0029080319192E1A2E1F2EAA09AB09AA0A46
:103C3A000319AB0A2B08A4002A08A30008000310E2
:103C4A00831203135B0D5C0DDD005D08E30063085E
:103C5A00031D302E312E3A2E0030DC000030DB00FE
:103C6A000030DA000030D9009F2E5908DD005A08CA
:103C7A00DE005B08DF005C08E0001F300310E00C88
:103C8A00DF0CDE0CDD0CFF3E031D432E5D08E10058
:103C9A006108E200DB17FF30D905FF30DA05FF3093
:103CAA00DB050030DC059630E302E31F5D2E5E2E55
:103CBA00782E6308803A973E0318642E652E662E86
:103CCA00312E01300310DC0CDB0CDA0CD90CFF3E70
:103CDA00031D672E0130DD005D08E307031D762E04
:103CEA00772E662E8F2E20306302031C7D2E7E2EA9
:103CFA008A2E312E0130DD000310D90DDA0DDB0DCD
:103D0A00DC0DDD0B812E0130E3026308031D8E2ECC
:103D1A008F2E7F2E62080319932E942E9F2ED90977
:103D2A00DA09DB09DC09D90A0319DA0A0319DB0AF9
:103D3A000319DC0A08000030831203132005F5007A
:103D4A0000302105F60080302205F7007F30230578
:103D5A00F8007808770476047504031DB52EB62E8C
:103D6A00BE2E0030A3000030A2000030A1000030B7
:103D7A00A00000302405F50000302505F60080304B
:103D8A002605F7007F302705F800780877047604BF
:103D9A007504031DD12ED22EDA2E0030A700003072
:103DAA00A6000030A5000030A400A31FDD2EDE2EE1
:103DBA00022F0030F5000030F6000030F7008030A6
:103DCA00F8002008F5022108031C210FED2EEE2E23
:103DDA00F6022208031C220FF32EF42EF702230800
:103DEA00031C230FF92EFA2EF8027808A30077088D
:103DFA00A2007608A1007508A000A71F052F062FAC
:103E0A002A2F0030F5000030F6000030F70080302D
:103E1A00F8002408F5022508031C250F152F162F74
:103E2A00F6022608031C260F1B2F1C2FF702270851
:103E3A00031C270F212F222FF8027808A7007708E2
:103E4A00A6007608A5007508A4008030A306803075
:103E5A00A70627082302031D3C2F26082202031D5A
:103E6A003C2F25082102031D3C2F24082002031899
:103E7A003F2F402F422F0310432F031408008312B1
:103E8A000313A400240803194B2F4C2F602FF81F8B
:103E9A004F2F502F602F7509A6007609A7007709C2
:103EAA00A8007809A900A60A0319A70A0319A80AEB
:103EBA000319A90A682F7808A9007708A8007608C4
:103ECA00A7007508A6007808770476047504031D10
:103EDA006F2F702F792F0030F8000030F700003074
:103EEA00F6000030F500FF2F9630A0002008A5004C
:103EFA008B2F0130A0002008A50701300310A90C60
:103F0A00A80CA70CA60CFF3E031D832FFE30290523
:103F1A00031D902F912F7E2FAD2F0130A000200876
:103F2A00A5070130A607003003180130A7070030A3
:103F3A0003180130A807003003180130A90701301F
:103F4A000310A90CA80CA70CA60CFF3E031DA52F55
:103F5A00FF302905031DB22FB32F922FBF2F013037
:103F6A00A5020130A0000310A60DA70DA80DA90DEA
:103F7A00A00BB82FA81BC22FC32FC92F02302502AE
:103F8A000318C82FC92FB42F2518CC2FCD2FD52F02
:103F9A00FF30A605FF30A7057F30A805FF30A90529
:103FAA000310A50C2508A000A101A201A301183045
:103FBA000310A00DA10DA20DA30DFF3E031DDD2FC1
:103FCA002008A6042108A7042208A8042308A90493
:103FDA0024080319F12FF22FF72FF81FF52FF62FC8
:103FEA00F72FA9172908F8002808F7002708F6006C
:063FFA002608F500080096
:04400E00D620FF3F7A
:00000001FF
