:020000040000FA
:100000000A128A11FC2F00308A000408840A820731
:1000100000347734773477342E3465346C34653477
:100020006334743472346F3453346F346D346534E4
:100030002E3463346F346D3400344C3443344434E0
:1000400020344C346934623472346134723479341B
:10005000203466346F34723400344434653476347A
:1000600065346C346F347034653464342034423415
:100070007934003465346C346534633474347234E8
:100080006F3453346F346D346534003448346F3416
:100090006C34613420344D3475346E3464346F34D0
:1000A00000344D3450344C344134423420345834CC
:0600B00043343834003433
:100B980000300A128A11F3250A128A1101300A124A
:100BA8008A11F3250A128A11080001300A128A11E3
:100BB800F3250A128A1108300A128A11F3250A123B
:100BC8008A11080001300A128A11F3250A128A11C3
:100BD8000C300A128A11F3250A128A110800F30050
:100BE80083120313071373080A128A1171260A1253
:100BF8008A118312031387170B30F2006230F10059
:100C0800F10B042EF20B042E00008312031387133A
:100C18000800F20083120313071772080A128A11D8
:100C280071260A128A118312031387171A30F100EA
:100C3800F10B1C2E00008312031387131A30F100E6
:100C4800F10B242E00000800F6007603031D2D2E5C
:100C58002E2E3A2E74087F3EF5007508F7007708A7
:100C68000A128A11F3250A128A114B2E02307606CF
:100C7800031D3F2E402E4B2E7408BF3EF50075080D
:100C8800F70077080A128A11F3250A128A11080058
:100C9800F500F301F401632E7308750784000A1246
:100CA8008A1103200A128A110A128A110D260A12C1
:100CB8008A110130F3070318F40A0030F4077308A7
:100CC800750784000A128A1103200A128A11003A51
:100CD800031D6F2E702E502E0800F000701C752E0C
:100CE800762E7A2E8312031308147D2E8312031393
:100CF8000810F01C802E812E832E8814842E8810D4
:100D0800701D872E882E8A2E08158B2E0811F01D2F
:100D18008E2E8F2E912E8815922E8811701E952E4C
:100D2800962E982E0816992E0812F01E9C2E9D2E8F
:100D38009F2E8816A02E8812701FA32EA42EA62ED2
:100D48000817A72E0813F01FAA2EAB2EAD2E881752
:100D5800AE2E8813080000300A128A1171260A1272
:100D68008A113430F500F130F400F40BB92EF50B8C
:100D7800B92EBE2E3F300A128A11F3250A128A11A3
:100D88000D30F500FB30F400F40BC82EF50BC82E1F
:100D9800CD2E3F300A128A11F3250A128A11023029
:100DA800F6001E30F500B330F400F40BD92EF50B25
:100DB800D92EF60BD92EE02E3F300A128A11F325D0
:100DC8000A128A1138300A128A11F3250A128A1176
:100DD8000C300A128A11F3250A128A1106300A12F7
:100DE8008A11F3250A128A11080083160313880151
:100DF800071387130A128A11AF260A128A110A12D8
:100E08008A11CC250A128A11F401F40A01300A1257
:100E18008A1128260A128A1115300A128A114C26BC
:100E28000A128A11F401F40A02300A128A112826D9
:100E38000A128A1149300A128A114C260A128A119A
:100E48001530FA004B30F900BE30F800F80B2A2FA5
:100E5800F90B2A2FFA0B2A2F00000A128A11CC2527
:100E68000A128A11F401F40A01300A128A1128269A
:100E78000A128A1125300A128A114C260A128A117E
:100E8800F401F40A02300A128A1128260A128A1179
:100E980032300A128A114C260A128A111530FA00C9
:100EA8004B30F900BE30F800F80B582FF90B582FCB
:100EB800FA0B582F00000A128A11CC250A128A113F
:100EC800F401F40A01300A128A1128260A128A113A
:100ED80001300A128A114C260A128A11FB01FC0100
:100EE8000430FA000C30F9003330F800F80B7A2F90
:100EF800F90B7A2FFA0B7A2F812F0A128A11D9252A
:100F08000A128A110130FB070318FC0A0030FC079B
:100F180000307C020F3003197B02031C942F952F9D
:100F2800742FFB01FC010430FA000C30F900333057
:100F3800F800F80B9D2FF90B9D2FFA0B9D2FA42F6E
:100F48000A128A11E6250A128A110130FB070318D2
:100F5800FC0A0030FC0700307C020F3003197B02CA
:100F6800031CB72FB82F972F0A128A11CC250A1203
:100F78008A11F401F40A02300A128A1128260A1288
:100F88008A1148300A128A110D260A128A116F3006
:100F98000A128A110D260A128A116C300A128A1155
:100FA8000D260A128A1161300A128A110D260A12B8
:100FB8008A11F401F40A01300A128A1128260A1249
:100FC8008A113E300A128A114C260A128A111530EB
:100FD800FA004B30F900BE30F800F80BF12FF90B8E
:100FE800F12FFA0BF12F0000032F0A128A110028A3
:080FF80083010A128A11F92E8F
:04400E00D620FF3F7A
:00000001FF
