:020000040000FA
:060000000A128A110C280F
:10000800FE00030EF1000A08F2000A168A15462AB5
:100018000A128A110F288313D3308400EC300A1691
:100028008A157E210A128A118317903084009A302B
:100038000A168A157E210A128A1183010A128A1564
:100048002F28831603134B08F6004A08F5004908C1
:10005800F4004808F3000030FA000030F9000030DE
:10006800F8000030F7000A168A1554240A128A117B
:1000780003183F284028E828831603134B088312E7
:100088000313D800831603134A0883120313D700F7
:1000980083160313490883120313D6008316031328
:1000A800480883120313D5000A168A1524260A1253
:1000B8008A11831203135808570456045504031D64
:1000C80066286728E828831603134708803AFF0044
:1000D80080307F02031D722802304602031C7528F7
:1000E8007628E828831603134508F6004408F50027
:1000F8004308F4004208F3004030FA008930F90060
:100108007030F8005F30F7000A168A15A0260A1228
:100118008A110318902891289A28F7308316031318
:10012800C6070318C70AFF30C707A228F830831686
:100138000313C6070318C70AFF30C70746080A1281
:100148008A159D240A128A118312031345088316FF
:100158000313C50083120313440883160313C40052
:1001680083120313430883160313C3008312031374
:10017800420883160313C2004B08F6004A08F5002C
:100188004908F4004808F3004508FA004408F90053
:100198004308F8004208F7000A168A11B6210A1225
:1001A8008A11760883160313BD007508BC0074080D
:1001B800BB007308BA000030CB000030CA00003022
:1001C800C9000030C8004E29831603134B08831258
:1001D8000313D800831603134A0883120313D700A6
:1001E80083160313490883120313D60083160313D7
:1001F800480883120313D5000A168A1524260A1202
:100208008A1183120313580883160313BD0083123F
:100218000313570883160313BC00831203135608ED
:1002280083160313BB0083120313550883160313A5
:10023800BA003D08F6003C08F5003B08F4003A080F
:10024800F30000300A168A1544270A128A11760824
:1002580083160313A3007508A2007408A10073088D
:10026800A0004B08A7004A08A6004908A5004808AE
:10027800A4000A128A11AE270A128A1183160313E0
:100288002308CB002208CA002108C9002008C8009A
:10029800C601C701CF01CF0A4F0883120313EA0032
:1002A80001300310EA0DFF3E031D552903106A0DA6
:1002B800693E84000A168A110A200A128A11EB0084
:1002C8000A168A110A200A128A11EC000A168A11E3
:1002D8000A200A128A11ED000A168A110A200A1247
:1002E8008A11EE006E08831603133D02031D92293E
:1002F800831203136D08831603133C02031D92290E
:10030800831203136C08831603133B02031D9229FF
:10031800831203136B08831603133A0203189529F3
:1003280096299729A529013083120313EA006A0840
:1003380083160313CF070A304F06031DA429A529E6
:1003480050294F084D0783120313EA00831603133D
:100358004E0803184E0A83120313EB008316031387
:100368004608831203136A07EC0083160313470831
:100378000318470A831203136B07ED006C088316F2
:100388000313C002831203136D0883160313031C9F
:10039800C103C1024D084E040319D329D429DA290F
:1003A800FF30C0070318C10AFF30C10703303E05FC
:1003B80083120313EA000030831603133F058312E8
:1003C8000313EB006A086B040319EB29EC29092ACB
:1003D800FF3083160313C0070318C10AFF30C10793
:1003E800092A203083120313EA00831603134C08EA
:1003F8008400831203136A08831380000130EA0023
:100408006A0883160313CC07EC29831603134108E3
:10041800803AFF0080307F02031D142A0130400219
:100428000318172A182AF5290330831603133E05E3
:1004380083120313EA000030831603133F05831267
:100448000313EB006A086B0403192B2A2C2AB02A21
:100458002D30EA00831603134C088400831203131B
:100468006A08831380000130EA006A0883160313C0
:10047800CC07B02A4F0883120313EA000130031097
:10048800EA0DFF3E031D432A03106A0D693E8400EE
:100498000A168A110A200A128A11F3000A168A110A
:1004A8000A200A128A11F4000A168A110A200A126E
:1004B8008A11F5000A168A110A200A128A11F60012
:1004C800831603133D08FA003C08F9003B08F800BE
:1004D8003A08F7000A168A1553250A128A1176086F
:1004E80083160313C5007508C4007408C300730895
:1004F800C2000030F6000030F5000030F4000A3089
:10050800F3004508FA004408F9004308F8004208D7
:10051800F7000A168A15A4240A128A117608831687
:100528000313C5007508C4007408C3007308C2002B
:100538004208303E83120313EA00831603134C0863
:100548008400831203136A08831380000130EA00D1
:100558006A0883160313CC07013083160313CF02EE
:100568004F0A031DB82AB92A3E2AD32A30308312EB
:100578000313EA00831603134C0884008312031341
:100588006A08831380000130EA006A08831603139F
:10059800CC07FF30C6070318C70AFF30C70747084C
:1005A800803AFF0080307F02031DDC2A01304602BA
:1005B8000318DF2AE02ABA2A831603134E08803A62
:1005C800FF0080307F02031DEB2A09304D02031C17
:1005D800EE2AEF2AF82A083083120313EA006A0881
:1005E80083160313CF00022B831603134D088312BF
:1005F8000313EA006A0883160313CF004F08831217
:100608000313EA00EB016A0883160313CD02831271
:1006180003136B0883160313031CCE03CE024F0883
:100628000319172B182B2B2B2E3083120313EA00D8
:10063800831603134C088400831203136A08831378
:1006480080000130EA006A0883160313CC074F08BC
:100658000A128A159D240A128A1183120313450867
:1006680083160313B8008312031344088316031375
:10067800B70083120313430883160313B6008312CB
:100688000313420883160313B500380883120313B3
:10069800AF0083160313370883120313AE008316C3
:1006A8000313360883120313AD00831603133508AA
:1006B80083120313AC00831603134B08831203132E
:1006C800AB00831603134A0883120313AA00831688
:1006D8000313490883120313A90083160313480858
:1006E80083120313A8000A128A153C210A128A11E0
:1006F800831203132B08D8002A08D7002908D6002C
:100708002808D5000A168A1524260A128A11831287
:100718000313580883160313BD00831203135708E5
:1007280083160313BC00831203135608831603139E
:10073800BB0083120313550883160313BA00552C04
:100748004F0883120313EA0001300310EA0DFF3E3D
:10075800031DA92B03106A0D693E84000A168A112D
:100768000A200A128A11F3000A168A110A200A12AC
:100778008A11F4000A168A110A200A128A11F50051
:100788000A168A110A200A128A11F6008316031320
:100798003D08FA003C08F9003B08F8003A08F70061
:1007A8000A168A1553250A128A1176088316031326
:1007B800C5007508C4007408C3007308C20000307F
:1007C800F6000030F5000030F4000A30F300450868
:1007D800FA004408F9004308F8004208F7000A162E
:1007E8008A15A4240A128A11760883160313C500F1
:1007F8007508C4007408C3007308C2004208303E7C
:1008080083120313EA00831603134C08840083122F
:1008180003136A08831380000130EA006A0883160C
:100828000313CC074F0883120313EA0001300310A7
:10083800EA0DFF3E031D1B2C03106A0D693E840060
:100848000A168A110A200A128A11F3000A168A1156
:100858000A200A128A11F4000A168A110A200A12BA
:100868008A11F5000A168A110A200A128A11F6005E
:10087800831603133D08FA003C08F9003B08F8000A
:100888003A08F7000A168A15A4240A128A1176086B
:1008980083160313BD007508BC007408BB007308F9
:1008A800BA000130CF024F0A031D5B2C5C2CA42B2D
:1008B800762C303083120313EA00831603134C0896
:1008C8008400831203136A08831380000130EA004E
:1008D8006A0883160313CC07FF30CD070318CE0A26
:1008E800FF30CE074D084E04031D7B2C7C2C5D2C5D
:1008F800802D831603134D084E04031D842C852C6C
:10090800932C3D083C043B043A04031D8C2C8D2C8D
:10091800932C0130CD070318CE0A0030CE074E08BD
:10092800803A803C031D9A2C4D084F0203189D2CD9
:100938009E2CA92C831603134D0883120313EA0077
:100948006A0883160313CF00CD2C831603134E08B1
:10095800803A83120313EA0080306A02031DB82C20
:10096800831603134F084D020318BB2CBC2CCD2C47
:10097800831603134F0883120313EA00EB016A0876
:1009880083160313CD00831203136B088316031316
:10099800CE0083160313400841040319D42CD52C28
:1009A800EF2C03303E0583120313EA000030831650
:1009B80003133F0583120313EB006A086B04031942
:1009C800E62CE72CEF2CFF3083160313C00703181F
:1009D800C10AFF30C107831603133F1FF42CF52CFF
:1009E800182D4E08803A83120313EA008316031366
:1009F8004108803A831203136A02031D072D8316E8
:100A0800031340084D0203180A2D0B2D142D8316CD
:100A180003134D08C0024E08031CC103C102182D60
:100A280083160313C001C1014108803A803C031DAD
:100A38001F2D40084F020318222D232D372D831612
:100A480003134F0883120313EA00EB016A088316A5
:100A58000313C002831203136B0883160313031CCA
:100A6800C103C1023B2D83160313C001C101400815
:100A780041040319402D412D602D203083120313AA
:100A8800EA00831603134C088400831203136A08D0
:100A9800831380000130EA006A0883160313CC0729
:100AA800FF30C0070318C10AFF30C10740084104DE
:100AB800031D5F2D602D412D03303E058312031366
:100AC800EA000030831603133F0583120313EB007B
:100AD8006A086B040319712D722D802D2D30EA00E0
:100AE800831603134C088400831203136A088313C4
:100AF80080000A168A111D2D013083160313A807DA
:100B0800FF30280784000A168A110A200A128A115F
:100B180083120313EA006A0883160313CF004F08F1
:100B2800031D972D9A2D0A168A110A2D8316031371
:100B38004C08840083138001080083120313D50036
:100B48006E305502031CA92DAA2DB92E3F30AB00DB
:100B58000030AA000030A9000030A8006430A000CE
:100B68000030A1005508C600C7014608A200470882
:100B7800A3000A168A15C4230A128A1183120313C2
:100B88002008C80001300310C80DFF3E031DC72D03
:100B98000310480D7D3E84000A168A110A200A12A5
:100BA8008A11C9000A168A110A200A128A11CA0073
:100BB8000A168A110A200A128A11CB000A168A110B
:100BC8000A200A128A11CC004C08AF004B08AE006C
:100BD8004A08AD004908AC000A128A153C210A12DD
:100BE8008A11831203132B08D4002A08D30029087A
:100BF800D2002808D1000A30A0000030A100550812
:100C0800C600C7014608F5004708F6006430F3003F
:100C18000030F4000A168A15C6220A128A117408CE
:100C280083120313A3007308A2000A168A15C423AB
:100C38000A128A11831203132008C8000130031016
:100C4800C80DFF3E031D232E0310480D593E840096
:100C58000A168A110A200A128A11C9000A168A116C
:100C68000A200A128A11CA000A168A110A200A12D0
:100C78008A11CB000A168A110A200A128A11CC009E
:100C88004C08AB004B08AA004A08A9004908A8006C
:100C98005408AF005308AE005208AD005108AC002C
:100CA8000A128A153C210A128A11831203132B088F
:100CB800D0002A08CF002908CE002808CD000A3025
:100CC800F3000030F4005508C600C7014608F500D7
:100CD8004708F6000A168A15C6220A128A117308EE
:100CE80083120313C80001300310C80DFF3E031D13
:100CF800782E0310480D353E84000A168A110A2002
:100D08000A128A11C9000A168A110A200A128A11BF
:100D1800CA000A168A110A200A128A11CB000A167A
:100D28008A110A200A128A11CC004C08AB004B0821
:100D3800AA004A08A9004908A8005008AF004F08AF
:100D4800AE004E08AD004D08AC000A128A153C21D1
:100D58000A128A11831203132B08C5002A08C4003B
:100D68002908C3002808C200AD2F0B305502031C08
:100D7800BE2EBF2E6A2F3F30AB000030AA000030D5
:100D8800A9000030A8000A30A0000030A1005508D2
:100D9800C600C7014608A2004708A3000A168A151C
:100DA800C4230A128A11831203132008C8000130D1
:100DB8000310C80DFF3E031DDC2E0310480D593EDD
:100DC80084000A168A110A200A128A11C9000A1612
:100DD8008A110A200A128A11CA000A168A110A20E0
:100DE8000A128A11CB000A168A110A200A128A11DD
:100DF800CC004C08AF004B08AE004A08AD004908CB
:100E0800AC000A128A153C210A128A1183120313B4
:100E18002B08D4002A08D3002908D2002808D100BA
:100E28000A30F3000030F4005508C600C701460830
:100E3800F5004708F6000A168A15C6220A128A1112
:100E4800730883120313C80001300310C80DFF3E56
:100E5800031D292F0310480D353E84000A168A11F8
:100E68000A200A128A11C9000A168A110A200A12CF
:100E78008A11CA000A168A110A200A128A11CB009E
:100E88000A168A110A200A128A11CC004C08AB00F3
:100E98004B08AA004A08A9004908A8005408AF004E
:100EA8005308AE005208AD005108AC000A128A156A
:100EB8003C210A128A11831203132B08C5002A0841
:100EC800C4002908C3002808C200AD2F3F30AB007A
:100ED8000030AA000030A9000030A8005508C6005C
:100EE80001300310C60DFF3E031D752F0310460D7C
:100EF800353E84000A168A110A200A128A11C70090
:100F08000A168A110A200A128A11C8000A168A11BA
:100F18000A200A128A11C9000A168A110A200A121E
:100F28008A11CA004A08AF004908AE004808AD0057
:100F38004708AC000A128A153C210A128A1183124A
:100F480003132B08C5002A08C4002908C300280871
:100F5800C2000800803083160313A30627088312F3
:100F68000313D90083160313260883120313D8002A
:100F780083160313250883120313D700831603135C
:100F8800240883120313D60083160313230883123D
:100F98000313DD0083160313220883120313DC00F6
:100FA80083160313210883120313DB00831603132C
:100FB800200883120313DA000A168A1174220A120F
:100FC8008A1183120313590883160313A30083128B
:100FD8000313580883160313A20083120313570838
:100FE80083160313A10083120313560883160313F1
:040FF800A00008004D
:10100C0083120313A400A001A1017308F500F601DB
:10101C007508A2007608A300241C152816281C2885
:10102C002208A0070318A10A2308A1070130031006
:10103C00A20DA30DFF3E031D1D280310A40C2408B4
:10104C00031D29282A2812282108F4002008F3005F
:10105C0008000A168A15B7210A128A150A168A156B
:10106C0076210A128A150A168A1586210A128A1501
:10107C000A168A15DF210A128A150A168A15CA2140
:10108C000A128A150A168A150A240A128A1583125C
:10109C0003139F140A168A11C7200A128A15F70126
:1010AC00F70A01300A168A15A2220A128A15A630EE
:1010BC00F6008030F7000A168A157E230A128A156C
:1010CC008316031361080A168A153E230A128A1521
:1010DC0083120313450883160313DE0083120313D4
:1010EC00440883160313DD0083120313430883168D
:1010FC000313DC0083120313420883160313DB0073
:10110C0060080A168A153E230A128A1583120313E5
:10111C00450883160313DA0083120313440883165D
:10112C000313D90083120313430883160313D80047
:10113C0083120313420883160313D7005F080A16A1
:10114C008A153E230A128A15831203134508831647
:10115C000313D60083120313440883160313D5001C
:10116C0083120313430883160313D400831203134F
:10117C00420883160313D300F701F70A02300A164C
:10118C008A15A2220A128A15913083160313D000F5
:10119C005008A8005E08AC005D08AB005C08AA0013
:1011AC005B08A9005A08B0005908AF005808AE00F7
:1011BC005708AD005608B4005508B3005408B200E7
:1011CC005308B100E2300A168A11FC240A128A155F
:1011DC00E230F6000030F7000A168A157E230A1258
:1011EC008A150C30831203139900E2300A168A1503
:1011FC0081220A128A15023083160313D20004309E
:10120C00D100B930D000D00B0929D10B0929D20B50
:10121C0009291029831203139F1815291629502800
:10122C001F0C83160313D000500C0F39053A031D05
:10123C00202921292829831203131F08C3391838A0
:10124C009F002E29831203131F08C33914389F00E3
:10125C00203083160313D000D00B322900008312E8
:10126C0003139F1450280A128A110C28831203139B
:10127C002B088039B0003008B5002B08B0003007BF
:10128C00B1003108BB00AA1F4C294D294E293B1433
:10129C003B0803195229532962293B0A031D57297C
:1012AC00582960290030AB000030AA000030A9009A
:1012BC000030A800AA176A290030AB000030AA0041
:1012CC000030A9000030A8002F088039B000300889
:1012DC00B5062F08B0003007B1003108BA00AE1FB8
:1012EC00782979297A293A143A0803197E297F2911
:1012FC008E293A0A031D832984298C290030AF00DA
:10130C000030AE000030AD000030AC00AE179629B6
:10131C000030AF000030AE000030AD000030AC004B
:10132C003A0803199A299B29A0293B08031D9F29D8
:10133C00A029A9290030AB000030AA000030A90078
:10134C000030A8009C2C2808B0003008F3002E08B0
:10135C000A128A1506200A128A15740883120313BE
:10136C00C1007308C0004008B000B101B201B30164
:10137C003308B9003208B8003108B7003008B6009D
:10138C004108B000B101B201B3013308BF0032080B
:10139C00BE003108BD003008BC002908B000300880
:1013AC00F3002D080A128A1506200A128A157408F1
:1013BC0083120313C1007308C0004008B000B101D0
:1013CC00B201B3013008B607310803110318013E0E
:1013DC000319F129B707320803110318013E031949
:1013EC00F829B807330803110318013E0319FF2924
:1013FC00B9074108B000B101B201B3013008BC0714
:10140C00310803110318013E03190D2ABD073208D8
:10141C0003110318013E0319142ABE0733080311E4
:10142C000318013E03191B2ABF072A08B000300815
:10143C00F3002C080A128A1506200A128A15740861
:10144C0083120313C1007308C0004008B000B1013F
:10145C00B201B3013008B607310803110318013E7D
:10146C000319392AB707320803110318013E03196F
:10147C00402AB807330803110318013E0319472A01
:10148C00B9074108B000B101B201B3013008BC0783
:10149C00310803110318013E0319552ABD07320800
:1014AC0003110318013E03195C2ABE07330803110C
:1014BC000318013E0319632ABF070830B00003105C
:1014CC00B60DB70DB80DB90DB00B652A2908B000D3
:1014DC003008F3002C080A128A1506200A128A1505
:1014EC00740883120313C1007308C0004008B000D5
:1014FC004108B100B201B3013008B607310803113D
:10150C000318013E03198B2AB7073208031103187D
:10151C00013E0319922AB807330803110318013E40
:10152C000319992AB9072808B0003008F3002D08D0
:10153C000A128A1506200A128A15740883120313DC
:10154C00C1007308C0004008B0004108B100B201EE
:10155C00B3013008B607310803110318013E031913
:10156C00B82AB707320803110318013E0319BF2A22
:10157C00B807330803110318013E0319C62AB9072B
:10158C000830B0000310B60DB70DB80DB90DB00B87
:10159C00C82A2808B0003008F3002C080A128A1553
:1015AC0006200A128A15740883120313C1007308EB
:1015BC00C0004008B0004108B100B201B3013008CE
:1015CC00B607310803110318013E0319EE2AB707B9
:1015DC00320803110318013E0319F52AB807330822
:1015EC0003110318013E0319FC2AB9072908B0009E
:1015FC003008F3002E080A128A1506200A128A15E2
:10160C00740883120313C1007308C0004008B000B3
:10161C004108B100B201B3013008BC073108031115
:10162C000318013E03191B2BBD07320803110318C5
:10163C00013E0319222BBE07330803110318013E88
:10164C000319292BBF072A08B0003008F3002D0816
:10165C000A128A1506200A128A15740883120313BB
:10166C00C1007308C0004008B0004108B100B201CD
:10167C00B3013008BC07310803110318013E0319EC
:10168C00482BBD07320803110318013E03194F2BD9
:10169C00BE07330803110318013E0319562BBF076D
:1016AC002A08B0003008F3002E080A128A1506200A
:1016BC000A128A15740883120313C1007308C00040
:1016CC004008B0004108B100B201B301083003106A
:1016DC00B00DB10DB20DB30DFF3E031D6D2B3008D7
:1016EC00BC07310803110318013E03197E2BBD07FB
:1016FC00320803110318013E0319852BBE0733086A
:10170C0003110318013E03198C2BBF073608B000D8
:10171C003708B1003808B2003908B300183003108C
:10172C00B30CB20CB10CB00CFF3E031D952B300862
:10173C00BC07310803110318013E0319A62BBD0782
:10174C00320803110318013E0319AD2BBE073308F1
:10175C0003110318013E0319B42BBF070830B00066
:10176C000310B60DB70DB80DB90DB00BB62B3B0869
:10177C003A07B000B101B10D3008823EC00031080B
:10178C000318013EFF3EC100E82B0130B0000310EE
:10179C00BC0DBD0DBE0DBF0DB00BCD2BB91FD72B86
:1017AC00D82BD92B3C140130B0000310B60DB70D5B
:1017BC00B80DB90DB00BDB2BFF30C0070318C10AF5
:1017CC00FF30C107BE1FEB2BEC2BCB2BBA01B91F83
:1017DC00F02BF12B0D2CFF303605B000FF30370508
:1017EC00B100FF303805B2007F303905B300330843
:1017FC003204310430040319042C052C082CBA01D2
:10180C00BA0A0D2C3C1C0B2C0C2C0D2C052C3A085C
:10181C000319112C122C432C0130BC070030031877
:10182C000130BD07003003180130BE07003003182B
:10183C000130BF073F1C232C242C432C3C08B00048
:10184C003D08B1003E08B2003F08B3000130B400BF
:10185C00330DB30CB20CB10CB00CB40B2E2C3308F2
:10186C00BF003208BE003108BD003008BC0001309A
:10187C00C0070318C10A0030C1074108803AFF00B5
:10188C0080307F02031D4C2CFF304002031C4F2C78
:10189C00502C5B2C7F3083120313BF008030BE00B2
:1018AC000030BD000030BC00902C831203134108A3
:1018BC00803AFF0080307F02031D662C013040020D
:1018CC000318692C6A2C762C003083120313BF008A
:1018DC000030BE000030BD000030BC00B501902CC3
:1018EC00831203134008B0003008BB00FF30BC0566
:1018FC00FF30BD057F30BE050030BF053B1C872C7B
:10190C00882C892CBE173B08B0000310300CB1009A
:10191C003108BF003508B0003008BF043F08AB00E9
:10192C003E08AA003D08A9003C08A8000800831244
:10193C000313D400D41FA32CA42C532ED409D40AE3
:10194C005408803A123E031CAC2CAD2C972D0A3057
:10195C00A0000030A1005408F500F601F51BF603B9
:10196C006430F3000030F4000A168A15FA240A12C7
:10197C008A15740883120313A3007308A2000A16B5
:10198C008A15BB250A128A15831203132008C60078
:10199C0001300310C60DFF3E031DCF2C0310460D66
:1019AC00593E84000A168A110A200A128A15C700A9
:1019BC000A168A110A200A128A15C8000A168A11F8
:1019CC000A200A128A15C9000A168A110A200A125C
:1019DC008A15CA004A08AB004908AA004808A900A1
:1019EC004708A8006430A0000030A1005408A200F1
:1019FC00A301A21BA3030A168A15BB250A128A157A
:101A0C00831203132008CB0001300310CB0DFF3ED3
:101A1C00031D0B2D03104B0D7D3E84000A168A11FD
:101A2C000A200A128A15CC000A168A110A200A12F8
:101A3C008A15CD000A168A110A200A128A15CE00C0
:101A4C000A168A110A200A128A15CF004F08AF0015
:101A5C004E08AE004D08AD004C08AC000A128A15B9
:101A6C003C210A128A15831203132B08D3002A086F
:101A7C00D2002908D1002808D0000A30F300003029
:101A8C00F4005408F500F601F51BF6030A168A1546
:101A9C00FA240A128A15730883120313C600013044
:101AAC000310C60DFF3E031D562D0310460D353E8B
:101ABC0084000A168A110A200A128A15C7000A160F
:101ACC008A110A200A128A15C8000A168A110A20DD
:101ADC000A128A15C9000A168A110A200A128A15D6
:101AEC00CA004A08AB004908AA004808A9004708E0
:101AFC00A8005308AF005208AE005108AD005008C2
:101B0C00AC000A128A153C210A128A15831203139F
:101B1C002B08C5002A08C4002908C3002808C200E5
:101B2C00FF2F5408803A753E031C9D2D9E2D262EAA
:101B3C000A30F3000030F4005408F500F601F51BF0
:101B4C00F6030A168A15FA240A128A1573088312E8
:101B5C000313C60001300310C60DFF3E031DB12D4B
:101B6C000310460D353E84000A168A110A200A120B
:101B7C008A15C7000A168A110A200A128A15C8008B
:101B8C000A168A110A200A128A15C9000A168A1125
:101B9C000A200A128A15CA004A08AB004908AA0092
:101BAC004808A9004708A8000A30A0000030A1008E
:101BBC005408A200A301A21BA3030A168A15BB2575
:101BCC000A128A15831203132008CB00013003106C
:101BDC00CB0DFF3E031DED2D03104B0D593E840024
:101BEC000A168A110A200A128A15CC000A168A11C2
:101BFC000A200A128A15CD000A168A110A200A1226
:101C0C008A15CE000A168A110A200A128A15CF00EC
:101C1C004F08AF004E08AE004D08AD004C08AC00AC
:101C2C000A128A153C210A128A15831203132B08F7
:101C3C00C5002A08C4002908C3002808C200FF2FC9
:101C4C005408C60001300310C60DFF3E031D292E9B
:101C5C000310460D353E84000A168A110A200A121A
:101C6C008A15C7000A168A110A200A128A15C8009A
:101C7C000A168A110A200A128A15C9000A168A1134
:101C8C000A200A128A15CA004A08C5004908C4006D
:101C9C004808C3004708C200FF2F5408803A123E80
:101CAC00031C592E5A2E442F0A30A0000030A100DC
:101CBC005408F500F601F51BF6036430F300003010
:101CCC00F4000A168A15FA240A128A15740883126B
:101CDC000313A3007308A2000A168A15BB250A1267
:101CEC008A15831203132008C60001300310C60D99
:101CFC00FF3E031D7C2E0310460D253E84000A1664
:101D0C008A110A200A128A15C7000A168A110A209B
:101D1C000A128A15C8000A168A110A200A128A1594
:101D2C00C9000A168A110A200A128A15CA004A0822
:101D3C00AB004908AA004808A9004708A80064306D
:101D4C00A0000030A1005408A200A301A21BA30311
:101D5C000A168A15BB250A128A158312031320084A
:101D6C00CB0001300310CB0DFF3E031DB82E03102A
:101D7C004B0D493E84000A168A110A200A128A1554
:101D8C00CC000A168A110A200A128A15CD000A16EE
:101D9C008A110A200A128A15CE000A168A110A2004
:101DAC000A128A15CF004F08AF004E08AE004D083E
:101DBC00AD004C08AC000A128A153C210A128A1597
:101DCC00831203132B08D3002A08D2002908D10050
:101DDC002808D0000A30F3000030F4005408F50055
:101DEC00F601F51BF6030A168A15FA240A128A154F
:101DFC00730883120313C60001300310C60DFF3E97
:101E0C00031D032F0310460D013E84000A168A1190
:101E1C000A200A128A15C7000A168A110A200A1209
:101E2C008A15C8000A168A110A200A128A15C900D6
:101E3C000A168A110A200A128A15CA004A08AB002F
:101E4C004908AA004808A9004708A8005308AF0091
:101E5C005208AE005108AD005008AC000A128A15A9
:101E6C003C210A128A15831203132B08C5002A0879
:101E7C00C4002908C3002808C200FF2F5408803A68
:101E8C00753E031C4A2F4B2FD32F0A30F300003022
:101E9C00F4005408F500F601F51BF6030A168A1532
:101EAC00FA240A128A15730883120313C600013030
:101EBC000310C60DFF3E031D5E2F0310460D013EA1
:101ECC0084000A168A110A200A128A15C7000A16FB
:101EDC008A110A200A128A15C8000A168A110A20C9
:101EEC000A128A15C9000A168A110A200A128A15C2
:101EFC00CA004A08AB004908AA004808A9004708CC
:101F0C00A8000A30A0000030A1005408A200A301D0
:101F1C00A21BA3030A168A15BB250A128A15831263
:101F2C0003132008CB0001300310CB0DFF3E031D23
:101F3C009A2F03104B0D253E84000A168A110A2095
:101F4C000A128A15CC000A168A110A200A128A155E
:101F5C00CD000A168A110A200A128A15CE000A161A
:101F6C008A110A200A128A15CF004F08AF004E08BA
:101F7C00AE004D08AD004C08AC000A128A153C218D
:101F8C000A128A15831203132B08C5002A08C400F1
:101F9C002908C3002808C200FF2F5408C6000130CE
:101FAC000310C60DFF3E031DD62F0310460D013E38
:101FBC0084000A168A110A200A128A15C7000A160A
:101FCC008A110A200A128A15C8000A168A110A20D8
:101FDC000A128A15C9000A168A110A200A128A15D1
:101FEC00CA004A08C5004908C4004808C30047088D
:101FFC00C2000800FF1B0A2883137F1883170008F0
:10200C00840A0319FF0A080010308A000408840AA5
:10201C00820700340034003480343F340034003400
:10202C002034413400340034C83442340034003499
:10203C007A344434003440341C3446340034503444
:10204C00C3344734003424347434493480349634E3
:10205C0018344B342034BC34BE344C3428346B34F8
:10206C006E344E34F934023415345034EC34783444
:10207C00AD346034CA34F234493471340034003431
:10208C0080343F34CD34CC34CC343D340A34D73462
:10209C0023343C346F34123483343A341734B73429
:1020AC00D1343834AC34C53427343734BD343734B8
:1020BC00863435349534BF34D63433347734CC3419
:1020CC002B3432345F34703489343034FF34E6349A
:1020DC00DB342E340834E5343C341E346034423462
:1020EC00A2340D3401340034003400340A3400348A
:1020FC00003400346434003400340034E8340334E5
:10210C00003400341034273400340034A0348634C6
:10211C0001340034403442340F340034803496346B
:10212C00983400340034E134F53405340034CA34C6
:10213C009A343B34253433342E34313466345634AB
:10214C002034253433342E3432346634563420342F
:10215C00253433342E34323466345634003420343F
:10216C00533431343A342034203420345334323420
:10217C003A3420342034533433343A342034203439
:10218C00003400300A168A15F5210A168A1101301E
:10219C000A168A15F5210A168A110800F701F801AA
:1021AC00731CD928DA28E0287508F7070318F80AF1
:1021BC007608F80701300310F50DF60DFF3E031DF0
:1021CC00E12801300310F40CF30CFF3E031DE8284A
:1021DC0073087404031DF328F428D6287808F40037
:1021EC007708F3000800730883120313A000740827
:1021FC00A1007508A2000310210D220DA3002308D5
:10220C00A9002908031D0B290C2915290030F600FB
:10221C000030F5000030F4000030F300B5297708E9
:10222C00A0007808A1007908A2000310210D220D4E
:10223C00A3002308A8002808031D252926292729DF
:10224C000C29F417FF30F305FF30F4050030F505C9
:10225C00F817FF30F705FF30F8050030F9050030AE
:10226C00A7000030A6000030A5000030A4007F308D
:10227C00A90298302807A0002008A9021830A00055
:10228C002008A8000130A0000310A40DA50DA60D78
:10229C00A70DA00B4A2979087502031D5B29780844
:1022AC007402031D5B2977087302031C5E295F29E6
:1022BC006A297708F3027808031C780FF40279086E
:1022CC00031C790AF502241401300310F30DF40DEC
:1022DC00F50DFF3E031D6B290130A802031D772964
:1022EC0078294829A91F7B297C2996292908803A15
:1022FC00973E03188229832984290C290130031065
:10230C00A70CA60CA50CA40CFF3E031D85290130BF
:10231C00A0002008A907031D942995298429AD291B
:10232C0018302902031C9B299C29A8290C2901304F
:10233C00A0000310A40DA50DA60DA70DA00B9F29A1
:10234C000130A9022908031DAC29AD299D292708B4
:10235C00F6002608F5002508F4002408F300080010
:10236C000310750D760D83120313A0002008A60030
:10237C002608031DC229C329CC290030F6000030E1
:10238C00F5000030F4000030F300732A0310790DCF
:10239C007A0DA0002008A5002508031DD629D729F1
:1023AC00D829C329F517FF30F305FF30F405FF30AA
:1023BC00F5050030F605F917FF30F705FF30F80585
:1023CC00FF30F9050030FA050030A4000030A300FE
:1023DC000030A2000030A1007F30A602A0302507FB
:1023EC00A0002008A6022030A0002008A500013083
:1023FC00A0000310A10DA20DA30DA40DA00BFF298D
:10240C007A087602031D142A79087502031D142A12
:10241C0078087402031D142A77087302031C172A08
:10242C00182A272A7708F3027808031C780FF4027D
:10243C007908031C790FF5027A08031C7A0FF6024F
:10244C0021140130A0000310F30DF40DF50DF60D61
:10245C00A00B292A0130A502031D352A362AFD2995
:10246C00A61F392A3A2A542A2608803A9F3E031876
:10247C00402A412A422AC32901300310A40CA30C80
:10248C00A20CA10CFF3E031D432A0130A000200822
:10249C00A607031D522A532A422A6B2A20302602F1
:1024AC00031C592A5A2A662AC3290130A00003109A
:1024BC00A10DA20DA30DA40DA00B5D2A0130A60247
:1024CC002608031D6A2A6B2A5B2A2408F6002308B7
:1024DC00F5002208F4002108F3000800831203130E
:1024EC0059088039DE005E08E6005908DE005E07F8
:1024FC00DF005F08E800D81F842A852A862A681422
:10250C00680803198A2A8B2A9B2A680A031D8F2ABA
:10251C00902A982A0030D9000030D8000030D7001B
:10252C000030D600D817D901A32A0030D9000030CA
:10253C00D8000030D7000030D6005D088039DE00AE
:10254C005E08E700670866060319AD2AAE2AAF2AB3
:10255C0066175D08DE005E07DF005F08E700DC1F22
:10256C00B82AB92ABA2A671467080319BE2ABF2ADF
:10257C00CF2A670A031DC32AC42ACC2A0030DD00E7
:10258C000030DC000030DB000030DA00DC17DD014D
:10259C00D72A0030DD000030DC000030DB000030DA
:1025AC00DA00680867020318DC2ADD2A212B661F73
:1025BC00E02AE12AE52A8030DE005E08E60668089B
:1025CC00DE005E08E9006708DE005E08E8006908C6
:1025DC00DE005E08E7005608DE005E08E9005A08D7
:1025EC00DE005E08D6006908DE005E08DA005708D7
:1025FC00DE005E08E9005B08DE005E08D7006908B3
:10260C00DE005E08DB005808DE005E08E9005C08AE
:10261C00DE005E08D8006908DE005E08DC005908A0
:10262C00DE005E08E9005D08DE005E08D90069087E
:10263C00DE005E08DD00E9016708DE00DF015F08EF
:10264C00E10068085E02E000031CE1036108803AC7
:10265C00FF0080307F02031D352B1A306002031CF3
:10266C00382B392B762B8312031359085804570433
:10267C005604031D422B442B0130452B0030DE0049
:10268C005E08E9000030D9000030D8000030D700D7
:10269C000030D6006708DE005E08E8007E2B691C5F
:1026AC00582B592B622B6908DE0003105E0C013885
:1026BC00DF005F08E900642B0310E90C561C672B44
:1026CC00682B692BE9170130DE00590DD90CD80C99
:1026DC00D70CD60CDE0B6B2B0130DE005E08E80746
:1026EC008312031367086802031C7D2B7E2B552B6A
:1026FC00661B812B822BCD2B6808031D862B872B09
:10270C00902B0030D9000030D8000030D7000030BA
:10271C00D600FB2C5A08D6075B0803110318013EA0
:10272C000319992BD7075C0803110318013E0319F1
:10273C00A02BD8075D0803110318013E0319A72B22
:10274C00D907591CAA2BAB2B812C691CAE2BAF2B98
:10275C00B82B6908DE0003105E0C0138DF005F083F
:10276C00E900BA2B0310E90C561CBD2BBE2BBF2B5A
:10277C00E9170130DE00590DD90CD80CD70CD60C4A
:10278C00DE0BC12B0130DE005E08E807812C5908F6
:10279C00803AFF005D08803A7F02031DDF2B5C0846
:1027AC005802031DDF2B5B085702031DDF2B5A0851
:1027BC0056020318E22BE32B3B2CFF30DE00FF30DC
:1027CC00DF00FF30E000FF30E1005A08E2005B0858
:1027DC00E3005C08E4005D08E5005608E2025708D7
:1027EC00031C570FFA2BFB2BE3025808031C580F42
:1027FC00002C012CE4025908031C590F062C072C41
:10280C00E5026208DE0763080318630F0E2C0F2C19
:10281C00DF0764080318640F142C152CE0076508F7
:10282C000318650AE1076108D9006008D8005F0841
:10283C00D7005E08D6008030DE005E08E606E909A7
:10284C00E90A6908031D2B2C2C2C492C0130D607C6
:10285C00003003180130D707003003180130D807B7
:10286C00003003180130D907492C5A08D6025B08EE
:10287C00031C5B0FD7025C08031C5C0FD8025D08BD
:10288C00031C5D0FD9025908580457045604031D44
:10289C00502C512C7D2C6908031D552C562C7D2C4D
:1028AC000030D9000030D8000030D7000030D600FE
:1028BC00FB2C0130DE000310D60DD70DD80DD90D31
:1028CC00DE0B612CE91F6B2C6C2C6D2C5614691CC7
:1028DC00702C712C742C0314E90D762C0310E90D5B
:1028EC00680803197A2C7B2C7D2C0130E802D81F48
:1028FC00802C812C5F2CE701E91F852C862C942CD5
:10290C0069087F3903198B2C8C2C8F2CE701E70A73
:10291C00942C561C922C932C942C8C2C67080319F9
:10292C00982C992CCD2C0130D6070030031801308F
:10293C00D707003003180130D807003003180130D6
:10294C00D907591CAA2CAB2CCD2C5608DE005708E5
:10295C00DF005808E0005908E1000130E200610D89
:10296C00E10CE00CDF0CDE0CE20BB52C6108D9009D
:10297C006008D8005F08D7005E08D600680A031903
:10298C00C82CC92CCD2C0130DE005E08E807680A83
:10299C000319D12CD22CD72C6808031DD62CD72C7C
:1029AC00E52C0030D9000030D8000030D7000030C2
:1029BC00D6006808031DE32CE42CE52CE601681C0A
:1029CC00E82CE92CEB2CD817EF2C7F30DE005E08BE
:1029DC00D8056808DE0003105E0CDF005F08D90024
:1029EC00E61FF92CFA2CFB2CD917080083160313BD
:1029FC00CC00A93083120313EA006A088316031370
:102A0C00B9000A128A11802D25304F0603190F2D9B
:102A1C00102D242D4F0883120313EA008316031381
:102A2C004C088400831203136A088313800001305E
:102A3C00EA006A0883160313CC07072DC001C101F5
:102A4C00BE01BF01280884000A168A110A200A1642
:102A5C008A110A168A15A5210A168A11031C372D0C
:102A6C00382D842D83160313C001C1010A30F300E5
:102A7C000030F400831603134108F6004008F500FB
:102A8C000A168A11D4200A168A11740883160313A5
:102A9C00C1007308C000280884000A168A110A2095
:102AAC000A168A11D03E83120313EA00FF30031872
:102ABC000030EB006A0883160313C0070318C10A21
:102ACC00831203136B0883160313C107013083129F
:102ADC000313EA006A0883160313A8072808840066
:102AEC000A168A110A200A168A110A168A15A521B5
:102AFC000A168A110318832D842D3C2D831603137B
:102B0C00280884000A168A110A200A168A112E3AFD
:102B1C00031D912D922DE72D3F17013083120313C6
:102B2C00EA006A0883160313A807CD01CE01D62D3F
:102B3C000A30F3000030F400831603134E08F6003D
:102B4C004D08F5000A168A11D4200A168A11740849
:102B5C0083160313CE007308CD00280884000A16D0
:102B6C008A110A200A168A11D03E83120313EA0036
:102B7C00FF3003180030EB006A0883160313CD07EF
:102B8C000318CE0A831203136B0883160313CE07A4
:102B9C00013083120313EA006A0883160313A80793
:102BAC00280884000A168A110A200A168A110A16A5
:102BBC008A15A5210A168A110318E52DE62D9E2DDE
:102BCC00EF2DCD01CE013F16EF2D831603133F15CC
:102BDC000D2E013083160313A807FF30280784003D
:102BEC000A168A110A200A168A11CF0083120313BF
:102BFC00EA00EB016B08003A0319052E072D6A0851
:102C0C00003A0319FD2F663A0319EB2D072D0030FE
:102C1C003E0583120313EA000730831603133F05A6
:102C2C0083120313EB006A086B0403191E2E212E6A
:102C3C000A128A117D2C831603133F1E262E272E73
:102C4C002B2E0630CD000030CE00390884008313C3
:102C5C000008C800840A0008C900840A0008CA00D9
:102C6C00840A0008CB00043083120313EA006A08BC
:102C7C0083160313B9074B08F6004A08F5004908F8
:102C8C00F4004808F3000030FA000030F90000307E
:102C9C00F8000030F7000A168A15A0260A168A11C9
:102CAC000318592E5A2E772E831603134B08F60051
:102CBC004A08F5004908F4004808F3000A168A157A
:102CCC009A210A168A11760883160313CB0075080D
:102CDC00CA007408C9007308C8000330BE04003071
:102CEC00BF0483160313C601C7014B08F6004A083C
:102CFC00F5004908F4004808F3000030FA000030F1
:102D0C00F9000030F8000030F7000A168A15542438
:102D1C000A168A110318932E942E942F03108316DF
:102D2C0003134A0D4B0D823EC600FF3003180030D2
:102D3C00C700FF30C6070318C70AFF30C7070330A8
:102D4C00F3000030F4004708F6004608F5000A16B8
:102D5C008A11D4200A168A11740883160313C7002B
:102D6C007308C6000A3083120313A0000030A100C0
:102D7C0083160313470883120313A300831603134C
:102D8C00460883120313A2000A168A15BB250A16DD
:102D9C008A1183120313210883160313C7008312AD
:102DAC000313200883160313C600C71FDE2EDF2E65
:102DBC00E52EFF30C6070318C70AFF30C7074603C6
:102DCC00FF3A0A128A159D240A168A1183120313DC
:102DDC00450883160313C500831203134408831696
:102DEC000313C40083120313430883160313C30095
:102DFC0083120313420883160313C2004B08831279
:102E0C000313AB00831603134A0883120313AA009F
:102E1C0083160313490883120313A90083160313A3
:102E2C00480883120313A800831603134508831262
:102E3C000313AF0083160313440883120313AE006D
:102E4C0083160313430883120313AD008316031375
:102E5C00420883120313AC000A128A153C210A168D
:102E6C008A11831203132B0883160313C5008312D4
:102E7C0003132A0883160313C400831203132908AF
:102E8C0083160313C300831203132808831603133A
:102E9C00C2004508F6004408F5004308F400420857
:102EAC00F3003F30FA008030F9000030F8000030B9
:102EBC00F7000A168A15A0260A168A110318672F1E
:102ECC00682F712FFF3083160313C6070318C70A28
:102EDC00FF30C707942F831603134508F6004408E8
:102EEC00F5004308F4004208F3004130FA002030AA
:102EFC00F9000030F8000030F7000A168A15A026F9
:102F0C000A168A11031C8B2F8C2F942F01308316D9
:102F1C000313C6070318C70A0030C7078316031329
:102F2C004E08803AFF0080307F02031D9F2F0D302A
:102F3C004D020318A22FA32FEA2F831603134D085B
:102F4C000A128A11A1250A168A1183120313450845
:102F5C00D9004408D8004308D7004208D60083168D
:102F6C0003134B0883120313DD00831603134A0863
:102F7C0083120313DC008316031349088312031313
:102F8C00DB0083160313480883120313DA000A16B6
:102F9C008A1174220A168A11831203135908831694
:102FAC000313CB0083120313580883160313CA00B0
:102FBC0083120313570883160313C90083120313D8
:102FCC00560883160313C800831603134708803A68
:102FDC00FF0080307F02031DF52F0A3046020318D4
:102FEC00FA2F0A128A1125280A128A1176280A1237
:042FFC008A119A2D6F
:1032EC00831603130F088F3940388F000F14080012
:1032FC0064008001840A04060319003404067F2943
:10330C008B170B17831603138C160C1783120313CE
:10331C000C130800F300831203130C1E9629972933
:10332C0091297308990008007608750474047304D5
:10333C000319A129A229A4298030F6060800F4005B
:10334C00F3013A3074020318AC29AD29B529303099
:10335C007402031CB229B329B529F301F30A730CC7
:10336C000800831603178901203088000330831668
:10337C00031386000710871085018801033089002C
:10338C0083120313850108008316031318121815F2
:10339C0083160317871519308316031399009A01A6
:1033AC008312031398171813181683160313981601
:1033BC000800831603139F131F129F12831203130B
:1033CC001F139F131F08C33914389F004230F3009A
:1033DC00F30BEE290000831203131F140800F600F0
:1033EC0083120313071076080A168A1500230A168F
:1033FC008A158312031387140B30F5006230F40026
:10340C00F40B062AF50B062A00008312031387100F
:10341C000800F50083120313071475080A168A15A1
:10342C0000230A168A158312031387141A30F4002A
:10343C00F40B1E2A00008312031387101A30F400B9
:10344C00F40B262A00000800831203131F0CF00053
:10345C00700C0F39053A031D342A352A3C2A1E08F4
:10346C00F000700883160313E100422A1E08F000D6
:10347C00700883160313E000831203130C13080067
:10348C00831203130C1F4B2A4C2A512A0A168A1535
:10349C002A220A168A15831203138C1E562A572ABF
:1034AC005C2A0A168A1563220A168A1572088A0083
:1034BC00710E8300FE0E7E0E09002B308312031357
:1034CC001A06031D6A2A6B2A732A2B3099000130C5
:1034DC00F000700883160313DF072D3083121A06D1
:1034EC00031D792A7A2A802A2D30990001308316FF
:1034FC000313DF020800F700F501F601962A7508A0
:10350C007707F4007408840000080A168A159021C5
:10351C000A168A150130F5070318F60A0030F6076B
:10352C0075087707F4007408840083130008031DE2
:10353C00A02AA12A852A0800F9007903031DA72ACD
:10354C00A82AB42A77087F3EF8007808FA007A088F
:10355C000A168A15F5210A168A15C52A023079062B
:10356C00031DB92ABA2AC52A7708BF3EF800780885
:10357C00FA007A080A168A15F5210A168A15080027
:10358C00730874040319CB2ACC2AFB2AF801F80A15
:10359C00DA2A01300310F30DF40DFF3E031DD02A7F
:1035AC000130F7007708F807F41FDD2ADE2ACF2A4E
:1035BC0074087602031DE42A73087502031CE72ABB
:1035CC00E82AEE2A7308F5027408031CF603F602C7
:1035DC0001300310F40CF30CFF3E031DEF2A0130F5
:1035EC00F802031DFA2AFB2ADE2A7608F400750875
:1035FC00F3000800F300731C042B052B092B83121A
:10360C00031308140C2B831203130810F31C0F2B39
:10361C00102B122B8814132B8810731D162B172BA1
:10362C00192B08151A2B0811F31D1D2B1E2B202BE3
:10363C008815212B8811731E242B252B272B08165C
:10364C00282B0812F31E2B2B2C2B2E2B88162F2BF2
:10365C008812731F322B332B352B0817362B08137C
:10366C00F31F392B3A2B3C2B88173D2B8813080062
:10367C0083120313CE003C30AB00A030AA00903074
:10368C00A9002E30A8004E08C600C701C801C90108
:10369C004908F6004808F5004708F4004608F3000E
:1036AC0001300A168A1544270A168A1576088312E1
:1036BC000313AF007508AE007408AD007308AC00BE
:1036CC000A128A153C210A168A15831203132B0839
:1036DC00CD002A08CC002908CB002808CA004D08C8
:1036EC00C5004C08C4004B08C3004A08C2000800BF
:1036FC0083120313A001A101A72B20087607F90060
:10370C007708F8000318F80AA01F8D2BF803780827
:10371C00FA007A0883120313FF00790884000A1652
:10372C008A1100200A168A150A168A150F220A1603
:10373C008A15013083120313A0070318A10A003065
:10374C00A10720087607F9007708F8000318F80A93
:10375C00A01FB12BF8037808FA007A088312031320
:10376C00FF00790884000A168A1100200A168A15AF
:10377C00003A031DC22BC32B832B080083120313A7
:10378C00A401A501200821040319CD2BCE2B052C57
:10379C00A601A60ADC2B01300310A00DA10DFF3EE3
:1037AC00031DD22B0130F9007908A607A11FDF2BCE
:1037BC00E02BD12B01300310A40DA50DFF3E031DF2
:1037CC00E12B21082302031DED2B20082202031CF0
:1037DC00F02BF12BF82B2008A2022108031CA303C9
:1037EC00A302241401300310A10CA00CFF3E031DF6
:1037FC00F92B0130A602031D042C052CE02B250807
:10380C00A1002408A000080000300A168A15002325
:10381C000A168A153430F800F130F700F70B142C27
:10382C00F80B142C192C3F300A168A15F5210A16A0
:10383C008A150D30F800FB30F700F70B232CF80B32
:10384C00232C282C3F300A168A15F5210A168A15C6
:10385C000230F9001E30F800B330F700F70B342CAF
:10386C00F80B342CF90B342C3B2C3F300A168A15F0
:10387C00F5210A168A1538300A168A15F5210A160A
:10388C008A150C300A168A15F5210A168A15063087
:10389C000A168A15F5210A168A15080000307305D8
:1038AC0083120313A00000307405A100803075054D
:1038BC00A2007F307605A3002308220421042004F3
:1038CC00031D692C6A2C722C0030F6000030F500B8
:1038DC000030F4000030F30000307705A000003019
:1038EC007805A10080307905A2007F307A05A3000D
:1038FC002308220421042004031D852C862C8E2CE5
:10390C000030FA000030F9000030F8000030F70009
:10391C007A087606031D9C2C79087506031D9C2CD1
:10392C0078087406031D9C2C7708730603199F2CCA
:10393C00A02CA22C0310A32C0314080076087504E9
:10394C00740473040319AB2CAC2CF12C83120313E9
:10395C00A101A10ABE2C0130A0000310F30DF40D3F
:10396C00F50DF60DA00BB32C0130A0002008A1071B
:10397C00F61FC12CC22CB12C76087A02031DD02C58
:10398C0075087902031DD02C74087802031DD02C05
:10399C0073087702031CD32CD42CE22C7308F70287
:1039AC007408031C740FF8027508031C750FF902D8
:1039BC007608031C760FFA0201300310F60CF50C96
:1039CC00F40CF30CFF3E031DE32C0130A102031D8C
:1039DC00F02CF12CC22C7A08F6007908F500780846
:1039EC00F4007708F3000800F901F61FFE2CFF2CF9
:1039FC00062DF509F609F50A0319F60AF901F90A73
:103A0C00F41F092D0A2D0F2DF309F409F30A0319DC
:103A1C00F40A730874040319142D152D442DF801A0
:103A2C00F80A232D01300310F30DF40DFF3E031D96
:103A3C00192D0130F7007708F807F41F262D272DD4
:103A4C00182D74087602031D2D2D73087502031CA6
:103A5C00302D312D372D7308F5027408031CF60335
:103A6C00F60201300310F40CF30CFF3E031D382D4D
:103A7C000130F802031D432D442D272D790803191D
:103A8C00482D492D4E2DF509F609F50A0319F60AAC
:103A9C007608F4007508F300080000308312031355
:103AAC00A4000030A3000030A2000030A100760872
:103ABC007504740473040319642D652DB22DA501CE
:103ACC00A50A752D0130A0000310F30DF40DF50DB2
:103ADC00F60DA00B6A2D0130A0002008A507F61FDB
:103AEC00782D792D682D0130A0000310A10DA20DA9
:103AFC00A30DA40DA00B7B2D76087A02031D902D2F
:103B0C0075087902031D902D74087802031D902D01
:103B1C0073087702031C932D942DA32D7308F702C1
:103B2C007408031C740FF8027508031C750FF90256
:103B3C007608031C760FFA02211401300310F60CE0
:103B4C00F50CF40CF30CFF3E031DA42D0130A50263
:103B5C00031DB12DB22D792D2408F6002308F50094
:103B6C002208F4002108F300080083120313A501B6
:103B7C00A11FC12DC22DC92DA009A109A00A03198D
:103B8C00A10AA501A50AA31FCC2DCD2DD62DA209C6
:103B9C00A309A20A0319A30A0130FA007A08A506A0
:103BAC00A601A701200821040319DD2DDE2D152EF9
:103BBC00A401A40AEC2D01300310A00DA10DFF3EB1
:103BCC00031DE22D0130FA007A08A407A11FEF2D86
:103BDC00F02DE12D01300310A60DA70DFF3E031DA6
:103BEC00F12D21082302031DFD2D20082202031CA8
:103BFC00002E012E082E2008A2022108031CA3036C
:103C0C00A302261401300310A10CA00CFF3E031DCF
:103C1C00092E0130A402031D142E152EF02D25089B
:103C2C000319192E1A2E1F2EA609A709A60A031965
:103C3C00A70A2708A1002608A00008000310831279
:103C4C000313570D580DD9005908DF005F08031DE9
:103C5C00302E312E3A2E0030D8000030D7000030F4
:103C6C00D6000030D5009F2E5508D9005608DA0032
:103C7C005708DB005808DC001F300310DC0CDB0C91
:103C8C00DA0CD90CFF3E031D432E5908DD005D08EC
:103C9C00DE00D717FF30D505FF30D605FF30D7052E
:103CAC000030D8059630DF02DF1F5D2E5E2E782E99
:103CBC005F08803A973E0318642E652E662E312ECF
:103CCC0001300310D80CD70CD60CD50CFF3E031DBD
:103CDC00672E0130D9005908DF07031D762E772E89
:103CEC00662E8F2E20305F02031C7D2E7E2E8A2E98
:103CFC00312E0130D9000310D50DD60DD70DD80DAE
:103D0C00D90B812E0130DF025F08031D8E2E8F2E02
:103D1C007F2E5E080319932E942E9F2ED509D6095B
:103D2C00D709D809D50A0319D60A0319D70A0319D2
:103D3C00D80A08000030730583120313A00000306A
:103D4C007405A10080307505A2007F307605A300B4
:103D5C002308220421042004031DB52EB62EBE2EEA
:103D6C000030F6000030F5000030F4000030F300B5
:103D7C0000307705A00000307805A100803079056F
:103D8C00A2007F307A05A30023082204210420041A
:103D9C00031DD12ED22EDA2E0030FA000030F9009D
:103DAC000030F8000030F700F61FDD2EDE2E022F5B
:103DBC000030A0000030A1000030A2008030A30031
:103DCC007308A0027408031C740FED2EEE2EA102D2
:103DDC007508031C750FF32EF42EA2027608031C33
:103DEC00760FF92EFA2EA3022308F6002208F5000E
:103DFC002108F4002008F300FA1F052F062F2A2FA4
:103E0C000030A0000030A1000030A2008030A300E0
:103E1C007708A0027808031C780F152F162FA10223
:103E2C007908031C790F1B2F1C2FA2027A08031C84
:103E3C007A0F212F222FA3022308FA002208F9005F
:103E4C002108F8002008F7008030F6068030FA06CA
:103E5C007A087602031D3C2F79087502031D3C2F4E
:103E6C0078087402031D3C2F7708730203183F2F48
:103E7C00402F422F0310432F031408008312031307
:103E8C00A000200803194B2F4C2F602FF61F4F2F2B
:103E9C00502F602F7309A2007409A3007509A400A8
:103EAC007609A500A20A0319A30A0319A40A031987
:103EBC00A50A682F7608A5007508A4007408A3004D
:103ECC007308A2007608750474047304031D6F2F25
:103EDC00702F792F0030F6000030F5000030F40020
:103EEC000030F300FF2F9630F7007708A1008B2FDE
:103EFC000130F7007708A10701300310A50CA40CC2
:103F0C00A30CA20CFF3E031D832FFE302505031DC1
:103F1C00902F912F7E2FAD2F0130F7007708A1073E
:103F2C000130A207003003180130A307003003183A
:103F3C000130A407003003180130A507013003102D
:103F4C00A50CA40CA30CA20CFF3E031DA52FFF3047
:103F5C002505031DB22FB32F922FBF2F0130A102C5
:103F6C000130F7000310A20DA30DA40DA50DF70B46
:103F7C00B82FA41BC22FC32FC92F02302102031844
:103F8C00C82FC92FB42F2118CC2FCD2FD52FFF30F0
:103F9C00A205FF30A3057F30A405FF30A505031053
:103FAC00A10C2108F700F801F901FA0118300310EF
:103FBC00F70DF80DF90DFA0DFF3E031DDD2F7708F7
:103FCC00A2047808A3047908A4047A08A50420089C
:103FDC000319F12FF22FF72FF61FF52FF62FF72FCE
:103FEC00A5172508F6002408F5002308F40022087C
:043FFC00F3000800C6
:04400E00D620FF3F7A
:00000001FF
