:020000040000FA
:060000000A128A110C280F
:10000800FE00030EF3000A08F4000A168A15672991
:100018000A128A110F28F8018313D8308400E730B8
:100028000A168A15A7200A128A11831790308400AD
:10003800A4300A168A15A7200A128A1183010A1207
:100048008A15272883160313500883120313A30065
:10005800831603134F0883120313A2008316031396
:100068004E0883120313A100831603134D0883124D
:100078000313A0000030A7000030A6000030A50040
:100088000030A4000A168A158B230A128A11031855
:100098004E284F283129831603135008831203135F
:1000A800DE00831603134F0883120313DD00831643
:1000B80003134E0883120313DC00831603134D0841
:1000C80083120313DB000A168A150B260A128A11FB
:1000D800831203135E085D045C045B04031D75282A
:1000E80076283129831603134C08803AFF008030A4
:1000F8007F02031D812802304B02031C84288528B7
:100108003129831603134A0883120313A3008316A5
:100118000313490883120313A20083160313480824
:1001280083120313A10083160313470883120313D2
:10013800A0004030A7008930A6007030A5005F30CD
:10014800A4000A168A11CA200A128A110318AD28B7
:10015800AE28B728F73083160313CB070318CC0A49
:10016800FF30CC07BF28F83083160313CB070318DA
:10017800CC0AFF30CC074B080A128A159D240A12B4
:100188008A11831203134B0883160313CA008312C0
:1001980003134A0883160313C9008312031349087B
:1001A80083160313C8008312031348088316031326
:1001B800C700500883120313A300831603134F08C4
:1001C80083120313A200831603134E08831203132A
:1001D800A100831603134D0883120313A00083168E
:1001E80003134A0883120313A7008316031349084D
:1001F80083120313A60083160313480883120313FC
:10020800A50083160313470883120313A4000A16D4
:100218008A116E210A128A11831203132308831686
:100228000313C20083120313220883160313C100A9
:1002380083120313210883160313C00083120313C8
:10024800200883160313BF000030D0000030CF0011
:100258000030CE000030CD00B329831603135008B8
:1002680083120313DE00831603134F08831203134C
:10027800DD00831603134E0883120313DC00831674
:1002880003134D0883120313DB000A168A150B2685
:100298000A128A11831203135E0883160313C2001D
:1002A800831203135D0883160313C100831203131B
:1002B8005C0883160313C000831203135B088316BC
:1002C8000313BF00420883120313A300831603130A
:1002D800410883120313A2008316031340088312F4
:1002E8000313A100831603133F0883120313A0000E
:1002F80000300A168A1587260A128A1183120313F8
:10030800230883160313A3008312031322088316FA
:100318000313A20083120313210883160313A100F9
:1003280083120313200883160313A0005008A700A4
:100338004F08A6004E08A5004D08A4000A168A1505
:10034800DB230A128A11831603132308D00022081C
:10035800CF002108CE002008CD00CB01CC01D4016C
:10036800D40A5408B50001300310B50DFF3E031D33
:10037800B8290310350D693E84000A168A110A202F
:100388000A128A11B6000A168A110A200A128A115C
:10039800B7000A168A110A200A128A11B8000A162A
:1003A8008A110A200A128A11B90039084202031D6B
:1003B800E72938084102031DE72937084002031DD1
:1003C800E72936083F020318EA29EB29EC29F62920
:1003D8000130B5003508D4070A305406031DF52945
:1003E800F629B52954085207B50053080318530ACB
:1003F800B6004B083507B7004C0803184C0A3607F7
:10040800B8003708C5023808031CC603C6025208DC
:1004180053040319102A112A172AFF30C507031895
:10042800C60AFF30C60703304305B500003044054F
:10043800B600350836040319222A232A382AFF3041
:10044800C5070318C60AFF30C607382A20308316A6
:100458000313B50051088400350883178000013064
:10046800B5003508D107232A4608803AFF008030B6
:100478007F02031D412A013045020318442A452AF8
:100488002A2A0330831603134305B50000304405B8
:10049800B600350836040319522A532A052B2D3085
:1004A800B500510884003508831780000130B50075
:1004B8003508D107052B5408B50001300310B50DD8
:1004C800FF3E031D622A0310350D693E84000A169B
:1004D8008A110A200A128A1183120313A0000A162D
:1004E8008A110A200A128A11A1000A168A110A2002
:1004F8000A128A11A2000A168A110A200A128A11FF
:10050800A30083160313420883120313A70083165C
:100518000313410883120313A6008316031340082C
:1005280083120313A500831603133F0883120313D2
:10053800A4000A168A153A250A128A11831203138F
:10054800230883160313CA00831203132208831691
:100558000313C90083120313210883160313C80069
:1005680083120313200883160313C7000030831275
:100578000313A3000030A2000030A1000A30A0003D
:10058800831603134A0883120313A7008316031361
:10059800490883120313A60083160313480883121D
:1005A8000313A50083160313470883120313A4003B
:1005B8000A168A152B240A128A1183120313230898
:1005C80083160313CA008312031322088316031326
:1005D800C90083120313210883160313C80083126A
:1005E8000313200883160313C7004708303EB500DD
:1005F800510884003508831780000130B50035089C
:10060800D1070130D402540A031D0B2B0C2B5F2A8F
:10061800202B303083160313B500510884003508A9
:10062800831780000130B5003508D107FF30CB07AC
:100638000318CC0AFF30CC074C08803AFF00803002
:100648007F02031D292B01304B0203182C2B2D2B65
:100658000D2B831603135308803AFF0080307F0266
:10066800031D382B09305202031C3B2B3C2B432B18
:10067800083083160313B5003508D400492B8316B8
:1006880003135208B5003508D4005408B500B60164
:100698003508D2023608031CD303D30254080319C1
:1006A800562B572B622B2E30B50051088400350885
:1006B800831780000130B5003508D10754080A12A5
:1006C8008A159D240A128A11831203134B08831674
:1006D8000313BD00831203134A0883160313BC00D7
:1006E80083120313490883160313BB0083120313F1
:1006F800480883160313BA003D0883120313B50094
:10070800831603133C0883120313B40083160313E0
:100718003B0883120313B300831603133A088312AA
:100728000313B20083160313500883120313B10096
:10073800831603134F0883120313B00083160313A1
:100748004E0883120313AF00831603134D08831258
:100758000313AE000A128A153C210A128A11831269
:1007680003133108DE003008DD002F08DC002E08F6
:10077800DB000A168A150B260A128A118312031344
:100788005E0883160313C200831203135D088316E1
:100798000313C100831203135C0883160313C000FC
:1007A800831203135B0883160313BF00DC2C540861
:1007B800B50001300310B50DFF3E031DDE2B0310FD
:1007C800350D693E84000A168A110A200A128A1118
:1007D80083120313A0000A168A110A200A128A112A
:1007E800A1000A168A110A200A128A11A2000A1602
:1007F8008A110A200A128A11A300831603134208D9
:1008080083120313A70083160313410883120313EB
:10081800A60083160313400883120313A50083164A
:1008280003133F0883120313A4000A168A153A25F6
:100838000A128A1183120313230883160313CA00AA
:1008480083120313220883160313C90083120313A8
:10085800210883160313C800831203132008831684
:100868000313C700003083120313A3000030A20053
:100878000030A1000A30A000831603134A0883122F
:100888000313A70083160313490883120313A60052
:1008980083160313480883120313A5008316031352
:1008A800470883120313A4000A168A152B240A1278
:1008B8008A1183120313230883160313CA008312B1
:1008C8000313220883160313C90083120313210894
:1008D80083160313C8008312031320088316031317
:1008E800C7004708303EB500510884003508831713
:1008F80080000130B5003508D1075408B500013033
:100908000310B50DFF3E031D842C0310350D693E01
:1009180084000A168A110A200A128A118312031304
:10092800A0000A168A110A200A128A11A1000A16C2
:100938008A110A200A128A11A2000A168A110A20AC
:100948000A128A11A30083160313420883120313A1
:10095800A70083160313410883120313A600831606
:100968000313400883120313A500831603133F08DB
:1009780083120313A4000A168A152B240A128A115B
:1009880083120313230883160313C200831203136D
:10099800220883160313C100831203132108831648
:1009A8000313C00083120313200883160313BF0028
:1009B8000130D402540A031DE22CE32CDB2BF52C66
:1009C8003030B500510884003508831780000130A5
:1009D800B5003508D107FF30D2070318D30AFF3016
:1009E800D30752085304031DFA2CFB2CE42CC12D09
:1009F80052085304031D012D022D102D42084104F5
:100A080040043F04031D092D0A2D102D0130D20783
:100A18000318D30A0030D3075308803A803C031DDB
:100A2800172D5208540203181A2D1B2D222D831638
:100A380003135208B5003508D4003A2D8316031362
:100A48005308803AB50080303502031D2D2D540817
:100A580052020318302D312D3A2D831603135408F2
:100A6800B500B6013508D2003608D3008316031343
:100A7800450846040319412D422D542D03304305E2
:100A8800B50000304405B6003508360403194D2D6D
:100A98004E2D542DFF30C5070318C60AFF30C60770
:100AA800441F572D582D732D5308803AB50046081A
:100AB800803A3502031D622D450852020318652D40
:100AC800662D6F2D831603135208C5025308031CA5
:100AD800C603C602732D83160313C501C601460853
:100AE800803A803C031D7A2D4508540203187D2D59
:100AF8007E2D8A2D831603135408B500B6013508D8
:100B0800C5023608031CC603C6028E2D83160313BE
:100B1800C501C601450846040319932D942DAB2D34
:100B28002030B50051088400350883178000013053
:100B3800B5003508D107FF30C5070318C60AFF30CE
:100B4800C60745084604031DAA2DAB2D942D033076
:100B58004305B50000304405B600350836040319CE
:100B6800B62DB72DC12D2D30B5005108840035089C
:100B7800831780000A168A11CB2C0130A807FF3092
:100B8800280784000A168A110A200A128A11B50059
:100B98003508D4005408031DD22DD52D0A168A1104
:100BA800BE2C5108840083178001080083120313A8
:100BB800DB006E305B02031CE22DE32DF22E3F308A
:100BC800B1000030B0000030AF000030AE0064303B
:100BD800A4000030A5005B08CC00CD014C08A6009D
:100BE8004D08A7000A168A15F8220A128A118312DC
:100BF80003132408CE0001300310CE0DFF3E031D61
:100C0800002E03104E0D7D3E84000A168A110A201C
:100C18000A128A11CF000A168A110A200A128A11AA
:100C2800D0000A168A110A200A128A11D1000A165F
:100C38008A110A200A128A11D2005208B5005108F6
:100C4800B4005008B3004F08B2000A128A153C21BC
:100C58000A128A11831203133108DA003008D90006
:100C68002F08D8002E08D7000A30A4000030A500AD
:100C78005B08CC00CD014C08A2004D08A3006430ED
:100C8800A0000030A1000A168A15F8210A128A115C
:100C9800831203132108A7002008A6000A168A1544
:100CA800F8220A128A11831203132408CE00013095
:100CB8000310CE0DFF3E031D5C2E03104E0D593E52
:100CC80084000A168A110A200A128A11CF000A160D
:100CD8008A110A200A128A11D0000A168A110A20DB
:100CE8000A128A11D1000A168A110A200A128A11D8
:100CF800D2005208B1005108B0005008AF004F08A8
:100D0800AE005A08B5005908B4005808B30057088F
:100D1800B2000A128A153C210A128A11831203139F
:100D28003108D6003008D5002F08D4002E08D3008B
:100D38000A30A0000030A1005B08CC00CD014C08AF
:100D4800A2004D08A3000A168A15F8210A128A1172
:100D5800831203132008CE0001300310CE0DFF3E8E
:100D6800031DB12E03104E0D353E84000A168A115C
:100D78000A200A128A11CF000A168A110A200A12BA
:100D88008A11D0000A168A110A200A128A11D10083
:100D98000A168A110A200A128A11D2005208B100D2
:100DA8005108B0005008AF004F08AE005608B50013
:100DB8005508B4005408B3005308B2000A128A1543
:100DC8003C210A128A11831203133108CB00300820
:100DD800CA002F08C9002E08C800E62F0B305B0296
:100DE800031CF72EF82EA32F3F30B1000030B000BF
:100DF8000030AF000030AE000A30A4000030A5007B
:100E08005B08CC00CD014C08A6004D08A7000A16C7
:100E18008A15F8220A128A11831203132408CE00B5
:100E280001300310CE0DFF3E031D152F03104E0D8C
:100E3800593E84000A168A110A200A128A11CF0024
:100E48000A168A110A200A128A11D0000A168A1173
:100E58000A200A128A11D1000A168A110A200A12D7
:100E68008A11D2005208B5005108B4005008B300E6
:100E78004F08B2000A128A153C210A128A118312FD
:100E880003133108DA003008D9002F08D8002E08DB
:100E9800D7000A30A0000030A1005B08CC00CD01CB
:100EA8004C08A2004D08A3000A168A15F8210A1258
:100EB8008A11831203132008CE0001300310CE0DCF
:100EC800FF3E031D622F03104E0D353E84000A16A7
:100ED8008A110A200A128A11CF000A168A110A20DA
:100EE8000A128A11D0000A168A110A200A128A11D7
:100EF800D1000A168A110A200A128A11D200520851
:100F0800B1005108B0005008AF004F08AE005A08B1
:100F1800B5005908B4005808B3005708B2000A12BF
:100F28008A153C210A128A11831203133108CB0057
:100F38003008CA002F08C9002E08C800E62F3F3025
:100F4800B1000030B0000030AF000030AE005B08E8
:100F5800CC0001300310CC0DFF3E031DAE2F031053
:100F68004C0D353E84000A168A110A200A128A118D
:100F7800CD000A168A110A200A128A11CE000A1612
:100F88008A110A200A128A11CF000A168A110A2029
:100F98000A128A11D0005008B5004F08B4004E0854
:100FA800B3004D08B2000A128A153C210A128A11B0
:100FB800831203133108CB003008CA002F08C90078
:100FC8002E08C8000800831603139F131F129F12D0
:100FD800831203131F139F131F08C33914389F006C
:100FE8004230F500F50BF62F0000831203131F148F
:020FF8000800EF
:10100000F501F60183120313201C072808280E2877
:101010002208F5070318F60A2308F6070130031023
:10102000A20DA30DFF3E031D0F2801300310A10CDC
:10103000A00CFF3E031D162820082104031D2128B3
:10104000222802287608A1007508A00008000A16C8
:101050008A15DD200A128A150A168A159F200A129F
:101060008A150A168A15AF200A128A150A128A11E1
:10107000E7270A128A150A168A1501210A128A150B
:101080000A168A153E230A128A15831203139F1427
:101090000A168A15C3200A128A1583120313A101A6
:1010A000A10A01300A168A15A9210A128A15A6304A
:1010B00083120313A0008030A1000A168A15B22201
:1010C0000A128A158316031366080A168A157222F5
:1010D0000A128A15831203134B0883160313E300C5
:1010E000831203134A0883160313E20083120313C7
:1010F000490883160313E10083120313480883167B
:101100000313E00065080A168A1572220A128A156E
:10111000831203134B0883160313DF008312031398
:101120004A0883160313DE0083120313490883164B
:101130000313DD0083120313480883160313DC0036
:1011400000300A168A1572220A128A1583120313B6
:101150004B0883160313DB00831203134A0883161C
:101160000313DA0083120313490883160313D9000B
:1011700083120313480883160313D8008312031342
:10118000A101A10A02300A168A15A9210A128A159C
:10119000913083160313D5005508A8006308AC00EE
:1011A0006208AB006108AA006008A9005F08B000EF
:1011B0005E08AF005D08AE005C08AD005B08B400DF
:1011C0005A08B3005908B2005808B1009A300A16FC
:1011D0008A11B4240A128A159A3083120313A000CC
:1011E0000130A1000A168A15B2220A128A150C30A3
:1011F0008312031399009A300A168A1584210A1261
:101200008A15023083160313D7000430D600B93094
:10121000D500D50B0929D60B0929D70B0929102987
:10122000831203139F181529162948281F0C8316AB
:101230000313D500550C0F39053A031D2029212928
:101240002829831203131F08C33918389F002E2939
:10125000831203131F08C33914389F0020308316EC
:101260000313D500D50B32290000831203139F14FA
:1012700048280A128A110C28831203133108803976
:10128000B6003608BB003108B6003607B70037088D
:10129000C100B01F4C294D294E29411441080319A2
:1012A000522953296229410A031D572958296029C7
:1012B0000030B1000030B0000030AF000030AE00B0
:1012C000B0176A290030B1000030B0000030AF0024
:1012D0000030AE0035088039B6003608BB06350848
:1012E000B6003607B7003708BC00B41F7829792943
:1012F0007A293C143C0803197E297F298E293C0A4F
:10130000031D832984298C290030B5000030B400E6
:101310000030B3000030B200B41796290030B50099
:101320000030B4000030B3000030B2003C080319B4
:101330009A299B29A0294108031D9F29A029A92991
:101340000030B1000030B0000030AF000030AE001F
:101350009C2C2E08B6003608F50034080A168A15AB
:10136000CF210A128A15760883120313C700750865
:10137000C6004608B600B701B801B9013908C00077
:101380003808BF003708BE003608BD004708B60061
:10139000B701B801B9013908C5003808C4003708D9
:1013A000C3003608C2002F08B6003608F50033081F
:1013B0000A168A15CF210A128A157608831203139A
:1013C000C7007508C6004608B600B701B801B901E4
:1013D0003608BD07370803110318013E0319F12928
:1013E000BE07380803110318013E0319F829BF0787
:1013F000390803110318013E0319FF29C0074708E4
:10140000B600B701B801B9013608C20737080311A1
:101410000318013E03190D2AC307380803110318E6
:10142000013E0319142AC407390803110318013EA9
:1014300003191B2AC5073008B6003608F500320824
:101440000A168A15CF210A128A1576088312031309
:10145000C7007508C6004608B600B701B801B90153
:101460003608BD07370803110318013E0319392A4E
:10147000BE07380803110318013E0319402ABF07AD
:10148000390803110318013E0319472AC00747080A
:10149000B600B701B801B9013608C2073708031111
:1014A0000318013E0319552AC3073808031103180E
:1014B000013E03195C2AC407390803110318013ED1
:1014C0000319632AC5070830B6000310BD0DBE0D11
:1014D000BF0DC00DB60B652A2F08B6003608F50003
:1014E00032080A168A15CF210A128A157608831245
:1014F0000313C7007508C6004608B6004708B700C2
:10150000B801B9013608BD07370803110318013EB9
:1015100003198B2ABE07380803110318013E03196B
:10152000922ABF07390803110318013E0319992AAB
:10153000C0072E08B6003608F50033080A168A15CB
:10154000CF210A128A15760883120313C700750883
:10155000C6004608B6004708B700B801B90136080A
:10156000BD07370803110318013E0319B82ABE0747
:10157000380803110318013E0319BF2ABF073908B1
:1015800003110318013E0319C62AC0070830B6002C
:101590000310BD0DBE0DBF0DC00DB60BC82A2E0821
:1015A000B6003608F50032080A168A15CF210A124D
:1015B0008A15760883120313C7007508C60046080B
:1015C000B6004708B700B801B9013608BD073708AB
:1015D00003110318013E0319EE2ABE073808031150
:1015E0000318013E0319F52ABF0739080311031830
:1015F000013E0319FC2AC0072F08B6003608F50083
:1016000034080A168A15CF210A128A157608831221
:101610000313C7007508C6004608B6004708B700A0
:10162000B801B9013608C207370803110318013E93
:1016300003191B2BC307380803110318013E0319B4
:10164000222BC407390803110318013E0319292B63
:10165000C5073008B6003608F50033080A168A15A3
:10166000CF210A128A15760883120313C700750862
:10167000C6004608B6004708B700B801B9013608E9
:10168000C207370803110318013E0319482BC3078B
:10169000380803110318013E03194F2BC4073908FA
:1016A00003110318013E0319562BC5073008B60075
:1016B0003608F50034080A168A15CF210A128A1551
:1016C000760883120313C7007508C6004608B600E3
:1016D0004708B700B801B90108300310B60DB70DBF
:1016E000B80DB90DFF3E031D6D2B3608C207370834
:1016F00003110318013E03197E2BC3073808031199
:101700000318013E0319852BC40739080311031878
:10171000013E03198C2BC5073D08B6003E08B700F3
:101720003F08B8004008B90018300310B90CB80CD5
:10173000B70CB60CFF3E031D952B3608C2073708C1
:1017400003110318013E0319A62BC3073808031120
:101750000318013E0319AD2BC40739080311031800
:10176000013E0319B42BC5070830B6000310BD0DA8
:10177000BE0DBF0DC00DB60BB62B41083C07B60021
:10178000B701B70D3608823EC60037080318013E80
:10179000FF3EC700E82B0130B6000310C20DC30D99
:1017A000C40DC50DB60BCD2BC01FD72BD82BD92BF5
:1017B00042140130B6000310BD0DBE0DBF0DC00DAB
:1017C000B60BDB2BFF30C6070318C70AFF30C7076D
:1017D000C41FEB2BEC2BCB2BBC01C01FF02BF12B30
:1017E0000D2CFF303D05B600FF303E05B700FF3041
:1017F0003F05B8007F304005B90039083804370488
:1018000036040319042C052C082CBC01BC0A0D2C31
:10181000421C0B2C0C2C0D2C052C3C080319112CF4
:10182000122C432C0130C207003003180130C307CB
:10183000003003180130C407003003180130C50719
:10184000451C232C242C432C4208B6004308B70027
:101850004408B8004508B9000130BA00390DB90C88
:10186000B80CB70CB60CBA0B2E2C3908C5003808CA
:10187000C4003708C3003608C2000130C607031889
:10188000C70A0030C7074708803AFF0080307F0250
:10189000031D4C2CFF304602031C4F2C502C5B2C9C
:1018A0007F3083120313C5008030C4000030C300B2
:1018B0000030C200902C831203134708803AFF00C7
:1018C00080307F02031D662C013046020318692C0C
:1018D0006A2C762C003083120313C5000030C4003C
:1018E0000030C3000030C200BB01902C83120313F0
:1018F0004608B6003608C100FF30C205FF30C305F8
:101900007F30C4050030C505411C872C882C892CEC
:10191000C4174108B6000310360CB7003708C500DD
:101920003B08B6003608C5044508B1004408B000BD
:101930004308AF004208AE00080083120313DA0028
:10194000DA1FA32CA42C532EDA09DA0A5A08803A9B
:10195000123E031CAC2CAD2C972D0A30A400003095
:10196000A5005A08A200A301A21BA3036430A00093
:101970000030A1000A168A1581240A128A158312E2
:1019800003132108A7002008A6000A168A15A2251D
:101990000A128A15831203132408CC0001300310A5
:1019A000CC0DFF3E031DCF2C03104C0D593E84007F
:1019B0000A168A110A200A128A15CD000A168A11FF
:1019C0000A200A128A15CE000A168A110A200A1263
:1019D0008A15CF000A168A110A200A128A15D00029
:1019E0005008B1004F08B0004E08AF004D08AE00DF
:1019F0006430A4000030A5005A08A600A701A61B69
:101A0000A7030A168A15A2250A128A158312031340
:101A10002408D10001300310D10DFF3E031D0B2D12
:101A20000310510D7D3E84000A168A110A200A1205
:101A30008A15D2000A168A110A200A128A15D300C2
:101A40000A168A110A200A128A15D4000A168A1167
:101A50000A200A128A15D5005508B5005408B400AA
:101A60005308B3005208B2000A128A153C210A1228
:101A70008A15831203133108D9003008D8002F08C3
:101A8000D7002E08D6000A30A0000030A1005A0866
:101A9000A200A301A21BA3030A168A1581240A121D
:101AA0008A15831203132008CC0001300310CC0DDB
:101AB000FF3E031D562D03104C0D353E84000A16C3
:101AC0008A110A200A128A15CD000A168A110A20E4
:101AD0000A128A15CE000A168A110A200A128A15DD
:101AE000CF000A168A110A200A128A15D00050085F
:101AF000B1004F08B0004E08AF004D08AE005908C5
:101B0000B5005808B4005708B3005608B2000A12CE
:101B10008A153C210A128A15831203133108CB005F
:101B20003008CA002F08C9002E08C800FF2F5A0825
:101B3000803A753E031C9D2D9E2D262E0A30A00056
:101B40000030A1005A08A200A301A21BA3030A1699
:101B50008A1581240A128A15831203132008CC00E7
:101B600001300310CC0DFF3E031DB12D03104C0DB1
:101B7000353E84000A168A110A200A128A15CD0001
:101B80000A168A110A200A128A15CE000A168A112C
:101B90000A200A128A15CF000A168A110A200A1290
:101BA0008A15D0005008B1004F08B0004E08AF00B1
:101BB0004D08AE000A30A4000030A5005A08A60067
:101BC000A701A61BA7030A168A15A2250A128A15C1
:101BD000831203132408D10001300310D10DFF3EFE
:101BE000031DED2D0310510D593E84000A168A1174
:101BF0000A200A128A15D2000A168A110A200A122D
:101C00008A15D3000A168A110A200A128A15D400EE
:101C10000A168A110A200A128A15D5005508B5003D
:101C20005408B4005308B3005208B2000A128A15CF
:101C30003C210A128A15831203133108CB003008A5
:101C4000CA002F08C9002E08C800FF2F5A08CC0070
:101C500001300310CC0DFF3E031D292E03104C0D47
:101C6000353E84000A168A110A200A128A15CD0010
:101C70000A168A110A200A128A15CE000A168A113B
:101C80000A200A128A15CF000A168A110A200A129F
:101C90008A15D0005008CB004F08CA004E08C90072
:101CA0004D08C800FF2F5A08803A123E031C592ED7
:101CB0005A2E442F0A30A4000030A5005A08A20072
:101CC000A301A21BA3036430A0000030A1000A16E8
:101CD0008A1581240A128A15831203132108A7008A
:101CE0002008A6000A168A15A2250A128A15831250
:101CF00003132408CC0001300310CC0DFF3E031D5C
:101D00007C2E03104C0D253E84000A168A110A20F1
:101D10000A128A15CD000A168A110A200A128A159B
:101D2000CE000A168A110A200A128A15CF000A1656
:101D30008A110A200A128A15D0005008B1004F08F3
:101D4000B0004E08AF004D08AE006430A400003073
:101D5000A5005A08A600A701A61BA7030A168A1504
:101D6000A2250A128A15831203132408D100013018
:101D70000310D10DFF3E031DB82E0310510D493E37
:101D800084000A168A110A200A128A15D2000A163D
:101D90008A110A200A128A15D3000A168A110A200B
:101DA0000A128A15D4000A168A110A200A128A1504
:101DB000D5005508B5005408B4005308B3005208C4
:101DC000B2000A128A153C210A128A1583120313E3
:101DD0003108D9003008D8002F08D7002E08D600C7
:101DE0000A30A0000030A1005A08A200A301A21BE3
:101DF000A3030A168A1581240A128A158312031373
:101E00002008CC0001300310CC0DFF3E031D032F32
:101E100003104C0D013E84000A168A110A200A1292
:101E20008A15CD000A168A110A200A128A15CE00D8
:101E30000A168A110A200A128A15CF000A168A1178
:101E40000A200A128A15D0005008B1004F08B000CD
:101E50004E08AF004D08AE005908B5005808B40050
:101E60005708B3005608B2000A128A153C210A121C
:101E70008A15831203133108CB003008CA002F08DB
:101E8000C9002E08C800FF2F5A08803A753E031C6F
:101E90004A2F4B2FD32F0A30A0000030A1005A0840
:101EA000A200A301A21BA3030A168A1581240A1209
:101EB0008A15831203132008CC0001300310CC0DC7
:101EC000FF3E031D5E2F03104C0D013E84000A16D9
:101ED0008A110A200A128A15CD000A168A110A20D0
:101EE0000A128A15CE000A168A110A200A128A15C9
:101EF000CF000A168A110A200A128A15D00050084B
:101F0000B1004F08B0004E08AF004D08AE000A30D7
:101F1000A4000030A5005A08A600A701A61BA7032D
:101F20000A168A15A2250A128A1583120313240899
:101F3000D10001300310D10DFF3E031D9A2F031075
:101F4000510D253E84000A168A110A200A128A15AC
:101F5000D2000A168A110A200A128A15D3000A161C
:101F60008A110A200A128A15D4000A168A110A2038
:101F70000A128A15D5005508B5005408B400530854
:101F8000B3005208B2000A128A153C210A128A15BF
:101F9000831203133108CB003008CA002F08C90090
:101FA0002E08C800FF2F5A08CC0001300310CC0DBA
:101FB000FF3E031DD62F03104C0D013E84000A1670
:101FC0008A110A200A128A15CD000A168A110A20DF
:101FD0000A128A15CE000A168A110A200A128A15D8
:101FE000CF000A168A110A200A128A15D00050085A
:101FF000CB004F08CA004E08C9004D08C8000800B1
:10200000FF1B0A2883137F1883170008840A03190B
:10201000FF0A080010308A000408840A820700348E
:102020000034003480343F340034003420344134F0
:1020300000340034C8344234003400347A34443438
:10204000003440341C34463400345034C3344734F4
:1020500000342434743449348034963418344B3486
:102060002034BC34BE344C3428346B346E344E349B
:10207000F934023415345034EC347834AD346034EF
:10208000CA34F234493471340034003480343F347B
:10209000CD34CC34CC343D340A34D73423343C34BE
:1020A0006F34123483343A341734B734D13438347B
:1020B000AC34C53427343734BD3437348634353402
:1020C0009534BF34D63433347734CC342B34323473
:1020D0005F34703489343034FF34E634DB342E34EA
:1020E0000834E5343C341E3460344234A2340D34B8
:1020F00001340034003400340A3400340034003435
:102100006434003400340034E834033400340034E0
:102110001034273400340034A034863401340034C1
:10212000403442340F3400348034963498340034D0
:102130000034E134F53405340034CA349A343B3485
:10214000253433342E343134663456342034253437
:1021500033342E3432346634563420342534333418
:102160002E3432346634563400342034533431340F
:102170003A34203420342034533432343A34203446
:0E2180002034533433343A34203420340034C5
:102194000030831203132005A80000302105A90094
:1021A40080302205AA007F302305AB002B082A04C7
:1021B40029042804031DDF28E028E8280030A300B0
:1021C4000030A2000030A1000030A000003024053F
:1021D400A80000302505A90080302605AA007F301C
:1021E4002705AB002B082A0429042804031DFB2817
:1021F400FC2804290030A7000030A6000030A50008
:102204000030A400A31F072908292C290030A800A6
:102214000030A9000030AA008030AB002008A802DA
:102224002108031C210F17291829A9022208031CBD
:10223400220F1D291E29AA022308031C230F232968
:102244002429AB022B08A3002A08A2002908A10014
:102254002808A000A71F2F29302954290030A800DE
:102264000030A9000030AA008030AB002408A80286
:102274002508031C250F3F294029A9022608031C11
:10228400260F45294629AA022708031C270F4B2994
:102294004C29AB022B08A7002A08A6002908A50090
:1022A4002808A4008030A3068030A706270823024C
:1022B400031D662926082202031D6629250821021A
:1022C400031D662924082002031869296A296C2938
:1022D40003106D2903140800031083120313220D45
:1022E400230DF5007508AD002D08031D7A297B29FF
:1022F40084290030A3000030A2000030A100003087
:10230400A0002B2A0310260D270DF5007508AC003C
:102314002C08031D8E298F2990297B29A217FF30B1
:10232400A005FF30A105FF30A2050030A305A617C4
:10233400FF30A405FF30A505FF30A6050030A70532
:102344000030AB000030AA000030A9000030A80023
:102354007F30AD02A0302C07F5007508AD022030A7
:10236400F5007508AC000130F5000310A80DA90DA7
:10237400AA0DAB0DF50BB72927082302031DCC29A1
:1023840026082202031DCC2925082102031DCC297D
:1023940024082002031CCF29D029DF292408A00205
:1023A4002508031C250FA1022608031C260FA202E0
:1023B4002708031C270FA30228140130F50003107B
:1023C400A00DA10DA20DA30DF50BE1290130AC0266
:1023D400031DED29EE29B529AD1FF129F2290C2A97
:1023E4002D08803A9F3E0318F829F929FA297B29F8
:1023F40001300310AB0CAA0CA90CA80CFF3E031D62
:10240400FB290130F5007508AD07031D0A2A0B2AC4
:10241400FA29232A20302D02031C112A122A1E2AEB
:102424007B290130F5000310A80DA90DAA0DAB0DF1
:10243400F50B152A0130AD022D08031D222A232A8B
:10244400132A2B08A3002A08A2002908A10028089F
:10245400A0000800831203135F088039E4006408B5
:10246400EC005F08E4006407E5006508EE00DE1F89
:102474003C2A3D2A3E2A6E146E080319422A432A36
:10248400532A6E0A031D472A482A502A0030DF00C7
:102494000030DE000030DD000030DC00DE17DF013C
:1024A4005B2A0030DF000030DE000030DD00003049
:1024B400DC0063088039E4006408ED006D086C06F4
:1024C4000319652A662A672A6C176308E4006407FF
:1024D400E5006508ED00E21F702A712A722A6D1466
:1024E4006D080319762A772A872A6D0A031D7B2A29
:1024F4007C2A842A0030E3000030E2000030E1004E
:102504000030E000E217E3018F2A0030E3000030DE
:10251400E2000030E1000030E0006E086D020318B4
:10252400942A952AD92A6C1F982A992A9D2A8030A0
:10253400E4006408EC066E08E4006408EF006D082B
:10254400E4006408EE006F08E4006408ED005C0831
:10255400E4006408EF006008E4006408DC006F082D
:10256400E4006408E0005D08E4006408EF0061082A
:10257400E4006408DD006F08E4006408E1005E081C
:10258400E4006408EF006208E4006408DE006F08F9
:10259400E4006408E2005F08E4006408EF006308F4
:1025A400E4006408DF006F08E4006408E300EF015E
:1025B4006D08E400E5016508E7006E086402E600C2
:1025C400031CE7036708803AFF0080307F02031D85
:1025D400ED2A1A306602031CF02AF12A2E2B8312EC
:1025E40003135F085E045D045C04031DFA2AFC2ADD
:1025F4000130FD2A0030E4006408EF000030DF0001
:102604000030DE000030DD000030DC006D08E40046
:102614006408EE00362B6F1C102B112B1A2B6F083D
:10262400E4000310640C0138E5006508EF001C2B7E
:102634000310EF0C5C1C1F2B202B212BEF170130F8
:10264400E4005F0DDF0CDE0CDD0CDC0CE40B232B53
:102654000130E4006408EE07831203136D086E0270
:10266400031C352B362B0D2B6C1B392B3A2B852B4E
:102674006E08031D3E2B3F2B482B0030DF0000303B
:10268400DE000030DD000030DC00B32C6008DC0725
:10269400610803110318013E0319512BDD07620879
:1026A40003110318013E0319582BDE0763080311B5
:1026B4000318013E03195F2BDF075F1C622B632B9A
:1026C400392C6F1C662B672B702B6F08E4000310EA
:1026D400640C0138E5006508EF00722B0310EF0C61
:1026E4005C1C752B762B772BEF170130E4005F0D04
:1026F400DF0CDE0CDD0CDC0CE40B792B0130E40088
:102704006408EE07392C5F08803AFF006308803ABA
:102714007F02031D972B62085E02031D972B61083D
:102724005D02031D972B60085C0203189A2B9B2BF8
:10273400F32BFF30E400FF30E500FF30E600FF300C
:10274400E7006008E8006108E9006208EA0063083D
:10275400EB005C08E8025D08031C5D0FB22BB32B91
:10276400E9025E08031C5E0FB82BB92BEA025F086E
:10277400031C5F0FBE2BBF2BEB026808E40769083C
:102784000318690FC62BC72BE5076A0803186A0FDD
:10279400CC2BCD2BE6076B0803186B0AE7076708F9
:1027A400DF006608DE006508DD006408DC008030B8
:1027B400E4006408EC06EF09EF0A6F08031DE32B3D
:1027C400E42B012C0130DC07003003180130DD0755
:1027D400003003180130DE07003003180130DF0732
:1027E400012C6008DC026108031C610FDD02620831
:1027F400031C620FDE026308031C630FDF025F0821
:102804005E045D045C04031D082C092C352C6F0840
:10281400031D0D2C0E2C352C0030DF000030DE00A3
:102824000030DD000030DC00B32C0130E400031084
:10283400DC0DDD0DDE0DDF0DE40B192CEF1F232C59
:10284400242C252C5C146F1C282C292C2C2C0314D0
:10285400EF0D2E2C0310EF0D6E080319322C332CC0
:10286400352C0130EE02DE1F382C392C172CED01EB
:10287400EF1F3D2C3E2C4C2C6F087F390319432C41
:10288400442C472CED01ED0A4C2C5C1C4A2C4B2C9F
:102894004C2C442C6D080319502C512C852C0130E0
:1028A400DC07003003180130DD0700300318013065
:1028B400DE07003003180130DF075F1C622C632C35
:1028C400852C5C08E4005D08E5005E08E6005F080E
:1028D400E7000130E800670DE70CE60CE50CE40CBA
:1028E400E80B6D2C6708DF006608DE006508DD0074
:1028F4006408DC006E0A0319802C812C852C0130BD
:10290400E4006408EE076E0A0319892C8A2C8F2CC4
:102914006E08031D8E2C8F2C9D2C0030DF000030A0
:10292400DE000030DD000030DC006E08031D9B2C4F
:102934009C2C9D2CEC016E1CA02CA12CA32CDE172E
:10294400A72C7F30E4006408DE056E08E400031061
:10295400640CE5006508DF00EC1FB12CB22CB32C2D
:10296400DF17080083160313D100A930B50035081A
:10297400BE000A128A11C12D253054060319C32C36
:10298400C42CD02C5408B500510884003508831792
:1029940080000130B5003508D107BB2CC501C60144
:1029A400C301C401280884000A168A110A200A16E1
:1029B4008A110A168A15EF200A168A11031CE32CC1
:1029C400E42C322D83160313C501C6010A30831289
:1029D4000313A0000030A1008316031346088312DA
:1029E4000313A30083160313450883120313A200E1
:1029F4000A128A1500200A168A1183120313210869
:102A040083160313C60083120313200883160313CB
:102A1400C500280884000A168A110A200A168A1199
:102A2400D03EB500FF3003180030B6003508C507A6
:102A34000318C60A3608C6070130B5003508A807CA
:102A4400280884000A168A110A200A168A110A160E
:102A54008A15EF200A168A110318312D322DE82C1D
:102A640083160313280884000A168A110A200A16FA
:102A74008A112E3A031D3F2D402D932D441701300A
:102A8400B5003508A807D201D301822D0A3083127C
:102A94000313A0000030A10083160313530883120C
:102AA4000313A30083160313520883120313A20013
:102AB4000A128A1500200A168A11831203132108A8
:102AC40083160313D30083120313200883160313FE
:102AD400D200280884000A168A110A200A168A11CC
:102AE400D03EB500FF3003180030B6003508D207D9
:102AF4000318D30A3608D3070130B5003508A807F0
:102B0400280884000A168A110A200A168A110A164D
:102B14008A15EF200A168A110318912D922D482D3B
:102B2400992DD201D3014416992D4415B52D0130A8
:102B340083160313A807FF30280784000A168A1196
:102B44000A200A168A11D400B500B6013608003AE4
:102B54000319AD2DBB2C3508003A0319FD2F663A35
:102B64000319972DBB2C00304305B50007304405ED
:102B7400B600350836040319C02DC32D0A128A1174
:102B8400FC2C441EC62DC72DCB2D0630D2000030A0
:102B9400D3003E08840083130008CD00840A000893
:102BA400CE00840A0008CF00840A0008D000043054
:102BB400B5003508BE07500883120313A30083161B
:102BC40003134F0883120313A200831603134E0842
:102BD40083120313A100831603134D0883120313F6
:102BE400A0000030A7000030A6000030A50000308F
:102BF400A4000A168A11CA200A168A110318032E81
:102C0400042E3D2E83160313500883120313A300CE
:102C1400831603134F0883120313A20083160313AE
:102C24004E0883120313A100831603134D08831265
:102C34000313A0000A168A15D0200A168A118312DB
:102C44000313230883160313D000831203132208EB
:102C540083160313CF00831203132108831603136F
:102C6400CE0083120313200883160313CD00033010
:102C7400C3040030C40483160313CB01CC015008F1
:102C840083120313A300831603134F088312031341
:102C9400A200831603134E0883120313A1008316A4
:102CA40003134D0883120313A0000030A700003063
:102CB400A6000030A5000030A4000A168A158B2354
:102CC4000A168A110318672E682E942F0310831690
:102CD40003134F0D500D823ECB00FF30031800301C
:102CE400CC00FF30CB070318CC0AFF30CC070330ED
:102CF40083120313A0000030A100831603134C08B1
:102D040083120313A300831603134B0883120313C4
:102D1400A2000A128A1500200A168A1183120313CC
:102D2400210883160313CC0083120313200883168F
:102D34000313CB000A3083120313A4000030A50050
:102D4400831603134C0883120313A700831603137B
:102D54004B0883120313A6000A168A15A2250A1625
:102D64008A1183120313250883160313CC008312DC
:102D74000313240883160313CB00CC1FC22EC32EC7
:102D8400C92EFF30CB070318CC0AFF30CC074B0306
:102D9400FF3A0A128A159D240A168A118312031314
:102DA4004B0883160313CA00831203134A088316BD
:102DB4000313C90083120313490883160313C800BD
:102DC40083120313480883160313C70050088312A1
:102DD4000313B100831603134F0883120313B000C7
:102DE400831603134E0883120313AF0083160313D1
:102DF4004D0883120313AE00831603134A0883128B
:102E04000313B50083160313490883120313B40094
:102E140083160313480883120313B30083160313A2
:102E2400470883120313B2000A128A153C210A16BA
:102E34008A1183120313310883160313CA00831201
:102E44000313300883160313C900831203132F08D6
:102E540083160313C800831203132E088316031367
:102E6400C7004A0883120313A300831603134908F7
:102E740083120313A2008316031348088312031357
:102E8400A10083160313470883120313A0003F30E5
:102E9400A7008030A6000030A5000030A4000A1668
:102EA4008A11CA200A168A110318592F5A2F632F20
:102EB400FF3083160313CB070318CC0AFF30CC076B
:102EC400942F831603134A0883120313A300831653
:102ED4000313490883120313A2008316031348083B
:102EE40083120313A10083160313470883120313E9
:102EF400A0004130A7002030A6000030A50000301B
:102F0400A4000A168A11CA200A168A11031C8B2FE0
:102F14008C2F942F013083160313CB070318CC0A8C
:102F24000030CC07831603135308803AFF00803027
:102F34007F02031D9F2F0D3052020318A22FA32FCF
:102F4400EA2F8316031352080A128A11DA250A1685
:102F54008A11831203134B08DF004A08DE00490874
:102F6400DD004808DC0083160313500883120313A2
:102F7400E300831603134F0883120313E20083163E
:102F840003134E0883120313E100831603134D0841
:102F940083120313E0000A168A112C220A168A11DE
:102FA400831203135F0883160313D00083120313E1
:102FB4005E0883160313CF00831203135D08831680
:102FC4000313CE00831203135C0883160313CD008E
:102FD400831603134C08803AFF0080307F02031DE0
:102FE400F52F0A304B020318FA2F0A128A112628E9
:0C2FF4000A128A1185280A128A11D52DB4
:10313E00831603130F088F3940388F000F140800C1
:10314E0064008001840A0406031900340406A828CA
:10315E008B170B17831603138C160C17831203137E
:10316E000C130800F500831203130C1EBF28C02891
:10317E00BA2875089900080000300A168A1516211B
:10318E000A168A1501300A168A1516210A168A158C
:10319E0008008312031323082204210420040319B8
:1031AE00D928DA28DC288030A306080083160317F6
:1031BE0089012030880003308316031386008701AF
:1031CE0085018801033089008312031385010800ED
:1031DE00F600F5013A3076020318F628F728FF2894
:1031EE0030307602031CFC28FD28FF28F501F50A75
:1031FE00750C08008316031318121815831603177F
:10320E00871519308316031399009A01831203133D
:10321E00981718131816831603139816080083129E
:10322E000313A000071020080A168A1534220A1666
:10323E008A158312031387140B30F7006230F600E1
:10324E00F60B2729F70B272900008312031387108B
:10325E000800F70083120313071477080A168A155D
:10326E0034220A168A158312031387141A30F600B5
:10327E00F60B3F2900008312031387101A30F60055
:10328E00F60B472900000800831203131F0CF000F1
:10329E00700C0F39053A031D552956295D291E0854
:1032AE00F000700883160313E60063291E08F00071
:1032BE00700883160313E500831203130C13080022
:1032CE00831203130C1F6C296D2972290A168A1595
:1032DE004B210A168A15831203138C1E772978291F
:1032EE007D290A168A15DC240A168A1574088A00A6
:1032FE00730E8300FE0E7E0E090083120313A200CE
:10330E00A001A1019D2920082207F600760884005D
:10331E0000080A168A15B9200A168A15013083127A
:10332E000313A0070318A10A0030A10720082207E3
:10333E00F6007608840083170008031DA729A82924
:10334E008A29080083120313A3002303031DB02947
:10335E00B129BD2921087F3EA2002208A40024081D
:10336E000A168A1516210A168A15CE290230230648
:10337E00031DC229C329CE292108BF3EA20022085F
:10338E00A40024080A168A1516210A168A150800A2
:10339E0083120313A600A201A3017508A000A101C8
:1033AE002008A4002108A500261CDE29DF29E52916
:1033BE002408A2070318A30A2508A3070130031047
:1033CE00A40DA50DFF3E031DE6290310A60C26082D
:1033DE00031DF229F329DB292308F6002208F50044
:1033EE00080083120313200821040319FF29002A61
:1033FE002F2AF601F60A0E2A01300310A00DA10D98
:10340E00FF3E031D042A0130F5007508F607A11FC3
:10341E00112A122A032A21082302031D182A200822
:10342E002202031C1B2A1C2A222A2008A20221087F
:10343E00031CA303A30201300310A10CA00CFF3E3A
:10344E00031D232A0130F602031D2E2A2F2A122ACB
:10345E002308A1002208A0000800F500751C382AD8
:10346E00392A3D2A831203130814402A83120313A8
:10347E000810F51C432A442A462A8814472A881025
:10348E00751D4A2A4B2A4D2A08154E2A0811F51D7C
:10349E00512A522A542A8815552A8811751E582ADF
:1034AE00592A5B2A08165C2A0812F51E5F2A602A22
:1034BE00622A8816632A8812751F662A672A692A65
:1034CE0008176A2A0813F51F6D2A6E2A702A8817A4
:1034DE00712A8813080083120313D4003C30B10004
:1034EE00A030B0009030AF002E30AE005408CC00AB
:1034FE00CD01CE01CF014F08A3004E08A2004D080A
:10350E00A1004C08A00001300A168A1587260A165B
:10351E008A15831203132308B5002208B40021086C
:10352E00B3002008B2000A128A153C210A168A1529
:10353E00831203133108D3003008D2002F08D100B4
:10354E002E08D0005308CB005208CA005108C900FB
:10355E005008C800080083120313A501A601DB2A38
:10356E0025082007A3002108A2000318A20AA51F00
:10357E00C12AA203831203132208A4002408FF0009
:10358E00230884000A168A1100200A168A150A16C4
:10359E008A1530210A168A15013083120313A507E6
:1035AE000318A60A0030A60725082007A300210845
:1035BE00A2000318A20AA51FE52AA2038312031371
:1035CE002208A4002408FF00230884000A168A118A
:1035DE0000200A168A15003A031DF62AF72AB72A82
:1035EE00080083120313A901AA0124082504031954
:1035FE00012B022B392BA801A80A102B0130031026
:10360E00A40DA50DFF3E031D062B0130F700770814
:10361E00A807A51F132B142B052B01300310A90D82
:10362E00AA0DFF3E031D152B25082702031D212B76
:10363E0024082602031C242B252B2C2B2408A6023F
:10364E002508031CA703A702291401300310A50C9B
:10365E00A40CFF3E031D2D2B0130A802031D382B99
:10366E00392B142B2A08A5002908A40008000030C5
:10367E000A168A1534220A168A1534308312031359
:10368E00A200F130A100A10B4A2BA20B4A2B3F3016
:10369E000A168A1516210A168A150D30831203137F
:1036AE00A200FB30A100A10B5A2BA20B5A2B3F30CC
:1036BE000A168A1516210A168A150230831203136A
:1036CE00A3001E30A200B330A100A10B6C2BA20BE5
:1036DE006C2BA30B6C2B3F300A168A1516210A167B
:1036EE008A1538300A168A1516210A168A150C30D4
:1036FE000A168A1516210A168A1506300A168A1512
:10370E0016210A168A1508000030831203132005AD
:10371E00A80000302105A90080302205AA007F30C4
:10372E002305AB002B082A0429042804031DA02B13
:10373E00A12BA92B0030A3000030A2000030A10065
:10374E000030A00000302405A80000302505A90097
:10375E0080302605AA007F302705AB002B082A04EF
:10376E0029042804031DBC2BBD2BC52B0030A7003C
:10377E000030A6000030A5000030A4002708230664
:10378E00031DD32B26082206031DD32B2508210645
:10379E00031DD32B240820060319D62BD72BD92B88
:1037AE000310DA2B03140800803083160313A306CC
:1037BE00270883120313DF008316031326088312D0
:1037CE000313DE0083160313250883120313DD0093
:1037DE0083160313240883120313DC0083160313CA
:1037EE00230883120313E3008316031322088312A4
:1037FE000313E20083160313210883120313E1005F
:10380E0083160313200883120313E0000A168A118D
:10381E002C220A168A15831203135F0883160313CC
:10382E00A300831203135E0883160313A2008312F0
:10383E0003135D0883160313A100831203135C08A0
:10384E0083160313A0000800831203132308220417
:10385E00210420040319342C352C782CF601F60A99
:10386E00452C0130F5000310A00DA10DA20DA30DE6
:10387E00F50B3A2C0130F5007508F607A31F482CFE
:10388E00492C382C23082702031D572C2208260208
:10389E00031D572C21082502031D572C2008240236
:1038AE00031C5A2C5B2C692C2008A4022108031C33
:1038BE00210FA5022208031C220FA6022308031CB7
:1038CE00230FA70201300310A30CA20CA10CA00C15
:1038DE00FF3E031D6A2C0130F602031D772C782C57
:1038EE00492C2708A3002608A2002508A1002408B9
:1038FE00A0000800F70183120313A31F872C882C46
:10390E008F2CA209A309A20A0319A30AF701F70A29
:10391E00A11F922C932C982CA009A109A00A03197F
:10392E00A10A2008210403199D2C9E2CCD2CF601F2
:10393E00F60AAC2C01300310A00DA10DFF3E031DA5
:10394E00A22C0130F5007508F607A11FAF2CB02C84
:10395E00A12C21082302031DB62C20082202031CD1
:10396E00B92CBA2CC02C2008A2022108031CA303D8
:10397E00A30201300310A10CA00CFF3E031DC12CAD
:10398E000130F602031DCC2CCD2CB02C7708031978
:10399E00D12CD22CD72CA209A309A20A0319A30A4F
:1039AE002308A1002208A00008000C308312031384
:1039BE0099002B301A06031DE52CE62C392D2B30E1
:1039CE0099000330F1009730F000F00BEC2CF10B66
:1039DE00EC2CF12C0D30831203139900F801F80A28
:1039EE001D2D2B30831203131A060319FF2C002DE5
:1039FE00102D1A0885001030F2003930F1000D300C
:103A0E00F000F00B082DF10B082DF20B082D0F2DE9
:103A1E00F8011F30F2007130F1001E30F000F00B93
:103A2E00162DF10B162DF20B162D0000780303192F
:103A3E00212D222DF82C2D30831203131A06031D6F
:103A4E00292D2A2D392D2D3099001F30F20071307D
:103A5E00F1001E30F000F00B322DF10B322DF20B77
:103A6E00322D00000800003083120313AB0000302B
:103A7E00AA000030A9000030A80023082204210467
:103A8E00200403194B2D4C2D992DAC01AC0A5C2D45
:103A9E000130F5000310A00DA10DA20DA30DF50B25
:103AAE00512D0130F5007508AC07A31F5F2D602D59
:103ABE004F2D0130F5000310A80DA90DAA0DAB0D69
:103ACE00F50B622D23082702031D772D22082602EF
:103ADE00031D772D21082502031D772D20082402B2
:103AEE00031C7A2D7B2D8A2D2008A4022108031C8D
:103AFE00210FA5022208031C220FA6022308031C75
:103B0E00230FA702281401300310A30CA20CA10C42
:103B1E00A00CFF3E031D8B2D0130AC02031D982D12
:103B2E00992D602D2B08A3002A08A2002908A100B8
:103B3E002808A000080083120313AA01A51FA82DB0
:103B4E00A92DB02DA409A509A40A0319A50AAA0135
:103B5E00AA0AA71FB32DB42DBD2DA609A709A60A23
:103B6E000319A70A0130A8002808AA06AB01AC0168
:103B7E00240825040319C42DC52DFC2DA901A90A5D
:103B8E00D32D01300310A40DA50DFF3E031DC92D2D
:103B9E000130A8002808A907A51FD62DD72DC82D9E
:103BAE0001300310AB0DAC0DFF3E031DD82D2508C3
:103BBE002702031DE42D24082602031CE72DE82D01
:103BCE00EF2D2408A6022508031CA703A7022B1419
:103BDE0001300310A50CA40CFF3E031DF02D013087
:103BEE00A902031DFB2DFC2DD72D2A080319002E2B
:103BFE00012E062EAB09AC09AB0A0319AC0A2C0830
:103C0E00A5002B08A40008000310831203135D0DFA
:103C1E005E0DDF005F08E5006508031D172E182EE8
:103C2E00212E0030DE000030DD000030DC000030E0
:103C3E00DB00862E5B08DF005C08E0005D08E1001B
:103C4E005E08E2001F300310E20CE10CE00CDF0C0A
:103C5E00FF3E031D2A2E5F08E3006308E400DD1714
:103C6E00FF30DB05FF30DC05FF30DD050030DE0503
:103C7E009630E502E51F442E452E5F2E6508803AEC
:103C8E00973E03184B2E4C2E4D2E182E013003103E
:103C9E00DE0CDD0CDC0CDB0CFF3E031D4E2E01306A
:103CAE00DF005F08E507031D5D2E5E2E4D2E762E7E
:103CBE0020306502031C642E652E712E182E0130E5
:103CCE00DF000310DB0DDC0DDD0DDE0DDF0B682ECE
:103CDE000130E5026508031D752E762E662E6408EA
:103CEE0003197A2E7B2E862EDB09DC09DD09DE090F
:103CFE00DB0A0319DC0A0319DD0A0319DE0A0800C0
:103D0E0083120313A800280803198E2E8F2EA32EBC
:103D1E00A31F922E932EA32E2009AA002109AB00D9
:103D2E002209AC002309AD00AA0A0319AB0A031934
:103D3E00AC0A0319AD0AAB2E2308AD002208AC0065
:103D4E002108AB002008AA00230822042104200425
:103D5E00031DB22EB32EBC2E0030A3000030A200E5
:103D6E000030A1000030A000422F9630A40024089D
:103D7E00A900CE2E0130A4002408A907013003109B
:103D8E00AD0CAC0CAB0CAA0CFF3E031DC62EFE30C8
:103D9E002D05031DD32ED42EC12EF02E0130A400DE
:103DAE002408A9070130AA07003003180130AB0719
:103DBE00003003180130AC07003003180130AD0796
:103DCE0001300310AD0CAC0CAB0CAA0CFF3E031D66
:103DDE00E82EFF302D05031DF52EF62ED52E022FC3
:103DEE000130A9020130A4000310AA0DAB0DAC0DD9
:103DFE00AD0DA40BFB2EAC1B052F062F0C2F023086
:103E0E00290203180B2F0C2FF72E29180F2F102F06
:103E1E00182FFF30AA05FF30AB057F30AC05FF3001
:103E2E00AD050310A90C2908A400A501A601A70140
:103E3E0018300310A40DA50DA60DA70DFF3E031DF2
:103E4E00202F2408AA042508AB042608AC04270852
:103E5E00AD0428080319342F352F3A2FA31F382FFE
:103E6E00392F3A2FAD172D08A3002C08A2002B08CE
:103E7E00A1002A08A0000800831203132008A8003E
:103E8E002108A9002208AA000310290D2A0DAB0053
:103E9E002B08B1003108031D552F562F5F2F003010
:103EAE00A3000030A2000030A1000030A000FF2FC0
:103EBE002408A8002508A9002608AA000310290D29
:103ECE002A0DAB002B08B0003008031D6F2F702F8A
:103EDE00712F562FA117FF30A005FF30A10500301E
:103EEE00A205A517FF30A405FF30A5050030A605D5
:103EFE000030AF000030AE000030AD000030AC003E
:103F0E007F30B10298303007A8002808B10218306F
:103F1E00A8002808B0000130A8000310AC0DAD0DAC
:103F2E00AE0DAF0DA80B942F26082202031DA52F50
:103F3E0025082102031DA52F24082002031CA82FEB
:103F4E00A92FB42F2408A0022508031C250FA102B7
:103F5E002608031C260AA2022C1401300310A00D01
:103F6E00A10DA20DFF3E031DB52F0130B002031DA2
:103F7E00C12FC22F922FB11FC52FC62FE02F310890
:103F8E00803A973E0318CC2FCD2FCE2F562F0130CF
:103F9E000310AF0CAE0CAD0CAC0CFF3E031DCF2FBF
:103FAE000130A8002808B107031DDE2FDF2FCE2F0A
:103FBE00F72F18303102031CE52FE62FF22F562F64
:103FCE000130A8000310AC0DAD0DAE0DAF0DA80B5A
:103FDE00E92F0130B1023108031DF62FF72FE72F1D
:103FEE002F08A3002E08A2002D08A1002C08A00067
:023FFE000800B9
:04400E00D620FF3F7A
:00000001FF
