:020000040000FA
:060000000A128A110C280F
:10000800FE00030EF3000A08F4000A168A15582A9F
:100018000A128A110F28F701F8018313D0308400DF
:10002800E8300A168A1539220A128A1183010A123F
:100038008A15782883160313480883120313A3002C
:1000480083160313470883120313A20083160313AE
:10005800460883120313A10083160313450883126D
:100068000313A0000030A7000030A6000030A50050
:100078000030A4000A168A150F250A128A110318DF
:10008800462847282929831603134808831203138F
:10009800DE0083160313470883120313DD0083165B
:1000A8000313460883120313DC0083160313450861
:1000B80083120313DB000A168A15C8260A128A114E
:1000C800831203135E085D045C045B04031D6D2842
:1000D8006E282929831603134408803AFF008030CC
:1000E8007F02031D792802304302031C7C287D28E7
:1000F800292983160313420883120313A3008316C6
:100108000313410883120313A20083160313400844
:1001180083120313A100831603133F0883120313EA
:10012800A0004030A7008930A6007030A5005F30DD
:10013800A4000A168A110D200A128A110318A5288C
:10014800A628AF28F73083160313C3070318C40A79
:10015800FF30C407B728F83083160313C307031802
:10016800C40AFF30C40743080A128A159D240A12DC
:100178008A11831203134B0883160313C2008312D8
:1001880003134A0883160313C10083120313490893
:1001980083160313C000831203134808831603133E
:1001A800BF00480883120313A300831603134708EC
:1001B80083120313A2008316031346088312031342
:1001C800A10083160313450883120313A0008316A6
:1001D8000313420883120313A7008316031341086D
:1001E80083120313A6008316031340088312031314
:1001F800A500831603133F0883120313A4000A16ED
:100208008A116E210A128A11831203132308831696
:100218000313BA0083120313220883160313B900C9
:1002280083120313210883160313B80083120313E0
:10023800200883160313B7000030C8000030C70039
:100248000030C6000030C500AB29831603134808E8
:1002580083120313DE008316031347088312031364
:10026800DD0083160313460883120313DC0083168C
:100278000313450883120313DB000A168A15C826E0
:100288000A128A11831203135E0883160313BA0035
:10029800831203135D0883160313B9008312031333
:1002A8005C0883160313B800831203135B088316D4
:1002B8000313B7003A0883120313A300831603132A
:1002C800390883120313A200831603133808831214
:1002D8000313A10083160313370883120313A00026
:1002E80000300A168A1544270A128A11831203134A
:1002F800230883160313A30083120313220883160B
:100308000313A20083120313210883160313A10009
:1003180083120313200883160313A0004808A700BC
:100328004708A6004608A5004508A4000A168A152D
:100338005F250A128A11831603132308C8002208AE
:10034800C7002108C6002008C500C301C401CC01AC
:10035800CC0A4C08AD0001300310AD0DFF3E031D63
:10036800B02903102D0D693E84000A168A150A204B
:100378000A128A11AE000A168A150A200A128A1170
:10038800AF000A168A150A200A128A11B0000A1646
:100398008A150A200A128A11B10031083A02031D8F
:1003A800DF2930083902031DDF292F083802031D11
:1003B800DF292E0837020318E229E329E429EE2968
:1003C8000130AD002D08CC070A304C06031DED297D
:1003D800EE29AD294C084A07AD004B0803184B0A13
:1003E800AE0043082D07AF0044080318440A2E073F
:1003F800B0002F08BD023008031CBE03BE024A0825
:100408004B040319082A092A0F2AFF30BD070318CD
:10041800BE0AFF30BE0703303B05AD0000303C0587
:10042800AE002D082E0403191A2A1B2A302AFF3081
:10043800BD070318BE0AFF30BE07302A20308316D6
:100448000313AD00490884002D0883138000013090
:10045800AD002D08C9071B2A3E08803AFF008030EE
:100468007F02031D392A01303D0203183C2A3D2A28
:10047800222A0330831603133B05AD0000303C05E8
:10048800AE002D082E0403194A2A4B2AFD2A2D30C6
:10049800AD00490884002D08831380000130AD00A9
:1004A8002D08C907FD2A4C08AD0001300310AD0D19
:1004B800FF3E031D5A2A03102D0D693E84000A16BB
:1004C8008A150A200A128A1183120313A0000A1639
:1004D8008A150A200A128A11A1000A168A150A200A
:1004E8000A128A11A2000A168A150A200A128A110B
:1004F800A300831603133A0883120313A700831675
:100508000313390883120313A6008316031338084C
:1005180083120313A50083160313370883120313EA
:10052800A4000A168A1560260A128A118312031378
:10053800230883160313C2008312031322088316A9
:100548000313C10083120313210883160313C00089
:1005580083120313200883160313BF00003083128D
:100568000313A3000030A2000030A1000A30A0004D
:1005780083160313420883120313A7008316031379
:10058800410883120313A60083160313400883123D
:100598000313A500831603133F0883120313A40053
:1005A8000A168A15AF250A128A1183120313230823
:1005B80083160313C200831203132208831603133E
:1005C800C10083120313210883160313C00083128A
:1005D8000313200883160313BF003F08303EAD0005
:1005E800490884002D08831380000130AD002D08D0
:1005F800C9070130CC024C0A031D032B042B572AD0
:10060800182B303083160313AD00490884002D08D9
:10061800831380000130AD002D08C907FF30C307E0
:100628000318C40AFF30C4074408803AFF0080302A
:100638007F02031D212B013043020318242B252B95
:10064800052B831603134B08803AFF0080307F0286
:10065800031D302B09304A02031C332B342B3B2B50
:10066800083083160313AD002D08CC00412B8316E8
:1006780003134A08AD002D08CC004C08AD00AE01AC
:100688002D08CA022E08031CCB03CB024C08031901
:100698004E2B4F2B5A2B2E30AD00490884002D08C5
:1006A800831380000130AD002D08C9074C080A12D9
:1006B8008A159D240A128A11831203134B08831684
:1006C8000313B500831203134A0883160313B400F7
:1006D80083120313490883160313B3008312031309
:1006E800480883160313B200350883120313B500B4
:1006F80083160313340883120313B40083160313F9
:10070800330883120313B3008316031332088312CA
:100718000313B20083160313480883120313B100AE
:1007280083160313470883120313B00083160313B9
:10073800460883120313AF00831603134508831278
:100748000313AE000A128A153C210A128A11831279
:1007580003133108DE003008DD002F08DC002E0806
:10076800DB000A168A15C8260A128A118312031397
:100778005E0883160313BA00831203135D088316F9
:100788000313B900831203135C0883160313B8001C
:10079800831203135B0883160313B700D42C4C0889
:1007A800AD0001300310AD0DFF3E031DD62B031025
:1007B8002D0D693E84000A168A150A200A128A112C
:1007C80083120313A0000A168A150A200A128A1136
:1007D800A1000A168A150A200A128A11A2000A160E
:1007E8008A150A200A128A11A300831603133A08ED
:1007F80083120313A7008316031339088312031304
:10080800A60083160313380883120313A500831662
:100818000313370883120313A4000A168A156026E7
:100828000A128A1183120313230883160313C200C2
:1008380083120313220883160313C10083120313C0
:10084800210883160313C00083120313200883169C
:100858000313BF00003083120313A3000030A2006B
:100868000030A1000A30A000831603134208831247
:100878000313A70083160313410883120313A6006A
:1008880083160313400883120313A500831603136A
:100898003F0883120313A4000A168A15AF250A120B
:1008A8008A1183120313230883160313C2008312C9
:1008B8000313220883160313C100831203132108AC
:1008C80083160313C000831203132008831603132F
:1008D800BF003F08303EAD00490884002D0883134F
:1008E80080000130AD002D08C9074C08AD0001306B
:1008F8000310AD0DFF3E031D7C2C03102D0D693E2A
:1009080084000A168A150A200A128A118312031310
:10091800A0000A168A150A200A128A11A1000A16CE
:100928008A150A200A128A11A2000A168A150A20B4
:100938000A128A11A300831603133A0883120313B9
:10094800A70083160313390883120313A60083161E
:100958000313380883120313A500831603133708FB
:1009680083120313A4000A168A15AF250A128A11E6
:1009780083120313230883160313BA008312031385
:10098800220883160313B900831203132108831660
:100998000313B80083120313200883160313B70048
:1009A8000130CC024C0A031DDA2CDB2CD32BED2CA6
:1009B8003030AD00490884002D08831380000130D1
:1009C800AD002D08C907FF30CA070318CB0AFF304E
:1009D800CB074A084B04031DF22CF32CDC2CB92D51
:1009E8004A084B04031DF92CFA2C082D3A0839043F
:1009F80038043704031D012D022D082D0130CA07C4
:100A08000318CB0A0030CB074B08803A803C031D03
:100A18000F2D4A084C020318122D132D1A2D831678
:100A280003134A08AD002D08CC00322D831603139A
:100A38004B08803AAD0080302D02031D252D4C084F
:100A48004A020318282D292D322D831603134C082A
:100A5800AD00AE012D08CA002E08CB008316031383
:100A68003D083E040319392D3A2D4C2D03303B0522
:100A7800AD0000303C05AE002D082E040319452DAD
:100A8800462D4C2DFF30BD070318BE0AFF30BE07A8
:100A98003C1F4F2D502D6B2D4B08803AAD003E0862
:100AA800803A2D02031D5A2D3D084A0203185D2D78
:100AB8005E2D672D831603134A08BD024B08031CDD
:100AC800BE03BE026B2D83160313BD01BE013E0893
:100AD800803A803C031D722D3D084C020318752D89
:100AE800762D822D831603134C08AD00AE012D0818
:100AF800BD022E08031CBE03BE02862D83160313F7
:100B0800BD01BE013D083E0403198B2D8C2DA32D7C
:100B18002030AD00490884002D088313800001307F
:100B2800AD002D08C907FF30BD070318BE0AFF3006
:100B3800BE073D083E04031DA22DA32D8C2D0330B6
:100B48003B05AD0000303C05AE002D082E0403190E
:100B5800AE2DAF2DB92D2D30AD00490884002D08DC
:100B6800831380000A168A11CB2C0130A807FF30A6
:100B7800280784000A168A150A200A128A11AD006D
:100B88002D08CC004C08031DCA2DCD2D0A168A113C
:100B9800BE2C4908840083138001080083120313C4
:100BA800DB006E305B02031CDA2DDB2DEA2E3F30B2
:100BB800B1000030B0000030AF000030AE0064304B
:100BC800A4000030A5005B08CC00CD014C08A600AD
:100BD8004D08A7000A168A157C240A128A11831266
:100BE80003132408CE0001300310CE0DFF3E031D71
:100BF800F82D03104E0D7D3E84000A168A150A2032
:100C08000A128A11CF000A168A150A200A128A11B6
:100C1800D0000A168A150A200A128A11D1000A166B
:100C28008A150A200A128A11D2005208B500510802
:100C3800B4005008B3004F08B2000A128A153C21CC
:100C48000A128A11831203133108DA003008D90016
:100C58002F08D8002E08D7000A30A4000030A500BD
:100C68005B08CC00CD014C08A2004D08A3006430FD
:100C7800A0000030A1000A168A157C230A128A11E6
:100C8800831203132108A7002008A6000A168A1554
:100C98007C240A128A11831203132408CE0001301F
:100CA8000310CE0DFF3E031D542E03104E0D593E6A
:100CB80084000A168A150A200A128A11CF000A1619
:100CC8008A150A200A128A11D0000A168A150A20E3
:100CD8000A128A11D1000A168A150A200A128A11E4
:100CE800D2005208B1005108B0005008AF004F08B8
:100CF800AE005A08B5005908B4005808B3005708A0
:100D0800B2000A128A153C210A128A1183120313AF
:100D18003108D6003008D5002F08D4002E08D3009B
:100D28000A30A0000030A1005B08CC00CD014C08BF
:100D3800A2004D08A3000A168A157C230A128A11FC
:100D4800831203132008CE0001300310CE0DFF3E9E
:100D5800031DA92E03104E0D353E84000A168A1570
:100D68000A200A128A11CF000A168A150A200A12C6
:100D78008A11D0000A168A150A200A128A11D1008F
:100D88000A168A150A200A128A11D2005208B100DE
:100D98005108B0005008AF004F08AE005608B50023
:100DA8005508B4005408B3005308B2000A128A1553
:100DB8003C210A128A11831203133108CB00300830
:100DC800CA002F08C9002E08C800DE2F0B305B02AE
:100DD800031CEF2EF02E9B2F3F30B1000030B000E7
:100DE8000030AF000030AE000A30A4000030A5008B
:100DF8005B08CC00CD014C08A6004D08A7000A16D8
:100E08008A157C240A128A11831203132408CE003F
:100E180001300310CE0DFF3E031D0D2F03104E0DA4
:100E2800593E84000A168A150A200A128A11CF0030
:100E38000A168A150A200A128A11D0000A168A157B
:100E48000A200A128A11D1000A168A150A200A12E3
:100E58008A11D2005208B5005108B4005008B300F6
:100E68004F08B2000A128A153C210A128A1183120D
:100E780003133108DA003008D9002F08D8002E08EB
:100E8800D7000A30A0000030A1005B08CC00CD01DB
:100E98004C08A2004D08A3000A168A157C230A12E2
:100EA8008A11831203132008CE0001300310CE0DDF
:100EB800FF3E031D5A2F03104E0D353E84000A16BF
:100EC8008A150A200A128A11CF000A168A150A20E2
:100ED8000A128A11D0000A168A150A200A128A11E3
:100EE800D1000A168A150A200A128A11D20052085D
:100EF800B1005108B0005008AF004F08AE005A08C2
:100F0800B5005908B4005808B3005708B2000A12CF
:100F18008A153C210A128A11831203133108CB0067
:100F28003008CA002F08C9002E08C800DE2F3F303D
:100F3800B1000030B0000030AF000030AE005B08F8
:100F4800CC0001300310CC0DFF3E031DA62F03106B
:100F58004C0D353E84000A168A150A200A128A1199
:100F6800CD000A168A150A200A128A11CE000A161E
:100F78008A150A200A128A11CF000A168A150A2031
:100F88000A128A11D0005008B5004F08B4004E0864
:100F9800B3004D08B2000A128A153C210A128A11C0
:100FA800831203133108CB003008CA002F08C90088
:100FB8002E08C8000800F6008312031307107608ED
:100FC8000A168A15B8230A128A1183120313871482
:100FD8000B3083120313A1006130A000A00BF22F85
:0E0FE800A10BF22FF72F8312031387100800BE
:1010000083160317890120308800033083160313E9
:10101000860087018501880103308900080083125A
:101020000313AB01A71F152816281D28A609A70919
:10103000A60A0319A70AAB01AB0AA91F2028212879
:101040002A28A809A909A80A0319A90A0130F60043
:101050007608AB06AC01AD01260827040319312838
:1010600032286928AA01AA0A402801300310A60DD7
:10107000A70DFF3E031D36280130F6007608AA07AB
:10108000A71F43284428352801300310AC0DAD0DAF
:10109000FF3E031D452827082902031D5128260865
:1010A0002802031C542855285C282608A802270873
:1010B000031CA903A9022C1401300310A70CA60CD1
:1010C000FF3E031D5D280130AA02031D6828692820
:1010D00044282B0803196D286E287328AC09AD0924
:1010E000AC0A0319AD0A2D08A7002C08A6000800B9
:1010F0000A128A1500200A128A150A168A157C22FD
:101100000A128A15831603138801071387130A1618
:101110008A15C2240A128A15831203139F140A1611
:101120008A154B220A128A1583120313A201A20AFE
:1011300001300A168A15AD220A128A1591308312DF
:101140000313A1008030A2000A168A1536240A1261
:101150008A15831603135D080A168A15F6230A12E8
:101160008A15831203134B0883160313DB008312C3
:1011700003134A0883160313DA0083120313490882
:1011800083160313D900831203134808831603132D
:10119000D8005C080A168A15F6230A128A158312EB
:1011A00003134B0883160313D700831203134A0853
:1011B00083160313D60083120313490883160313FF
:1011C000D50083120313480883160313D400831237
:1011D0000313A201A20A02300A168A15AD220A12CE
:1011E0008A159D3083160313CD004D08A8005B08B7
:1011F000AC005A08AB005908AA005808A900DE3014
:101200000A168A11B4240A128A15DE3083120313D7
:10121000A1000030A2000A168A1536240A128A1587
:101220000C30831203139900A4300A168A15232365
:101230000A128A15153083160313CF004B30CE00E7
:10124000BD30CD00CD0B2229CE0B2229CF0B222978
:101250002929831203139F182E292F293929413058
:1012600083160313CD00CD0B3329362983120313C4
:101270009F140A128A110C28831203133108803933
:10128000B6003608BB003108B6003607B70037088D
:10129000C100B01F4C294D294E29411441080319A2
:1012A000522953296229410A031D572958296029C7
:1012B0000030B1000030B0000030AF000030AE00B0
:1012C000B0176A290030B1000030B0000030AF0024
:1012D0000030AE0035088039B6003608BB06350848
:1012E000B6003607B7003708BC00B41F7829792943
:1012F0007A293C143C0803197E297F298E293C0A4F
:10130000031D832984298C290030B5000030B400E6
:101310000030B3000030B200B41796290030B50099
:101320000030B4000030B3000030B2003C080319B4
:101330009A299B29A0294108031D9F29A029A92991
:101340000030B1000030B0000030AF000030AE001F
:101350009C2C2E08B6003608F50034080A168A15AB
:10136000FA220A128A15760883120313C700750839
:10137000C6004608B600B701B801B9013908C00077
:101380003808BF003708BE003608BD004708B60061
:10139000B701B801B9013908C5003808C4003708D9
:1013A000C3003608C2002F08B6003608F50033081F
:1013B0000A168A15FA220A128A157608831203136E
:1013C000C7007508C6004608B600B701B801B901E4
:1013D0003608BD07370803110318013E0319F12928
:1013E000BE07380803110318013E0319F829BF0787
:1013F000390803110318013E0319FF29C0074708E4
:10140000B600B701B801B9013608C20737080311A1
:101410000318013E03190D2AC307380803110318E6
:10142000013E0319142AC407390803110318013EA9
:1014300003191B2AC5073008B6003608F500320824
:101440000A168A15FA220A128A15760883120313DD
:10145000C7007508C6004608B600B701B801B90153
:101460003608BD07370803110318013E0319392A4E
:10147000BE07380803110318013E0319402ABF07AD
:10148000390803110318013E0319472AC00747080A
:10149000B600B701B801B9013608C2073708031111
:1014A0000318013E0319552AC3073808031103180E
:1014B000013E03195C2AC407390803110318013ED1
:1014C0000319632AC5070830B6000310BD0DBE0D11
:1014D000BF0DC00DB60B652A2F08B6003608F50003
:1014E00032080A168A15FA220A128A157608831219
:1014F0000313C7007508C6004608B6004708B700C2
:10150000B801B9013608BD07370803110318013EB9
:1015100003198B2ABE07380803110318013E03196B
:10152000922ABF07390803110318013E0319992AAB
:10153000C0072E08B6003608F50033080A168A15CB
:10154000FA220A128A15760883120313C700750857
:10155000C6004608B6004708B700B801B90136080A
:10156000BD07370803110318013E0319B82ABE0747
:10157000380803110318013E0319BF2ABF073908B1
:1015800003110318013E0319C62AC0070830B6002C
:101590000310BD0DBE0DBF0DC00DB60BC82A2E0821
:1015A000B6003608F50032080A168A15FA220A1221
:1015B0008A15760883120313C7007508C60046080B
:1015C000B6004708B700B801B9013608BD073708AB
:1015D00003110318013E0319EE2ABE073808031150
:1015E0000318013E0319F52ABF0739080311031830
:1015F000013E0319FC2AC0072F08B6003608F50083
:1016000034080A168A15FA220A128A1576088312F5
:101610000313C7007508C6004608B6004708B700A0
:10162000B801B9013608C207370803110318013E93
:1016300003191B2BC307380803110318013E0319B4
:10164000222BC407390803110318013E0319292B63
:10165000C5073008B6003608F50033080A168A15A3
:10166000FA220A128A15760883120313C700750836
:10167000C6004608B6004708B700B801B9013608E9
:10168000C207370803110318013E0319482BC3078B
:10169000380803110318013E03194F2BC4073908FA
:1016A00003110318013E0319562BC5073008B60075
:1016B0003608F50034080A168A15FA220A128A1525
:1016C000760883120313C7007508C6004608B600E3
:1016D0004708B700B801B90108300310B60DB70DBF
:1016E000B80DB90DFF3E031D6D2B3608C207370834
:1016F00003110318013E03197E2BC3073808031199
:101700000318013E0319852BC40739080311031878
:10171000013E03198C2BC5073D08B6003E08B700F3
:101720003F08B8004008B90018300310B90CB80CD5
:10173000B70CB60CFF3E031D952B3608C2073708C1
:1017400003110318013E0319A62BC3073808031120
:101750000318013E0319AD2BC40739080311031800
:10176000013E0319B42BC5070830B6000310BD0DA8
:10177000BE0DBF0DC00DB60BB62B41083C07B60021
:10178000B701B70D3608823EC60037080318013E80
:10179000FF3EC700E82B0130B6000310C20DC30D99
:1017A000C40DC50DB60BCD2BC01FD72BD82BD92BF5
:1017B00042140130B6000310BD0DBE0DBF0DC00DAB
:1017C000B60BDB2BFF30C6070318C70AFF30C7076D
:1017D000C41FEB2BEC2BCB2BBC01C01FF02BF12B30
:1017E0000D2CFF303D05B600FF303E05B700FF3041
:1017F0003F05B8007F304005B90039083804370488
:1018000036040319042C052C082CBC01BC0A0D2C31
:10181000421C0B2C0C2C0D2C052C3C080319112CF4
:10182000122C432C0130C207003003180130C307CB
:10183000003003180130C407003003180130C50719
:10184000451C232C242C432C4208B6004308B70027
:101850004408B8004508B9000130BA00390DB90C88
:10186000B80CB70CB60CBA0B2E2C3908C5003808CA
:10187000C4003708C3003608C2000130C607031889
:10188000C70A0030C7074708803AFF0080307F0250
:10189000031D4C2CFF304602031C4F2C502C5B2C9C
:1018A0007F3083120313C5008030C4000030C300B2
:1018B0000030C200902C831203134708803AFF00C7
:1018C00080307F02031D662C013046020318692C0C
:1018D0006A2C762C003083120313C5000030C4003C
:1018E0000030C3000030C200BB01902C83120313F0
:1018F0004608B6003608C100FF30C205FF30C305F8
:101900007F30C4050030C505411C872C882C892CEC
:10191000C4174108B6000310360CB7003708C500DD
:101920003B08B6003608C5044508B1004408B000BD
:101930004308AF004208AE00080083120313DA0028
:10194000DA1FA32CA42C532EDA09DA0A5A08803A9B
:10195000123E031CAC2CAD2C972D0A30A600003093
:10196000A7005A08A200A301A21BA3036430A00091
:101970000030A1000A168A1505260A128A1583125C
:1019800003132108A9002008A8000A128A150F20B5
:101990000A128A15831203132608CC0001300310A3
:1019A000CC0DFF3E031DCF2C03104C0D593E84007F
:1019B0000A168A150A200A128A15CD000A168A15F7
:1019C0000A200A128A15CE000A168A150A200A125F
:1019D0008A15CF000A168A150A200A128A15D00025
:1019E0005008B1004F08B0004E08AF004D08AE00DF
:1019F0006430A6000030A7005A08A800A901A81B5F
:101A0000A9030A128A150F200A128A1583120313DA
:101A10002608D10001300310D10DFF3E031D0B2D10
:101A20000310510D7D3E84000A168A150A200A1201
:101A30008A15D2000A168A150A200A128A15D300BE
:101A40000A168A150A200A128A15D4000A168A155F
:101A50000A200A128A15D5005508B5005408B400AA
:101A60005308B3005208B2000A128A153C210A1228
:101A70008A15831203133108D9003008D8002F08C3
:101A8000D7002E08D6000A30A0000030A1005A0866
:101A9000A200A301A21BA3030A168A1505260A1297
:101AA0008A15831203132008CC0001300310CC0DDB
:101AB000FF3E031D562D03104C0D353E84000A16C3
:101AC0008A150A200A128A15CD000A168A150A20DC
:101AD0000A128A15CE000A168A150A200A128A15D9
:101AE000CF000A168A150A200A128A15D00050085B
:101AF000B1004F08B0004E08AF004D08AE005908C5
:101B0000B5005808B4005708B3005608B2000A12CE
:101B10008A153C210A128A15831203133108CB005F
:101B20003008CA002F08C9002E08C800FF2F5A0825
:101B3000803A753E031C9D2D9E2D262E0A30A00056
:101B40000030A1005A08A200A301A21BA3030A1699
:101B50008A1505260A128A15831203132008CC0061
:101B600001300310CC0DFF3E031DB12D03104C0DB1
:101B7000353E84000A168A150A200A128A15CD00FD
:101B80000A168A150A200A128A15CE000A168A1524
:101B90000A200A128A15CF000A168A150A200A128C
:101BA0008A15D0005008B1004F08B0004E08AF00B1
:101BB0004D08AE000A30A6000030A7005A08A80061
:101BC000A901A81BA9030A128A150F200A128A1557
:101BD000831203132608D10001300310D10DFF3EFC
:101BE000031DED2D0310510D593E84000A168A1570
:101BF0000A200A128A15D2000A168A150A200A1229
:101C00008A15D3000A168A150A200A128A15D400EA
:101C10000A168A150A200A128A15D5005508B50039
:101C20005408B4005308B3005208B2000A128A15CF
:101C30003C210A128A15831203133108CB003008A5
:101C4000CA002F08C9002E08C800FF2F5A08CC0070
:101C500001300310CC0DFF3E031D292E03104C0D47
:101C6000353E84000A168A150A200A128A15CD000C
:101C70000A168A150A200A128A15CE000A168A1533
:101C80000A200A128A15CF000A168A150A200A129B
:101C90008A15D0005008CB004F08CA004E08C90072
:101CA0004D08C800FF2F5A08803A123E031C592ED7
:101CB0005A2E442F0A30A6000030A7005A08A2006E
:101CC000A301A21BA3036430A0000030A1000A16E8
:101CD0008A1505260A128A15831203132108A90002
:101CE0002008A8000A128A150F200A128A158312EA
:101CF00003132608CC0001300310CC0DFF3E031D5A
:101D00007C2E03104C0D253E84000A168A150A20ED
:101D10000A128A15CD000A168A150A200A128A1597
:101D2000CE000A168A150A200A128A15CF000A1652
:101D30008A150A200A128A15D0005008B1004F08EF
:101D4000B0004E08AF004D08AE006430A600003071
:101D5000A7005A08A800A901A81BA9030A128A15FE
:101D60000F200A128A15831203132608D1000130AE
:101D70000310D10DFF3E031DB82E0310510D493E37
:101D800084000A168A150A200A128A15D2000A1639
:101D90008A150A200A128A15D3000A168A150A2003
:101DA0000A128A15D4000A168A150A200A128A1500
:101DB000D5005508B5005408B4005308B3005208C4
:101DC000B2000A128A153C210A128A1583120313E3
:101DD0003108D9003008D8002F08D7002E08D600C7
:101DE0000A30A0000030A1005A08A200A301A21BE3
:101DF000A3030A168A1505260A128A1583120313ED
:101E00002008CC0001300310CC0DFF3E031D032F32
:101E100003104C0D013E84000A168A150A200A128E
:101E20008A15CD000A168A150A200A128A15CE00D4
:101E30000A168A150A200A128A15CF000A168A1570
:101E40000A200A128A15D0005008B1004F08B000CD
:101E50004E08AF004D08AE005908B5005808B40050
:101E60005708B3005608B2000A128A153C210A121C
:101E70008A15831203133108CB003008CA002F08DB
:101E8000C9002E08C800FF2F5A08803A753E031C6F
:101E90004A2F4B2FD32F0A30A0000030A1005A0840
:101EA000A200A301A21BA3030A168A1505260A1283
:101EB0008A15831203132008CC0001300310CC0DC7
:101EC000FF3E031D5E2F03104C0D013E84000A16D9
:101ED0008A150A200A128A15CD000A168A150A20C8
:101EE0000A128A15CE000A168A150A200A128A15C5
:101EF000CF000A168A150A200A128A15D000500847
:101F0000B1004F08B0004E08AF004D08AE000A30D7
:101F1000A6000030A7005A08A800A901A81BA90321
:101F20000A128A150F200A128A1583120313260833
:101F3000D10001300310D10DFF3E031D9A2F031075
:101F4000510D253E84000A168A150A200A128A15A8
:101F5000D2000A168A150A200A128A15D3000A1618
:101F60008A150A200A128A15D4000A168A150A2030
:101F70000A128A15D5005508B5005408B400530854
:101F8000B3005208B2000A128A153C210A128A15BF
:101F9000831203133108CB003008CA002F08C90090
:101FA0002E08C800FF2F5A08CC0001300310CC0DBA
:101FB000FF3E031DD62F03104C0D013E84000A1670
:101FC0008A150A200A128A15CD000A168A150A20D7
:101FD0000A128A15CE000A168A150A200A128A15D4
:101FE000CF000A168A150A200A128A15D000500856
:101FF000CB004F08CA004E08C9004D08C8000800B1
:10200000831203132308220421042004031909283E
:102010000A280C288030A30608000030831203131E
:102020002005A80000302105A90080302205AA0063
:102030007F302305AB002B082A0429042804031D44
:10204000222823282B280030A3000030A2000030D3
:10205000A1000030A00000302405A80000302505B4
:10206000A90080302605AA007F302705AB002B0889
:102070002A0429042804031D3E283F28472800304D
:10208000A7000030A6000030A5000030A400A31F68
:102090004A284B286F280030A8000030A9000030E3
:1020A000AA008030AB002008A8022108031C210FE1
:1020B0005A285B28A9022208031C220F60286128E5
:1020C000AA022308031C230F66286728AB022B08EB
:1020D000A3002A08A2002908A1002808A000A71F21
:1020E0007228732897280030A8000030A90000301B
:1020F000AA008030AB002408A8022508031C250F85
:1021000082288328A9022608031C260F88288928EC
:10211000AA022708031C270F8E288F28AB022B0842
:10212000A7002A08A6002908A5002808A4008030D6
:10213000A3068030A70627082302031DA928260826
:102140002202031DA92825082102031DA92824080D
:1021500020020318AC28AD28AF280310B0280314C0
:102160000800831203132008A8002108A9002208F0
:10217000AA000310290D2A0DAB002B08B10031086D
:10218000031DC328C428CD280030A3000030A200BE
:102190000030A1000030A0006D292408A800250807
:1021A000A9002608AA000310290D2A0DAB002B0850
:1021B000B0003008031DDD28DE28DF28C428A11761
:1021C000FF30A005FF30A1050030A205A517FF30A4
:1021D000A405FF30A5050030A6050030AF00003093
:1021E000AE000030AD000030AC007F30B10298305E
:1021F0003007A8002808B1021830A8002808B0004D
:102200000130A8000310AC0DAD0DAE0DAF0DA80B45
:10221000022926082202031D132925082102031D75
:10222000132924082002031C16291729222924080F
:10223000A0022508031C250FA1022608031C260A5C
:10224000A2022C1401300310A00DA10DA20DFF3E1F
:10225000031D23290130B002031D2F293029002935
:10226000B11F332934294E293108803A973E03188B
:102270003A293B293C29C42801300310AF0CAE0C8D
:10228000AD0CAC0CFF3E031D3D290130A800280811
:10229000B107031D4C294D293C296529183031020D
:1022A000031C532954296029C4280130A8000310B5
:1022B000AC0DAD0DAE0DAF0DA80B57290130B1021D
:1022C0003108031D6429652955292F08A3002E080C
:1022D000A2002D08A1002C08A00008000310831202
:1022E0000313220D230DF5007508AD002D08031D05
:1022F0007A297B2984290030A3000030A200003015
:10230000A1000030A0002B2A0310260D270DF50098
:102310007508AC002C08031D8E298F2990297B2974
:10232000A217FF30A005FF30A105FF30A205003045
:10233000A305A617FF30A405FF30A505FF30A605AD
:102340000030A7050030AB000030AA000030A90023
:102350000030A8007F30AD02A0302C07F5007508D2
:10236000AD022030F5007508AC000130F500031017
:10237000A80DA90DAA0DAB0DF50BB729270823024F
:10238000031DCC2926082202031DCC292508210281
:10239000031DCC2924082002031CCF29D029DF29C2
:1023A0002408A0022508031C250FA1022608031CEF
:1023B000260FA2022708031C270FA30228140130AE
:1023C000F5000310A00DA10DA20DA30DF50BE12941
:1023D0000130AC02031DED29EE29B529AD1FF1290D
:1023E000F2290C2A2D08803A9F3E0318F829F92972
:1023F000FA297B2901300310AB0CAA0CA90CA80CFC
:10240000FF3E031DFB290130F5007508AD07031DD4
:102410000A2A0B2AFA29232A20302D02031C112A0A
:10242000122A1E2A7B290130F5000310A80DA90DE0
:10243000AA0DAB0DF50B152A0130AD022D08031DB9
:10244000222A232A132A2B08A3002A08A2002908DB
:10245000A1002808A0000800831203135F08803938
:10246000E4006408EC005F08E4006407E500650828
:10247000EE00DE1F3C2A3D2A3E2A6E146E08031928
:10248000422A432A532A6E0A031D472A482A502A01
:102490000030DF000030DE000030DD000030DC0006
:1024A000DE17DF015B2A0030DF000030DE00003085
:1024B000DD000030DC0063088039E4006408ED00D2
:1024C0006D086C060319652A662A672A6C1763086B
:1024D000E4006407E5006508ED00E21F702A712A38
:1024E000722A6D146D080319762A772A872A6D0AD5
:1024F000031D7B2A7C2A842A0030E3000030E2009E
:102500000030E1000030E000E217E3018F2A0030E4
:10251000E3000030E2000030E1000030E0006E082F
:102520006D020318942A952AD92A6C1F982A992A91
:102530009D2A8030E4006408EC066E08E40064081C
:10254000EF006D08E4006408EE006F08E400640822
:10255000ED005C08E4006408EF006008E400640833
:10256000DC006F08E4006408E0005D08E400640833
:10257000EF006108E4006408DD006F08E40064080F
:10258000E1005E08E4006408EF006208E40064080B
:10259000DE006F08E4006408E2005F08E4006408FD
:1025A000EF006308E4006408DF006F08E4006408DB
:1025B000E300EF016D08E400E5016508E7006E083F
:1025C0006402E600031CE7036708803AFF008030DE
:1025D0007F02031DED2A1A306602031CF02AF12A3D
:1025E0002E2B831203135F085E045D045C04031D3D
:1025F000FA2AFC2A0130FD2A0030E4006408EF00CA
:102600000030DF000030DE000030DD000030DC0094
:102610006D08E4006408EE00362B6F1C102B112BA4
:102620001A2B6F08E4000310640C0138E5006508FC
:10263000EF001C2B0310EF0C5C1C1F2B202B212BFD
:10264000EF170130E4005F0DDF0CDE0CDD0CDC0C5D
:10265000E40B232B0130E4006408EE07831203131C
:102660006D086E02031C352B362B0D2B6C1B392B82
:102670003A2B852B6E08031D3E2B3F2B482B003039
:10268000DF000030DE000030DD000030DC00B32C65
:102690006008DC07610803110318013E0319512B80
:1026A000DD07620803110318013E0319582BDE07EA
:1026B000630803110318013E03195F2BDF075F1C3A
:1026C000622B632B392C6F1C662B672B702B6F08CA
:1026D000E4000310640C0138E5006508EF00722B7C
:1026E0000310EF0C5C1C752B762B772BEF1701304A
:1026F000E4005F0DDF0CDE0CDD0CDC0CE40B792B51
:102700000130E4006408EE07392C5F08803AFF00CE
:102710006308803A7F02031D972B62085E02031D47
:10272000972B61085D02031D972B60085C0203185C
:102730009A2B9B2BF32BFF30E400FF30E500FF309A
:10274000E600FF30E7006008E8006108E900620881
:10275000EA006308EB005C08E8025D08031C5D0FFB
:10276000B22BB32BE9025E08031C5E0FB82BB92B0A
:10277000EA025F08031C5F0FBE2BBF2BEB02680849
:10278000E40769080318690FC62BC72BE5076A0819
:1027900003186A0FCC2BCD2BE6076B0803186B0AC6
:1027A000E7076708DF006608DE006508DD006408EB
:1027B000DC008030E4006408EC06EF09EF0A6F08E3
:1027C000031DE32BE42B012C0130DC070030031840
:1027D0000130DD07003003180130DE070030031838
:1027E0000130DF07012C6008DC026108031C610F67
:1027F000DD026208031C620FDE026308031C630F24
:10280000DF025F085E045D045C04031D082C092CD4
:10281000352C6F08031D0D2C0E2C352C0030DF00DD
:102820000030DE000030DD000030DC00B32C013071
:10283000E4000310DC0DDD0DDE0DDF0DE40B192CC3
:10284000EF1F232C242C252C5C146F1C282C292CE6
:102850002C2C0314EF0D2E2C0310EF0D6E08031912
:10286000322C332C352C0130EE02DE1F382C392C63
:10287000172CED01EF1F3D2C3E2C4C2C6F087F399F
:102880000319432C442C472CED01ED0A4C2C5C1C05
:102890004A2C4B2C4C2C442C6D080319502C512CD9
:1028A000852C0130DC07003003180130DD070030D3
:1028B00003180130DE07003003180130DF075F1C0A
:1028C000622C632C852C5C08E4005D08E5005E0842
:1028D000E6005F08E7000130E800670DE70CE60C52
:1028E000E50CE40CE80B6D2C6708DF006608DE00E1
:1028F0006508DD006408DC006E0A0319802C812C59
:10290000852C0130E4006408EE076E0A0319892C57
:102910008A2C8F2C6E08031D8E2C8F2C9D2C003042
:10292000DF000030DE000030DD000030DC006E082B
:10293000031D9B2C9C2C9D2CEC016E1CA02CA12C0F
:10294000A32CDE17A72C7F30E4006408DE056E0898
:10295000E4000310640CE5006508DF00EC1FB12CF7
:10296000B22CB32CDF17080083160313C900A9305B
:10297000AD002D08B6000A128A11B92D25304C067B
:102980000319C32CC42CD02C4C08AD00490884007A
:102990002D08831380000130AD002D08C907BB2C22
:1029A000BD01BE01BB01BC01280884000A168A15BE
:1029B0000A200A168A110A168A156A220A168A112C
:1029C000031CE32CE42C322D83160313BD01BE013E
:1029D0000A3083120313A0000030A10083160313F2
:1029E0003E0883120313A300831603133D088312CA
:1029F0000313A2000A168A15D3220A168A1183121B
:102A00000313210883160313BE0083120313200847
:102A100083160313BD00280884000A168A150A20AD
:102A20000A168A11D03EAD00FF3003180030AE0008
:102A30002D08BD070318BE0A2E08BE070130AD00E1
:102A40002D08A807280884000A168A150A200A16E5
:102A50008A110A168A156A220A168A110318312D5C
:102A6000322DE82C83160313280884000A168A15D1
:102A70000A200A168A112E3A031D3F2D402D932D50
:102A80003C170130AD002D08A807CA01CB01822DEB
:102A90000A3083120313A0000030A1008316031331
:102AA0004B0883120313A300831603134A088312EF
:102AB0000313A2000A168A15D3220A168A1183125A
:102AC0000313210883160313CB008312031320087A
:102AD00083160313CA00280884000A168A150A20E0
:102AE0000A168A11D03EAD00FF3003180030AE0048
:102AF0002D08CA070318CB0A2E08CB070130AD00FA
:102B00002D08A807280884000A168A150A200A1624
:102B10008A110A168A156A220A168A110318912D3B
:102B2000922D482D992DCA01CB013C16992D3C15AB
:102B3000B52D013083160313A807FF302807840042
:102B40000A168A150A200A168A11CC00AD00AE01B9
:102B50002E08003A0319AD2DBB2C2D08003A03199D
:102B6000FD2F663A0319972DBB2C00303B05AD00B5
:102B700007303C05AE002D082E040319C02DC32DCF
:102B80000A128A11F42C3C1EC62DC72DCB2D0630FF
:102B9000CA000030CB003608840083130008C5004B
:102BA000840A0008C600840A0008C700840A0008D6
:102BB000C8000430AD002D08B6074808831203137F
:102BC000A30083160313470883120313A20083167E
:102BD0000313460883120313A10083160313450849
:102BE00083120313A0000030A7000030A6000030BD
:102BF000A5000030A4000A168A110D200A168A11B9
:102C00000318032E042E3D2E831603134808831247
:102C10000313A30083160313470883120313A200B0
:102C200083160313460883120313A10083160313AC
:102C3000450883120313A0000A168A1100200A1601
:102C40008A1183120313230883160313C800831207
:102C50000313220883160313C700831203132108EA
:102C600083160313C600831203132008831603136D
:102C7000C5000330BB040030BC0483160313C3013A
:102C8000C401480883120313A300831603134708E3
:102C900083120313A200831603134608831203133F
:102CA000A10083160313450883120313A00000300C
:102CB000A7000030A6000030A5000030A4000A16CE
:102CC0008A150F250A168A110318672E682E942F6D
:102CD000031083160313470D480D823EC300FF30D7
:102CE00003180030C400FF30C3070318C40AFF30C4
:102CF000C407033083120313A0000030A100831621
:102D00000313440883120313A30083160313430819
:102D100083120313A2000A168A15D3220A168A11F7
:102D200083120313210883160313C40083120313B1
:102D3000200883160313C3000A3083120313A6006E
:102D40000030A70083160313440883120313A9005D
:102D500083160313430883120313A8000A128A156B
:102D60000F200A168A1183120313270883160313F0
:102D7000C40083120313260883160313C300C41F61
:102D8000C22EC32EC92EFF30C3070318C40AFF305A
:102D9000C4074303FF3A0A128A159D240A168A11B2
:102DA000831203134B0883160313C2008312031309
:102DB0004A0883160313C1008312031349088316BC
:102DC0000313C00083120313480883160313BF00C4
:102DD000480883120313B1008316031347088312B4
:102DE0000313B00083160313460883120313AF00C6
:102DF00083160313450883120313AE0083160313CF
:102E0000420883120313B50083160313410883128B
:102E10000313B40083160313400883120313B30093
:102E2000831603133F0883120313B2000A128A1594
:102E30003C210A168A1183120313310883160313E7
:102E4000C20083120313300883160313C1008312D8
:102E500003132F0883160313C000831203132E08D5
:102E600083160313BF00420883120313A3008316C3
:102E70000313410883120313A200831603134008AF
:102E800083120313A100831603133F088312031355
:102E9000A0003F30A7008030A6000030A500003021
:102EA000A4000A168A110D200A168A110318592F38
:102EB0005A2F632FFF3083160313C3070318C40A66
:102EC000FF30C407942F83160313420883120313A1
:102ED000A30083160313410883120313A200831671
:102EE0000313400883120313A100831603133F0842
:102EF00083120313A0004130A7002030A600003049
:102F0000A5000030A4000A168A110D200A168A11A5
:102F1000031C8B2F8C2F942F013083160313C307B0
:102F20000318C40A0030C407831603134B08803A01
:102F3000FF0080307F02031D9F2F0D304A020318CF
:102F4000A22FA32FEA2F831603134A080A128A110D
:102F5000D2250A168A11831203134B08DF004A0890
:102F6000DE004908DD004808DC008316031348082A
:102F700083120313E300831603134708831203131A
:102F8000E20083160313460883120313E10083163D
:102F90000313450883120313E0000A168A112C223A
:102FA0000A168A11831203135F0883160313C800DD
:102FB000831203135E0883160313C70083120313DF
:102FC0005D0883160313C600831203135C0883167F
:102FD0000313C500831603134408803AFF008030B2
:102FE0007F02031DF52F0A3043020318FA2F0A123D
:102FF0008A111E280A128A117D280A128A11CD2DE3
:10300000FF1B0A2883137F1883170008840A0319FB
:10301000FF0A080018308A000408840A8207003476
:103020000034003480343F340034003420344134E0
:1030300000340034C8344234003400347A34443428
:10304000003440341C34463400345034C3344734E4
:1030500000342434743449348034963418344B3476
:103060002034BC34BE344C3428346B346E344E348B
:10307000F934023415345034EC347834AD346034DF
:10308000CA34F234493471340034003480343F346B
:10309000CD34CC34CC343D340A34D73423343C34AE
:1030A0006F34123483343A341734B734D13438346B
:1030B000AC34C53427343734BD34373486343534F2
:1030C0009534BF34D63433347734CC342B34323463
:1030D0005F34703489343034FF34E634DB342E34DA
:1030E0000834E5343C341E3460344234A2340D34A8
:1030F00001340034003400340A3400340034003425
:103100006434003400340034E834033400340034D0
:103110001034273400340034A034863401340034B1
:10312000403442340F3400348034963498340034C0
:103130000034E134F53405340034CA349A343B3475
:10314000533431343A342034533432343A34203422
:10315000533433343A340034253433342E34323457
:1031600066345634003448344F344C3441340034DF
:10346200831203131E08F0007008F10071080800AF
:1034720064008001840A04060319003404063A2A0F
:10348200F500831203130C1E472A482A422A7508A4
:103492009900080000300A128A11DF270A168A15DD
:1034A20001300A128A11DF270A168A1508008312D0
:1034B20003130C1F5D2A5E2A632A0A168A154C23FF
:1034C2000A168A1574088A00730E8300FE0E7E0E99
:1034D2000900F600F5013A3076020318712A722AC1
:1034E2007A2A30307602031C772A782A7A2AF50162
:1034F200F50A750C0800831603139F131F129F12FF
:10350200831203131F139F131F08C33914389F001C
:103512004230F500F50B8B2A0000831203131F14AF
:10352200080083120313A000071420080A168A1544
:10353200B8230A168A158312031387141A30F60069
:10354200F60BA12A00008312031387101A30F6002B
:10355200F60BA92A0000080083120313A400240317
:10356200031DB42AB52AC12A22087F3EA3002308DC
:10357200A50025080A128A11DF270A168A15D22AFF
:1035820002302406031DC62AC72AD22A2208BF3EB9
:10359200A3002308A50025080A128A11DF270A16AC
:1035A2008A150800F501F60183120313201CDA2A9A
:1035B200DB2AE12A2208F5070318F60A2308F60790
:1035C20001300310A20DA30DFF3E031DE22A0130BC
:1035D2000310A10CA00CFF3E031DE92A20082104C0
:1035E200031DF42AF52AD52A7608A1007508A00041
:1035F200080083120313A600A201A3017508A0000C
:10360200A1012008A4002108A500261C092B0A2BD1
:10361200102B2408A2070318A30A2508A3070130C8
:103622000310A40DA50DFF3E031D112B0310A60CC4
:103632002608031D1D2B1E2B062B2308F60022082D
:10364200F500080083120313A000A101A2013E2B82
:103652002108200784000A168A150A200A168A15EC
:103662000A168A1541220A168A150130831203139B
:10367200A1070318A20A0030A2072108200784002C
:103682000A168A150A200A168A15003A031D4A2BC1
:103692004B2B292B0800831203131F0CF200720C10
:1036A2000F39053A031D562B572B692B77080A163B
:1036B2008A1531220A168A15F2007208831603133C
:1036C200DD00831203131F08C33918389F007A2BB9
:1036D20077080A168A1531220A168A15F20072082C
:1036E20083160313DC00831203131F08C339143833
:1036F2009F000C13080083120313200821040319EE
:10370200832B842BB32BF601F60A922B0130031084
:10371200A00DA10DFF3E031D882B0130F500750899
:10372200F607A11F952B962B872B21082302031D39
:103732009C2B20082202031C9F2BA02BA62B2008C7
:10374200A2022108031CA303A30201300310A10C4F
:10375200A00CFF3E031DA72B0130F602031DB22B66
:10376200B32B962B2308A1002208A0000800F50025
:10377200751CBC2BBD2BC12B831203130814C42B45
:10378200831203130810F51CC72BC82BCA2B8814ED
:10379200CB2B8810751DCE2BCF2BD12B0815D22BFE
:1037A2000811F51DD52BD62BD82B8815D92B8811AE
:1037B200751EDC2BDD2BDF2B0816E02B0812F51E05
:1037C200E32BE42BE62B8816E72B8812751FEA2BD6
:1037D200EB2BED2B0817EE2B0813F51FF12BF22B19
:1037E200F42B8817F52B8813080083120313D400D7
:1037F2003C30B100A030B0009030AF002E30AE00AF
:103802005408CC00CD01CE01CF014F08A3004E08D1
:10381200A2004D08A1004C08A00001300A168A152A
:1038220044270A168A15831203132308B5002208B7
:10383200B4002108B3002008B2000A128A153C2104
:103842000A168A15831203133108D3003008D200F6
:103852002F08D1002E08D0005308CB005208CA000E
:103862005108C9005008C800080083120313A601BA
:10387200A7015F2C26082107A4002208A300031831
:10388200A30AA61F452CA303831203132308A50032
:103892002508FF00240884000A168A1500200A164B
:1038A2008A150A168A1592220A168A15013083127F
:1038B2000313A6070318A70A0030A7072608210743
:1038C200A4002208A3000318A30AA61F692CA303BD
:1038D200831203132308A5002508FF00240884008F
:1038E2000A168A1500200A168A15003A031D7A2C38
:1038F2007B2C3B2C080083120313A901AA01240884
:1039020025040319852C862CBD2CAB01AB0A942C03
:1039120001300310A40DA50DFF3E031D8A2C0130BA
:10392200A8002808AB07A51F972C982C892C0130DA
:103932000310A90DAA0DFF3E031D992C250827028D
:10394200031DA52C24082602031CA82CA92CB02C8C
:103952002408A6022508031CA703A7022914013084
:103962000310A50CA40CFF3E031DB12C0130AB02C9
:10397200031DBC2CBD2C982C2A08A5002908A400E4
:10398200080000300A168A15B8230A168A15343040
:1039920083120313A300F130A200A20BCE2CA30BBF
:1039A200CE2C3F300A128A11DF270A168A150D30F3
:1039B20083120313A300FB30A200A20BDE2CA30B85
:1039C200DE2C3F300A128A11DF270A168A150230CE
:1039D20083120313A4001E30A300B330A200A20B73
:1039E200F02CA30BF02CA40BF02C3F300A128A11FE
:1039F200DF270A168A1538300A128A11DF270A16BB
:103A02008A150C300A128A11DF270A168A15063027
:103A12000A128A11DF270A168A150800003083125B
:103A220003132005A80000302105A90080302205DB
:103A3200AA007F302305AB002B082A04290428049E
:103A4200031D242D252D2D2D0030A3000030A200B2
:103A52000030A1000030A00000302405A800003092
:103A62002505A90080302605AA007F302705AB0076
:103A72002B082A0429042804031D402D412D492D19
:103A82000030A7000030A6000030A5000030A400DE
:103A920027082306031D572D26082206031D572D2E
:103AA20025082106031D572D2408200603195A2D27
:103AB2005B2D5D2D03105E2D0314080080308316EC
:103AC2000313A306270883120313DF0083160313CD
:103AD200260883120313DE008316031325088312BC
:103AE2000313DD0083160313240883120313DC007F
:103AF20083160313230883120313E30083160313AD
:103B0200220883120313E20083160313210883128F
:103B12000313E10083160313200883120313E0004A
:103B22000A168A112C220A168A15831203135F08B9
:103B320083160313A300831203135E088316031371
:103B4200A200831203135D0883160313A1008312DC
:103B520003135C0883160313A000080083120313E7
:103B620023082204210420040319B82DB92DFC2DA9
:103B7200F601F60AC92D0130F5000310A00DA10DC2
:103B8200A20DA30DF50BBE2D0130F5007508F60749
:103B9200A31FCC2DCD2DBC2D23082702031DDB2D09
:103BA20022082602031DDB2D21082502031DDB2D21
:103BB20020082402031CDE2DDF2DED2D2008A40297
:103BC2002108031C210FA5022208031C220FA602B2
:103BD2002308031C230FA70201300310A30CA20C1D
:103BE200A10CA00CFF3E031DEE2D0130F602031DB9
:103BF200FB2DFC2DCD2D2708A3002608A2002508A9
:103C0200A1002408A000080083120313A501A31F2A
:103C12000B2E0C2E132EA209A309A20A0319A30A22
:103C2200A501A50AA11F162E172E1C2EA009A10957
:103C3200A00A0319A10A200821040319212E222E09
:103C4200512EA401A40A302E01300310A00DA10DA3
:103C5200FF3E031D262E0130F5007508A407A11FA3
:103C6200332E342E252E21082302031D3A2E20083E
:103C72002202031C3D2E3E2E442E2008A2022108C1
:103C8200031CA303A30201300310A10CA00CFF3EEE
:103C9200031D452E0130A402031D502E512E342E39
:103CA20025080319552E562E5B2EA209A309A20A36
:103CB2000319A30A2308A1002208A000080000306B
:103CC20083120313AB000030AA000030A9000030B9
:103CD200A80023082204210420040319712E722E45
:103CE200BF2EAC01AC0A822E0130F5000310A00DEC
:103CF200A10DA20DA30DF50B772E0130F50075086D
:103D0200AC07A31F852E862E752E0130F5000310F9
:103D1200A80DA90DAA0DAB0DF50B882E23082702BD
:103D2200031D9D2E22082602031D9D2E2108250219
:103D3200031D9D2E20082402031CA02EA12EB02EAE
:103D42002008A4022108031C210FA5022208031C3B
:103D5200220FA6022308031C230FA70228140130F6
:103D62000310A30CA20CA10CA00CFF3E031DB12E4C
:103D72000130AC02031DBE2EBF2E862E2B08A300DF
:103D82002A08A2002908A1002808A00008000310A0
:103D9200831203135D0D5E0DDF005F08E500650809
:103DA200031DD42ED52EDE2E0030DE000030DD00C5
:103DB2000030DC000030DB00432F5B08DF005C08D2
:103DC200E0005D08E1005E08E2001F300310E20C33
:103DD200E10CE00CDF0CFF3E031DE72E5F08E30061
:103DE2006308E400DD17FF30DB05FF30DC05FF3040
:103DF200DD050030DE059630E502E51F012F022FBA
:103E02001C2F6508803A973E0318082F092F0A2FA6
:103E1200D52E01300310DE0CDD0CDC0CDB0CFF3E7A
:103E2200031D0B2F0130DF005F08E507031D1A2F6A
:103E32001B2F0A2F332F20306502031C212F222F24
:103E42002E2FD52E0130DF000310DB0DDC0DDD0D32
:103E5200DE0DDF0B252F0130E5026508031D322F31
:103E6200332F232F64080319372F382F432FDB09F1
:103E7200DC09DD09DE09DB0A0319DC0A0319DD0AA4
:103E82000319DE0A080083120313A8002808031985
:103E92004B2F4C2F602FA31F4F2F502F602F200925
:103EA200AA002109AB002209AC002309AD00AA0A2D
:103EB2000319AB0A0319AC0A0319AD0A682F2308C8
:103EC200AD002208AC002108AB002008AA0023089C
:103ED200220421042004031D6F2F702F792F00303C
:103EE200A3000030A2000030A1000030A000FF2F8C
:103EF2009630A4002408A9008B2F0130A4002408C6
:103F0200A90701300310AD0CAC0CAB0CAA0CFF3EA0
:103F1200031D832FFE302D05031D902F912F7E2F21
:103F2200AD2F0130A4002408A9070130AA070030F0
:103F320003180130AB07003003180130AC07003022
:103F420003180130AD0701300310AD0CAC0CAB0C03
:103F5200AA0CFF3E031DA52FFF302D05031DB22F16
:103F6200B32F922FBF2F0130A9020130A4000310FA
:103F7200AA0DAB0DAC0DAD0DA40BB82FAC1BC22F0F
:103F8200C32FC92F023029020318C82FC92FB42FFB
:103F92002918CC2FCD2FD52FFF30AA05FF30AB0526
:103FA2007F30AC05FF30AD050310A90C2908A40031
:103FB200A501A601A70118300310A40DA50DA60D99
:103FC200A70DFF3E031DDD2F2408AA042508AB041C
:103FD2002608AC042708AD0428080319F12FF22F94
:103FE200F72FA31FF52FF62FF72FAD172D08A300DC
:0E3FF2002C08A2002B08A1002A08A00008003D
:04400E00D620FF3F7A
:00000001FF
